1019000002802 0210000211706230349T094101GOLDEN RULE INSURANCE -JPMORGAN CHASE
   
5200UNITEDHEALTHONE ACH INS PREM        9005900018CORINS. PREM.170618170620   10
21000022432530                                                                  
6270000028022364074365       0000000000090416205      ANDREW ZEILBECK         10
21000022432530                                                                  
798C02071000010004985      12100024074900275                          CHANGE9170
2E000022432530                                                                  
6270000028023012986182       0000000000094339599                              10
21000022434560                                                                  
798C02071000010010635      12100024111900659                          CHANGE9170
2E000022434560                                                                  
820000000400000005600000000000000000000000009005900018                         0
21000022432530                                                                  
5200UNITEDHEALTHONE ACH INS PREM        9005900018CORINS. PREM.170619170621   10
21000023644861                                                                  
6270000028021727502          0000000000059049018      PHYLLIS WOLJEVACH       10
21000023644861                                                                  
798C01071000010000464      111907191728443                            CHANGE9160
2E000023644861                                                                  
63700000280200422074         0000000000090096489      JOHN GUSTIN             10
21000023645090                                                                  
798C05071000010000879      1012192727                                 CHANGE9170
2E000023645090                                                                  
820000000400000005600000000000000000000000009005900018                         0
21000023644861                                                                  
5200UNITEDHEALTHONE ACH INS PREM        9005900018CORINS. PREM.170620170621   10
21000028325876                                                                  
6270000028021410028708       0000000000059947451      VALERIE MOORE           10
21000028325876                                                                  
798C01071000010003398      06110262410028708                          CHANGE9160
2E000028325876                                                                  
820000000200000002800000000000000000000000009005900018                         0
21000028325876                                                                  
5200UNITEDHEALTHONE ACH INS PREM        9005900018CORINS. PREM.170620170621   10
21000027822135                                                                  
6270000028021001002433       0000000000093392738                              10
21000027822135                                                                  
798C02071000010006446      03191181021300077                          CHANGE9170
2E000027822135                                                                  
820000000200000002800000000000000000000000009005900018                         0
21000027822135                                                                  
5200UNITEDHEALTHONE ACH INS PREM        9005900018CORRDP RETRY 170618170623   10
21000020600744                                                                  
6270000028022489920          0000000000093070893                              10
21000020600744                                                                  
798C01071000010005436      21117820248992020                          CHANGE9160
2E000020600744                                                                  
820000000200000002800000000000000000000000009005900018                         0
21000020600744                                                                  
5200UNITEDHEALTHONE ACH INS PREM        9005900018PPDINS. PREM.170516170517   10
21000024036168                                                                  
627000002802837692388        0000013650094338908                              10
21000024036168                                                                  
799R10071000010004464      26708413CUST ADVISES NOT AUTH.             9955109160
2E000024036168                                                                  
820000000200000002800000000136500000000000009005900018                         0
21000024036168                                                                  
5200UNITEDHEALTHONE ACH INS PREM        9005900018PPDINS. PREM.170522170524   10
21000020371234                                                                  
627000002802334038177101     0000002496094311429                              10
21000020371234                                                                  
799R10071000010002752      06100005CUST ADVISES NOT AUTH.             0030819160
2E000020371234                                                                  
820000000200000002800000000024960000000000009005900018                         0
21000020371234                                                                  
5200UNITEDHEALTHONE ACH INS PREM        9005900018PPDINS. PREM.170524170525   10
21000025958977                                                                  
6270000028020005209456526    0000024110094346635                              10
21000025958977                                                                  
799R10071000010002631      05310112CUST ADVISES NOT AUTH.             0030759160
2E000025958977                                                                  
820000000200000002800000000241100000000000009005900018                         0
21000025958977                                                                  
5200UNITEDHEALTHONE ACH INS PREM        9005900018PPDINS. PREM.170601170602   10
21000028039819                                                                  
627000002802798196168        0000031285094307597                              10
21000028039819                                                                  
799R10071000010079586      07400001CUST ADVISES NOT AUTH.             9955109160
2E000028039819                                                                  
820000000200000002800000000312850000000000009005900018                         0
21000028039819                                                                  
5200UNITEDHEALTHONE ACH INS PREM        9005900018PPDINS. PREM.170605170607   10
21000021139814                                                                  
627000002802457034214198     0000009100094300849                              10
21000021139814                                                                  
799R10071000010014358      12210170CUST ADVISES NOT AUTH.             0030789160
2E000021139814                                                                  
820000000200000002800000000091000000000000009005900018                         0
21000021139814                                                                  
5200UNITEDHEALTHONE ACH INS PREM        9005900018PPDINS. PREM.170619170621   10
21000022522203                                                                  
6270000028024744730066526885 0000012880094369511                              10
21000022522203                                                                  
799R03071000010002303      05300019NO A/C UNABLE TO LOCATE            0030059150
2E000022522203                                                                  
820000000200000002800000000128800000000000009005900018                         0
21000022522203                                                                  
5200UNITEDHEALTHONE ACH INS PREM        9005900018PPDINS. PREM.170619170621   10
21000022522008                                                                  
6270000028021100008771888    0000003042094202764      SANDERS,WILLIAM         10
21000022522008                                                                  
799R02071000010001742      26319138ACCOUNT CLOSED                     0030759160
2E000022522008                                                                  
6270000028020000149329765    0000006530430119014                              10
21000022522289                                                                  
799R02071000010002530      26319138ACCOUNT CLOSED                     0030759160
2E000022522289                                                                  
6270000028029210000058591    0000001746094356772                              10
21000023645788                                                                  
799R03071000010002184      05320098NO A/C UNABLE TO LOCATE            0030779160
2E000023645788                                                                  
6270000028029210000058591    0000009630094356773                              10
21000023645789                                                                  
799R03071000010002185      05320098NO A/C UNABLE TO LOCATE            0030779160
2E000023645789                                                                  
820000000800000011200000000209480000000000009005900018                         0
21000022522008                                                                  
5200UNITEDHEALTHONE ACH INS PREM        9005900018PPDINS. PREM.170619170621   10
21000022521609                                                                  
627000002802004378603944     0000076865059221336                              10
21000022521609                                                                  
799R08071000010000570      12210170PAYMENT STOPPED                    0030789160
2E000022521609                                                                  
6270000028023325976078       0000001860094317986                              10
21000022522091                                                                  
799R08071000010002001      05300021PAYMENT STOPPED                    0030799160
2E000022522091                                                                  
6270000028021010323832546    0000002230094333760                              10
21000022522109                                                                  
799R08071000010002046      05320776PAYMENT STOPPED                    0030799160
2E000022522109                                                                  
6270000028028344066660       0000001140430315135                              10
21000022522347                                                                  
799R02071000010002711      11190065ACCOUNT CLOSED                     0030799160
2E000022522347                                                                  
62700000280210201796         0000028090094199804                              10
21000023645506                                                                  
799R08071000010001657      11490256PAYMENT STOPPED                    0030809160
2E000023645506                                                                  
62700000280210201796         0000028090094199804                              10
21000023645507                                                                  
799R08071000010001658      11490256PAYMENT STOPPED                    0030809160
2E000023645507                                                                  
6270000028026190892          0000003533094366442                              10
21000023645802                                                                  
799R04071000010002207      26208388INVALID ACCOUNT NUMBER             0030809160
2E000023645802                                                                  
820000001400000019600000001418080000000000009005900018                         0
21000022521609                                                                  
5200UNITEDHEALTHONE ACH INS PREM        9005900018PPDINS. PREM.170619170621   10
21000023645770                                                                  
62700000280294366            0000003458094343392                              10
21000023645770                                                                  
799R04071000010002148      26227718INVALID ACCOUNT NUMBER             0030819160
2E000023645770                                                                  
820000000200000002800000000034580000000000009005900018                         0
21000023645770                                                                  
5200UNITEDHEALTHONE ACH INS PREM        9005900018PPDINS. PREM.170619170621   10
21000022522158                                                                  
6270000028021000204526717    0000001140094347211                              10
21000022522158                                                                  
799R04071000010002161      06100010INVALID ACCOUNT NUMBER             0031449170
2E000022522158                                                                  
6270000028021000204526717    0000001746094347212                              10
21000022522159                                                                  
799R04071000010002162      06100010INVALID ACCOUNT NUMBER             0031449170
2E000022522159                                                                  
627000002802129131144        0000016738094368792                              10
21000023645814                                                                  
799R08071000010002225      08100460PAYMENT STOPPED                    0031459170
2E000023645814                                                                  
627000002802129131144        0000014738094368792                              10
21000023645815                                                                  
799R08071000010002226      08100460PAYMENT STOPPED                    0031459170
2E000023645815                                                                  
820000000800000011200000000343620000000000009005900018                         0
21000022522158                                                                  
5200UNITEDHEALTHONE ACH INS PREM        9005900018PPDINS. PREM.170619170621   10
21000022522233                                                                  
627000002802822333306        0000032760094370124                              10
21000022522233                                                                  
799R03071000010002392      12200024NO A/C UNABLE TO LOCATE            0031469170
2E000022522233                                                                  
820000000200000002800000000327600000000000009005900018                         0
21000022522233                                                                  
5200UNITEDHEALTHONE ACH INS PREM        9005900018PPDINS. PREM.170619170621   10
21000022522032                                                                  
627000002802150874599718     0000001812094250534                              10
21000022522032                                                                  
799R02071000010001819      10400002ACCOUNT CLOSED                     0031519170
2E000022522032                                                                  
6270000028028402560699       0000008988094317863                              10
21000022522090                                                                  
799R08071000010001999      03100005PAYMENT STOPPED                    0031519170
2E000022522090                                                                  
627000002802192652           0000033990094289922                              10
21000023645644                                                                  
799R03071000010001891      08150134NO A/C UNABLE TO LOCATE            0031559180
2E000023645644                                                                  
820000000600000008400000000447900000000000009005900018                         0
21000022522032                                                                  
5200UNITEDHEALTHONE ACH INS PREM        9005900018PPDINS. PREM.170620170621   10
21000027822093                                                                  
6270000028020047498500       0000030735093370223      SOCKRIDER,GUY           10
21000027822093                                                                  
799R08071000010006318      06540015PAYMENT STOPPED                    0030049150
2E000027822093                                                                  
6270000028020080553559       0000004623093297144                              10
21000028327229                                                                  
799R16071000010005947      06530543ACCOUNT FROZEN                     0030049150
2E000028327229                                                                  
820000000400000005600000000353580000000000009005900018                         0
21000027822093                                                                  
5200UNITEDHEALTHONE ACH INS PREM        9005900018PPDINS. PREM.170620170621   10
21000027823070                                                                  
6270000028024440087940786    0000012500094345644                              10
21000027823070                                                                  
799R03071000010009060      06400002NO A/C UNABLE TO LOCATE            0030059150
2E000027823070                                                                  
627000002802898067780557     0000002426094348174                              10
21000027823078                                                                  
799R03071000010009078      06300004NO A/C UNABLE TO LOCATE            0030059150
2E000027823078                                                                  
62700000280213910092293      0000041218094350245                              10
21000027823089                                                                  
799R03071000010009091      12310371NO A/C UNABLE TO LOCATE            0030059150
2E000027823089                                                                  
627000002802485011536832     0000002565094370547                              10
21000027823155                                                                  
799R03071000010009283      06300004NO A/C UNABLE TO LOCATE            0030059150
2E000027823155                                                                  
62700000280222000927168      0000003042094370622                              10
21000027823168                                                                  
799R03071000010009310      06310027NO A/C UNABLE TO LOCATE            0030059150
2E000027823168                                                                  
627000002802898076448345     0000001040094370675                              10
21000027823177                                                                  
799R03071000010009322      06310027NO A/C UNABLE TO LOCATE            0030059150
2E000027823177                                                                  
627000002802898076448345     0000003215094370676                              10
21000027823178                                                                  
799R03071000010009323      06310027NO A/C UNABLE TO LOCATE            0030059150
2E000027823178                                                                  
6270000028027915400159       0000002241430304669                              10
21000028329598                                                                  
799R02071000010010349      07240545ACCOUNT CLOSED                     0030059150
2E000028329598                                                                  
820000001600000022400000000682470000000000009005900018                         0
21000027823070                                                                  
5200UNITEDHEALTHONE ACH INS PREM        9005900018PPDINS. PREM.170620170621   10
21000027822523                                                                  
6270000028024659815345       0000001972094136429                              10
21000027822523                                                                  
799R08071000010007453      07192189PAYMENT STOPPED                    0030069150
2E000027822523                                                                  
6270000028021072201426       0000001140094343727                              10
21000028328913                                                                  
799R03071000010009008      11490268NO A/C UNABLE TO LOCATE            0030069150
2E000028328913                                                                  
6270000028021072201426       0000002334094343728                              10
21000028328914                                                                  
799R03071000010009009      11490268NO A/C UNABLE TO LOCATE            0030069150
2E000028328914                                                                  
6270000028021072201426       0000003860094343729                              10
21000028328915                                                                  
799R03071000010009010      11490268NO A/C UNABLE TO LOCATE            0030069150
2E000028328915                                                                  
820000000800000011200000000093060000000000009005900018                         0
21000027822523                                                                  
5200UNITEDHEALTHONE ACH INS PREM        9005900018PPDINS. PREM.170620170621   10
21000028327888                                                                  
6270000028027110188658       0000002041094049041                              10
21000028327888                                                                  
799R02071000010007147      04330682ACCOUNT CLOSED                     0030759160
2E000028327888                                                                  
6270000028027110188658       0000001140094049042                              10
21000028327889                                                                  
799R02071000010007148      04330682ACCOUNT CLOSED                     0030759160
2E000028327889                                                                  
820000000400000005600000000031810000000000009005900018                         0
21000028327888                                                                  
5200UNITEDHEALTHONE ACH INS PREM        9005900018PPDINS. PREM.170620170621   10
21000027821467                                                                  
627000002802913434487        0000007360090342970                              10
21000027821467                                                                  
799R08071000010004581      27107080PAYMENT STOPPED                    0030779160
2E000027821467                                                                  
627000002802139336607        0000002012094370536                              10
21000027823154                                                                  
799R16071000010009282      27107080ACCOUNT FROZEN                     0030779160
2E000027823154                                                                  
6270000028020304379          0000019489058847440      VERA SMITH              10
21000028324987                                                                  
799R02071000010001785      06500228ACCOUNT CLOSED                     0030779160
2E000028324987                                                                  
62700000280254635982         0000021977090073380                              10
21000028326097                                                                  
799R02071000010003794      08420127ACCOUNT CLOSED                     0030779160
2E000028326097                                                                  
627000002802003457532        0000007930094243101                              10
21000028328428                                                                  
799R03071000010008160      10310088NO A/C UNABLE TO LOCATE            0030779160
2E000028328428                                                                  
820000001000000014000000000587680000000000009005900018                         0
21000027821467                                                                  
5200UNITEDHEALTHONE ACH INS PREM        9005900018PPDINS. PREM.170620170621   10
21000027821205                                                                  
627000002802715487965        0000024390090081147      STERLING,FRANCISCO J    10
21000027821205                                                                  
799R16071000010003827      06500017ACCOUNT FROZEN                     0030789160
2E000027821205                                                                  
627000002802715487965        0000005935090317231      FRANCISCO J STERLING    10
21000027821406                                                                  
799R16071000010004409      06500017ACCOUNT FROZEN                     0030789160
2E000027821406                                                                  
627000002802005743452240     0000004016430113739                              10
21000027823379                                                                  
799R08071000010009875      11100002PAYMENT STOPPED                    0030789160
2E000027823379                                                                  
627000002802310352           0000030758058184100      PATRICIA A RILEY        10
21000028324637                                                                  
799R02071000010001154      04221384ACCOUNT CLOSED                     0030789160
2E000028324637                                                                  
627000002802701415630        0000069369093129465      BERNARD & LESLEY BRUNS  10
21000028326866                                                                  
799R02071000010005290      04331809ACCOUNT CLOSED                     0030789160
2E000028326866                                                                  
820000001000000014000000001344680000000000009005900018                         0
21000027821205                                                                  
5200UNITEDHEALTHONE ACH INS PREM        9005900018PPDINS. PREM.170620170621   10
21000027822007                                                                  
6270000028021000002536597    0000004444093323843                              10
21000027822007                                                                  
799R02071000010006056      05300021ACCOUNT CLOSED                     0030799160
2E000027822007                                                                  
62700000280200953719         0000053640094349450                              10
21000027823083                                                                  
799R03071000010009083      06100022NO A/C UNABLE TO LOCATE            0030799160
2E000027823083                                                                  
62700000280200953719         0000004700094349451                              10
21000027823084                                                                  
799R03071000010009084      06100022NO A/C UNABLE TO LOCATE            0030799160
2E000027823084                                                                  
62700000280200953719         0000007415094349452                              10
21000027823085                                                                  
799R03071000010009085      06100022NO A/C UNABLE TO LOCATE            0030799160
2E000027823085                                                                  
62700000280209771453         0000035932094367683                              10
21000027823120                                                                  
799R03071000010009167      09110145NO A/C UNABLE TO LOCATE            0030799160
2E000027823120                                                                  
62700000280209337289         0000059497094369235                              10
21000027823126                                                                  
799R03071000010009192      09110145NO A/C UNABLE TO LOCATE            0030799160
2E000027823126                                                                  
6270000028024737030976673417 0000002565094370900                              10
21000027823197                                                                  
799R03071000010009372      05140054NO A/C UNABLE TO LOCATE            0030799160
2E000027823197                                                                  
6270000028024300022806       0000001665094226723                              10
21000028328381                                                                  
799R02071000010008075      06530027ACCOUNT CLOSED                     0030799160
2E000028328381                                                                  
6270000028023335576724       0000030250094343149                              10
21000028328884                                                                  
799R03071000010008956      11190101NO A/C UNABLE TO LOCATE            0030799160
2E000028328884                                                                  
6270000028021165135          0000003637430114819                              10
21000028329359                                                                  
799R16071000010009887      11110365ACCOUNT FROZEN                     0030799160
2E000028329359                                                                  
820000002000000028000000002037450000000000009005900018                         0
21000027822007                                                                  
5200UNITEDHEALTHONE ACH INS PREM        9005900018PPDINS. PREM.170620170621   10
21000028327935                                                                  
6270000028026302379028       0000001570094067227                              10
21000028327935                                                                  
799R02071000010007229      03607615ACCOUNT CLOSED                     0030809160
2E000028327935                                                                  
820000000200000002800000000015700000000000009005900018                         0
21000028327935                                                                  
5200UNITEDHEALTHONE ACH INS PREM        9005900018PPDINS. PREM.170620170621   10
21000027821949                                                                  
627000002802000776928335     0000050102093285473      MADAMINOV,ULUGBEK       10
21000027821949                                                                  
799R16071000010005883      05390448ACCOUNT FROZEN                     0030819160
2E000027821949                                                                  
627000002802415200261        0000072061058572223      NELSON & DOTTIE RYMAN   10
21000028324791                                                                  
799R08071000010001449      06311403PAYMENT STOPPED                    0030819160
2E000028324791                                                                  
63700000280210100579858      0000025360094339930                              10
21000028328855                                                                  
799R03071000010008917      27248067NO A/C UNABLE TO LOCATE            0030819160
2E000028328855                                                                  
62700000280251034147         0000001517094368897                              10
21000028329014                                                                  
799R20071000010009189      25317704NON-TRANSACTION ACCOUNT            0030819160
2E000028329014                                                                  
820000000800000011200000001490400000000000009005900018                         0
21000027821949                                                                  
5200UNITEDHEALTHONE ACH INS PREM        9005900018PPDINS. PREM.170620170621   10
21000027823117                                                                  
627000002802143376316        0000015453094367297                              10
21000027823117                                                                  
799R04071000010009157      06310215INVALID ACCOUNT NUMBER             0031449170
2E000027823117                                                                  
6270000028022590022726       0000007980094371312                              10
21000027823219                                                                  
799R04071000010009452      06100010INVALID ACCOUNT NUMBER             0031449170
2E000027823219                                                                  
62700000280222370137         0000016997094158585      RAYMOND TAMARA GARVER   10
21000028328120                                                                  
799R08071000010007639      10490067PAYMENT STOPPED                    0031459170
2E000028328120                                                                  
6270000028020741816706       0000001600430325431                              10
21000028329662                                                                  
799R07071000010010480      05310505AUTHORIZATION REVOKED              0031459170
2E000028329662                                                                  
820000000800000011200000000420300000000000009005900018                         0
21000027823117                                                                  
5200UNITEDHEALTHONE ACH INS PREM        9005900018PPDINS. PREM.170620170621   10
21000028327374                                                                  
6270000028022124502200       0000082245093352557      THE HOLDINGS            10
21000028327374                                                                  
799R02071000010006196      12210590ACCOUNT CLOSED                     0031469170
2E000028327374                                                                  
62700000280210329847815207   0000000692094343713                              10
21000028328912                                                                  
799R04071000010009007      10100069INVALID ACCOUNT NUMBER             0031469170
2E000028328912                                                                  
6270000028022414300          0000017930094367660                              10
21000028328997                                                                  
799R03071000010009166      11191665NO A/C UNABLE TO LOCATE            0031469170
2E000028328997                                                                  
820000000600000008400000001008670000000000009005900018                         0
21000028327374                                                                  
5200UNITEDHEALTHONE ACH INS PREM        9005900018PPDINS. PREM.170620170621   10
21000027821666                                                                  
627000002802157641417074     0000024699093074956      KATARZYNA REIMSCHUSSAL  10
21000027821666                                                                  
799R08071000010005085      07190477PAYMENT STOPPED                    0031519170
2E000027821666                                                                  
6270000028028052546271       0000014727093416716                              10
21000027822221                                                                  
799R16071000010006676      03120760ACCOUNT FROZEN                     0031519170
2E000027822221                                                                  
6270000028025340588632       0000009550093962638      JIMMY BOSTON            10
21000027822354                                                                  
799R02071000010006995      05400003ACCOUNT CLOSED                     0031519170
2E000027822354                                                                  
6270000028020800025192       0000003300094239075                              10
21000027822770                                                                  
799R02071000010008138      12200049ACCOUNT CLOSED                     0031519170
2E000027822770                                                                  
627000002802310012915        0000035250094355322                              10
21000027823097                                                                  
799R03071000010009109      08300010NO A/C UNABLE TO LOCATE            0031519170
2E000027823097                                                                  
627000002802001405886        0000098753054858118      FLOWERLAND              10
21000028324068                                                                  
799R08071000010000165      05210098PAYMENT STOPPED                    0031519170
2E000028324068                                                                  
6270000028021012064163       0000010077093357713                              10
21000028327396                                                                  
799R02071000010006232      06600965ACCOUNT CLOSED                     0031519170
2E000028327396                                                                  
62700000280220000065983457   0000008280094333493                              10
21000028328827                                                                  
799R03071000010008864      11302458NO A/C UNABLE TO LOCATE            0031519170
2E000028328827                                                                  
627000002802108893           0000001967094371608                              10
21000028329186                                                                  
799R03071000010009517      07241394NO A/C UNABLE TO LOCATE            0031519170
2E000028329186                                                                  
820000001800000025200000002066030000000000009005900018                         0
21000027821666                                                                  
5200UNITEDHEALTHONE ACH INS PREM        9005900018PPDINS. PREM.170620170621   10
21000020596957                                                                  
627000002802792276763        0000002330094153175                              10
21000020596957                                                                  
799R03071000010007542      26708413NO A/C UNABLE TO LOCATE            9990219150
2E000020596957                                                                  
627000002802502101025        0000005129094370573                              10
21000020596989                                                                  
799R03071000010009293      26708413NO A/C UNABLE TO LOCATE            9990219150
2E000020596989                                                                  
6270000028022700032747646    0000015810094370979                              10
21000020596994                                                                  
799R03071000010009393      07200032NO A/C UNABLE TO LOCATE            9990219150
2E000020596994                                                                  
6270000028022700032747646    0000002717094370980                              10
21000020596995                                                                  
799R03071000010009394      07200032NO A/C UNABLE TO LOCATE            9990219150
2E000020596995                                                                  
627000002802153123660        0000007417059071891                              10
21000020781900                                                                  
799R08071000010002372      11100061PAYMENT STOPPED                    9992019150
2E000020781900                                                                  
627000002802461530433        0000001110094158199                              10
21000020963635                                                                  
799R02071000010007637      02100002ACCOUNT CLOSED                     9998029150
2E000020963635                                                                  
820000001200000016800000000345130000000000009005900018                         0
21000020596957                                                                  
5200UNITEDHEALTHONE ACH INS PREM        9005900018PPDINS. PREM.170621170623   10
21000024527263                                                                  
6270000028026713532817       0000006550430288852      NAIRN,MICHAEL           10
21000024527263                                                                  
799R02071000010003626      11301054ACCOUNT CLOSED                     0031519170
2E000024527263                                                                  
820000000200000002800000000065500000000000009005900018                         0
21000024527263                                                                  
5200UNITEDHEALTHONE ACH INS PREM        9005900018PPDRDP RETRY 170613170621   10
21000027031386                                                                  
6270000028021440002310981    0000016480094263879                              10
21000027031386                                                                  
799R01071000010001748      11101769INSUFFICIENT FUNDS                 0030759160
2E000027031386                                                                  
6270000028020005206933501    0000005680094268172                              10
21000027031387                                                                  
799R01071000010001755      05310112INSUFFICIENT FUNDS                 0030759160
2E000027031387                                                                  
6270000028020005206933501    0000005680094268172                              10
21000027031388                                                                  
799R01071000010001756      05310112INSUFFICIENT FUNDS                 0030759160
2E000027031388                                                                  
6270000028020120285053       0000081078093195129                              10
21000028981363                                                                  
799R01071000010001041      10300363INSUFFICIENT FUNDS                 0030759160
2E000028981363                                                                  
6270000028024728325          0000018900094221864      DAVID LABRAYERE         10
21000028981372                                                                  
799R01071000010001676      08100067INSUFFICIENT FUNDS                 0030759160
2E000028981372                                                                  
820000001000000014000000001278180000000000009005900018                         0
21000027031386                                                                  
5200UNITEDHEALTHONE ACH INS PREM        9005900018PPDRDP RETRY 170613170621   10
21000027031383                                                                  
6270000028021582919740       0000150904058477849      HAMMER,JASON T*         10
21000027031383                                                                  
799R01071000010000279      10200007INSUFFICIENT FUNDS                 0030769160
2E000027031383                                                                  
6270000028021582919740       0000150904058477849      HAMMER,JASON T*         10
21000027031384                                                                  
799R01071000010000280      10200007INSUFFICIENT FUNDS                 0030769160
2E000027031384                                                                  
6270000028021010282900315    0000012876094312808                              10
21000027031391                                                                  
799R01071000010001873      05320776INSUFFICIENT FUNDS                 0030769160
2E000027031391                                                                  
6270000028028928252975       0000002000094317142                              10
21000027031392                                                                  
799R01071000010001909      06100022INSUFFICIENT FUNDS                 0030769160
2E000027031392                                                                  
6270000028028928252975       0000010560094317142                              10
21000027031393                                                                  
799R01071000010001910      06100022INSUFFICIENT FUNDS                 0030769160
2E000027031393                                                                  
6270000028028928252975       0000010560094317142                              10
21000027031394                                                                  
799R01071000010001911      06100022INSUFFICIENT FUNDS                 0030769160
2E000027031394                                                                  
6270000028021010242028321    0000030840094336099                              10
21000027031395                                                                  
799R01071000010001952      06100022INSUFFICIENT FUNDS                 0030769160
2E000027031395                                                                  
6270000028021010242028321    0000030840094336099                              10
21000027031396                                                                  
799R01071000010001953      06100022INSUFFICIENT FUNDS                 0030769160
2E000027031396                                                                  
6270000028027801444873       0000002227430096441                              10
21000027031399                                                                  
799R01071000010002448      12210527INSUFFICIENT FUNDS                 0030769160
2E000027031399                                                                  
62700000280208632726092      0000022840094334841                              10
21000028981381                                                                  
799R01071000010001950      25317704INSUFFICIENT FUNDS                 0030779160
2E000028981381                                                                  
62700000280208632726092      0000022840094334841                              10
21000028981382                                                                  
799R01071000010001951      25317704INSUFFICIENT FUNDS                 0030779160
2E000028981382                                                                  
820000002200000030800000004473910000000000009005900018                         0
21000027031383                                                                  
5200UNITEDHEALTHONE ACH INS PREM        9005900018PPDRDP RETRY 170613170621   10
21000027031397                                                                  
627000002802501021706992     0000012240094350126                              10
21000027031397                                                                  
799R01071000010002042      12240072INSUFFICIENT FUNDS                 0030789160
2E000027031397                                                                  
627000002802457019096807     0000001900430129568                              10
21000027031400                                                                  
799R01071000010002500      12210170INSUFFICIENT FUNDS                 0030789160
2E000027031400                                                                  
6270000028020073142413       0000091650059652244      BISHOP,ALVERTIS W*      10
21000028981362                                                                  
799R01071000010000538      04200031INSUFFICIENT FUNDS                 0030809160
2E000028981362                                                                  
6270000028024470259          0000026500094317591                              10
21000028981379                                                                  
799R01071000010001914      06410677INSUFFICIENT FUNDS                 0030809160
2E000028981379                                                                  
820000000800000011200000001322900000000000009005900018                         0
21000027031397                                                                  
5200UNITEDHEALTHONE ACH INS PREM        9005900018PPDRDP RETRY 170613170621   10
21000027031389                                                                  
627000002802237030682041     0000014380094270682                              10
21000027031389                                                                  
799R01071000010001758      05300019INSUFFICIENT FUNDS                 0030819160
2E000027031389                                                                  
627000002802237030682041     0000014380094270682                              10
21000027031390                                                                  
799R01071000010001759      05300019INSUFFICIENT FUNDS                 0030819160
2E000027031390                                                                  
627000002802898084871522     0000002565094363998                              10
21000027031398                                                                  
799R01071000010002170      06310027INSUFFICIENT FUNDS                 0030819160
2E000027031398                                                                  
627000002802003787227307     0000004000430335624                              10
21000027031402                                                                  
799R01071000010002690      06400002INSUFFICIENT FUNDS                 0030819160
2E000027031402                                                                  
6270000028027060904724       0000001764094313093                              10
21000028981378                                                                  
799R01071000010001891      25607497INSUFFICIENT FUNDS                 0030819160
2E000028981378                                                                  
6270000028027064724581       0000001570094349560                              10
21000028981384                                                                  
799R01071000010002040      25607497INSUFFICIENT FUNDS                 0030819160
2E000028981384                                                                  
6270000028027064724581       0000003971094349562                              10
21000028981385                                                                  
799R01071000010002041      25607497INSUFFICIENT FUNDS                 0030819160
2E000028981385                                                                  
820000001400000019600000000426300000000000009005900018                         0
21000027031389                                                                  
5200UNITEDHEALTHONE ACH INS PREM        9005900018PPDRDP RETRY 170613170621   10
21000028981376                                                                  
6270000028026735720730       0000007480094275347                              10
21000028981376                                                                  
799R01071000010001783      11301054INSUFFICIENT FUNDS                 0031459170
2E000028981376                                                                  
627000002802163982352        0000010110094336440                              10
21000028981383                                                                  
799R01071000010001954      10100001INSUFFICIENT FUNDS                 0031469170
2E000028981383                                                                  
820000000400000005600000000175900000000000009005900018                         0
21000028981376                                                                  
5200UNITEDHEALTHONE ACH INS PREM        9005900018PPDRDP RETRY 170613170621   10
21000027031401                                                                  
627000002802151802404476     0000005019430142924                              10
21000027031401                                                                  
799R02071000010002529      08200054ACCOUNT CLOSED                     0031519170
2E000027031401                                                                  
820000000200000002800000000050190000000000009005900018                         0
21000027031401                                                                  
5200UNITEDHEALTHONE ACH INS PREM        9005900018PPDRDP RETRY 170614170621   10
21000028981419                                                                  
62700000280216097989         0000001430094362062                              10
21000028981419                                                                  
799R01071000010002636      25327903INSUFFICIENT FUNDS                 0030049150
2E000028981419                                                                  
820000000200000002800000000014300000000000009005900018                         0
21000028981419                                                                  
5200UNITEDHEALTHONE ACH INS PREM        9005900018PPDRDP RETRY 170614170621   10
21000027031419                                                                  
6270000028020005206370183    0000001600094313246                              10
21000027031419                                                                  
799R01071000010002477      05310112INSUFFICIENT FUNDS                 0030759160
2E000027031419                                                                  
627000002802411311335        0000033688058947941      SMITH,RICHARD B*        10
21000028981388                                                                  
799R01071000010000408      05320696INSUFFICIENT FUNDS                 0030759160
2E000028981388                                                                  
6270000028022051346135       0000059910094238357                              10
21000028981403                                                                  
799R01071000010002111      07117443INSUFFICIENT FUNDS                 0030759160
2E000028981403                                                                  
6270000028022051346135       0000059910094238357                              10
21000028981404                                                                  
799R01071000010002112      07117443INSUFFICIENT FUNDS                 0030759160
2E000028981404                                                                  
627000002802100159250        0000002756094307841                              10
21000028981413                                                                  
799R02071000010002439      10310073ACCOUNT CLOSED                     0030759160
2E000028981413                                                                  
627000002802100159250        0000000749094307937                              10
21000028981414                                                                  
799R02071000010002440      10310073ACCOUNT CLOSED                     0030759160
2E000028981414                                                                  
6270000028020112401180       0000002012094314179                              10
21000028981416                                                                  
799R01071000010002526      27118370INSUFFICIENT FUNDS                 0030759160
2E000028981416                                                                  
820000001400000019600000001606250000000000009005900018                         0
21000027031419                                                                  
5200UNITEDHEALTHONE ACH INS PREM        9005900018PPDRDP RETRY 170614170621   10
21000027031414                                                                  
6270000028026265058484       0000014650094241311                              10
21000027031414                                                                  
799R01071000010002202      11190065INSUFFICIENT FUNDS                 0030769160
2E000027031414                                                                  
6270000028022167879025966    0000007026430150060                              10
21000027031422                                                                  
799R01071000010003205      06310751INSUFFICIENT FUNDS                 0030769160
2E000027031422                                                                  
820000000400000005600000000216760000000000009005900018                         0
21000027031414                                                                  
5200UNITEDHEALTHONE ACH INS PREM        9005900018PPDRDP RETRY 170614170621   10
21000027031420                                                                  
6270000028029138663918       0000061126094313435                              10
21000027031420                                                                  
799R09071000010002491      26608655UNCOLLECTED FUNDS                  0030779160
2E000027031420                                                                  
627000002802183824709        0000003971094185575                              10
21000028981397                                                                  
799R01071000010001929      31407426INSUFFICIENT FUNDS                 0030779160
2E000028981397                                                                  
820000000400000005600000000650970000000000009005900018                         0
21000027031420                                                                  
5200UNITEDHEALTHONE ACH INS PREM        9005900018PPDRDP RETRY 170614170621   10
21000027031415                                                                  
627000002802488031365349     0000019210094241362                              10
21000027031415                                                                  
799R01071000010002203      11100002INSUFFICIENT FUNDS                 0030789160
2E000027031415                                                                  
627000002802488067131013     0000003987430281598      STEPHANIE KONDIANO      10
21000027031423                                                                  
799R01071000010003270      11100002INSUFFICIENT FUNDS                 0030789160
2E000027031423                                                                  
62700000280200652407         0000010829094239906                              10
21000028981405                                                                  
799R01071000010002115      11190242INSUFFICIENT FUNDS                 0030789160
2E000028981405                                                                  
820000000600000008400000000340260000000000009005900018                         0
21000027031415                                                                  
5200UNITEDHEALTHONE ACH INS PREM        9005900018PPDRDP RETRY 170614170621   10
21000028981389                                                                  
6270000028024262941119       0000018257090192261      GAIL BUCHIN             10
21000028981389                                                                  
799R01071000010001001      06701482INSUFFICIENT FUNDS                 0030799160
2E000028981389                                                                  
62700000280202342877876      0000017264090197587                              10
21000028981390                                                                  
799R01071000010001011      07400007INSUFFICIENT FUNDS                 0030809160
2E000028981390                                                                  
6270000028024171717071       0000019148093089598                              10
21000028981391                                                                  
799R01071000010001228      31408863INSUFFICIENT FUNDS                 0030809160
2E000028981391                                                                  
6270000028029827382511149    0000001140094313298                              10
21000028981415                                                                  
799R01071000010002481      11492474INSUFFICIENT FUNDS                 0030809160
2E000028981415                                                                  
62700000280247068839         0000001570094338283                              10
21000028981418                                                                  
799R01071000010002584      10311267INSUFFICIENT FUNDS                 0030809160
2E000028981418                                                                  
62700000280271407            0000011388430035444                              10
21000028981426                                                                  
799R01071000010003062      11312265INSUFFICIENT FUNDS                 0030809160
2E000028981426                                                                  
820000001200000016800000000687670000000000009005900018                         0
21000028981389                                                                  
5200UNITEDHEALTHONE ACH INS PREM        9005900018PPDRDP RETRY 170614170621   10
21000027031408                                                                  
627000002802898076922803     0000068050094135370                              10
21000027031408                                                                  
799R01071000010001816      06300004INSUFFICIENT FUNDS                 0030819160
2E000027031408                                                                  
627000002802898088531376     0000001040094139896      ELIZABETH AND JOHN      10
21000027031413                                                                  
799R01071000010001890      06310027INSUFFICIENT FUNDS                 0030819160
2E000027031413                                                                  
627000002802237036517754     0000009509094366187                              10
21000027031421                                                                  
799R01071000010002976      05300019INSUFFICIENT FUNDS                 0030819160
2E000027031421                                                                  
627000002802665577           0000008373094233007                              10
21000028981401                                                                  
799R01071000010002102      23138224INSUFFICIENT FUNDS                 0030819160
2E000028981401                                                                  
6270000028027023904902       0000009930094285953                              10
21000028981412                                                                  
799R01071000010002406      25607497INSUFFICIENT FUNDS                 0030819160
2E000028981412                                                                  
6270000028025060230          0000012500094365929                              10
21000028981424                                                                  
799R01071000010002921      10110234INSUFFICIENT FUNDS                 0030819160
2E000028981424                                                                  
6270000028027710583702115    0000001570094366041                              10
21000028981425                                                                  
799R01071000010002952      10120568INSUFFICIENT FUNDS                 0030819160
2E000028981425                                                                  
820000001400000019600000001109720000000000009005900018                         0
21000027031408                                                                  
5200UNITEDHEALTHONE ACH INS PREM        9005900018PPDRDP RETRY 170614170621   10
21000027031404                                                                  
627000002802354312021489     0000012826057961277      ANDREW SPAULDING        10
21000027031404                                                                  
799R01071000010000241      04100103INSUFFICIENT FUNDS                 0031449170
2E000027031404                                                                  
6270000028021000175278216    0000022170094274090                              10
21000027031417                                                                  
799R01071000010002269      06100010INSUFFICIENT FUNDS                 0031449170
2E000027031417                                                                  
6270000028021000175278216    0000022170094274090                              10
21000027031418                                                                  
799R01071000010002270      06100010INSUFFICIENT FUNDS                 0031449170
2E000027031418                                                                  
6270000028026725094254       0000016780094196056                              10
21000028981398                                                                  
799R01071000010001982      11301054INSUFFICIENT FUNDS                 0031459170
2E000028981398                                                                  
6270000028026725094254       0000016780094196056                              10
21000028981399                                                                  
799R01071000010001983      11301054INSUFFICIENT FUNDS                 0031459170
2E000028981399                                                                  
6270000028026725094254       0000001140094196057                              10
21000028981400                                                                  
799R01071000010001984      11301054INSUFFICIENT FUNDS                 0031459170
2E000028981400                                                                  
6270000028021681680          0000019830094240219                              10
21000028981406                                                                  
799R01071000010002139      10120225INSUFFICIENT FUNDS                 0031459170
2E000028981406                                                                  
6270000028026735720730       0000004737094275345                              10
21000028981409                                                                  
799R01071000010002332      11301054INSUFFICIENT FUNDS                 0031459170
2E000028981409                                                                  
6270000028026735720730       0000002200094275346                              10
21000028981410                                                                  
799R01071000010002333      11301054INSUFFICIENT FUNDS                 0031459170
2E000028981410                                                                  
6270000028026735720730       0000007480094275347                              10
21000028981411                                                                  
799R01071000010002334      11301054INSUFFICIENT FUNDS                 0031459170
2E000028981411                                                                  
6270000028026742163383       0000007870094336913                              10
21000028981417                                                                  
799R01071000010002579      12210574INSUFFICIENT FUNDS                 0031459170
2E000028981417                                                                  
627000002802161994712        0000001140094365455                              10
21000028981420                                                                  
799R01071000010002807      10100001INSUFFICIENT FUNDS                 0031469170
2E000028981420                                                                  
627000002802161994712        0000003469094365456                              10
21000028981421                                                                  
799R01071000010002808      10100001INSUFFICIENT FUNDS                 0031469170
2E000028981421                                                                  
627000002802161994712        0000001600094365458                              10
21000028981422                                                                  
799R01071000010002809      10100001INSUFFICIENT FUNDS                 0031469170
2E000028981422                                                                  
820000002800000039200000001401920000000000009005900018                         0
21000027031404                                                                  
5200UNITEDHEALTHONE ACH INS PREM        9005900018PPDRDP RETRY 170614170621   10
21000027031409                                                                  
6270000028021218518552       0000001040094138188                              10
21000027031409                                                                  
799R16071000010001853      26708419ACCOUNT FROZEN                     0031519170
2E000027031409                                                                  
6270000028021218518552       0000001500094138190                              10
21000027031410                                                                  
799R16071000010001854      26708419ACCOUNT FROZEN                     0031519170
2E000027031410                                                                  
6270000028021218518552       0000001600094138192                              10
21000027031411                                                                  
799R16071000010001855      26708419ACCOUNT FROZEN                     0031519170
2E000027031411                                                                  
6270000028021218518552       0000000960094138193                              10
21000027031412                                                                  
799R16071000010001856      26708419ACCOUNT FROZEN                     0031519170
2E000027031412                                                                  
62700000280223231262         0000024676093187198                              10
21000028981392                                                                  
799R01071000010001310      27507128INSUFFICIENT FUNDS                 0031519170
2E000028981392                                                                  
62700000280241409019         0000001790430141877                              10
21000028981427                                                                  
799R01071000010003176      06400001INSUFFICIENT FUNDS                 0031519170
2E000028981427                                                                  
820000001200000016800000000315660000000000009005900018                         0
21000027031409                                                                  
5200UNITEDHEALTHONE ACH INS PREM        9005900018PPDRDP RETRY 170614170621   10
21000024603716                                                                  
627000002802622780513        0000002966094295049      BARBARA BASS            10
21000024603716                                                                  
799R01071000010002419      11100061INSUFFICIENT FUNDS                 9992019160
2E000024603716                                                                  
627000002802819685962        0000007840094233078      BRYANT,ANTWAUN          10
21000025027176                                                                  
799R01071000010002103      12210002INSUFFICIENT FUNDS                 9996019160
2E000025027176                                                                  
627000002802819685962        0000007840094233078      BRYANT,ANTWAUN          10
21000025027177                                                                  
799R01071000010002104      12210002INSUFFICIENT FUNDS                 9996019160
2E000025027177                                                                  
820000000600000008400000000186460000000000009005900018                         0
21000024603716                                                                  
5200UNITEDHEALTHONE ACH INS PREM        9005900018PPDRDP RETRY 170615170622   10
21000023503905                                                                  
6270000028024853400233857749 0000002075094336486                              10
21000023503905                                                                  
799R01071000010029407      07397218INSUFFICIENT FUNDS                 0030049150
2E000023503905                                                                  
6270000028024853400233857749 0000001600094336487                              10
21000023503906                                                                  
799R01071000010029408      07397218INSUFFICIENT FUNDS                 0030049150
2E000023503906                                                                  
6270000028024853400233857749 0000000749094336488                              10
21000023503907                                                                  
799R01071000010029409      07397218INSUFFICIENT FUNDS                 0030049150
2E000023503907                                                                  
820000000600000008400000000044240000000000009005900018                         0
21000023503905                                                                  
5200UNITEDHEALTHONE ACH INS PREM        9005900018PPDRDP RETRY 170615170622   10
21000023503883                                                                  
6270000028020000146407       0000096138093164832                              10
21000023503883                                                                  
799R01071000010019302      27597745INSUFFICIENT FUNDS                 0030069150
2E000023503883                                                                  
62700000280265759767         0000001140094183695                              10
21000023503889                                                                  
799R01071000010025985      31308063INSUFFICIENT FUNDS                 0030069150
2E000023503889                                                                  
6270000028022002760060       0000014500094202419                              10
21000023503890                                                                  
799R01071000010026440      30308541INSUFFICIENT FUNDS                 0030069150
2E000023503890                                                                  
627000002802951756           0000004077094248380                              10
21000023503891                                                                  
799R01071000010027362      26318304INSUFFICIENT FUNDS                 0030069150
2E000023503891                                                                  
820000000800000011200000001158550000000000009005900018                         0
21000023503883                                                                  
5200UNITEDHEALTHONE ACH INS PREM        9005900018PPDRDP RETRY 170615170622   10
21000023503879                                                                  
6270000028020000092883357    0000003059059060574      FLOYD/DARLENE MCDOLE    10
21000023503879                                                                  
799R01071000010007950      26318300INSUFFICIENT FUNDS                 0030759160
2E000023503879                                                                  
62700000280223347502         0000003723094275438                              10
21000023503897                                                                  
799R01071000010027918      25317788INSUFFICIENT FUNDS                 0030759160
2E000023503897                                                                  
820000000400000005600000000067820000000000009005900018                         0
21000023503879                                                                  
5200UNITEDHEALTHONE ACH INS PREM        9005900018PPDRDP RETRY 170615170622   10
21000023503888                                                                  
6270000028028390484          0000001570094132145      KOLAS,ROBERT M          10
21000023503888                                                                  
799R01071000010025236      31208108INSUFFICIENT FUNDS                 0030779160
2E000023503888                                                                  
820000000200000002800000000015700000000000009005900018                         0
21000023503888                                                                  
5200UNITEDHEALTHONE ACH INS PREM        9005900018PPDRDP RETRY 170615170622   10
21000023503882                                                                  
6270000028021590017285502    0000008459090323021                              10
21000023503882                                                                  
799R01071000010015664      27397636INSUFFICIENT FUNDS                 0030789160
2E000023503882                                                                  
6370000028026123541331       0000002678094253892                              10
21000023503893                                                                  
799R01071000010027455      25207646INSUFFICIENT FUNDS                 0030789160
2E000023503893                                                                  
820000000400000005600000000111370000000000009005900018                         0
21000023503882                                                                  
5200UNITEDHEALTHONE ACH INS PREM        9005900018PPDRDP RETRY 170615170622   10
21000021457879                                                                  
6270000028029999890764914    0000050892058784893      JODI K DILLAN           10
21000021457879                                                                  
799R08071000010005778      07100015PAYMENT STOPPED                    0030799160
2E000021457879                                                                  
6270000028024326368992       0000062172059208137      THEODORE,JAN M*         10
21000023503880                                                                  
799R01071000010008969      12218723INSUFFICIENT FUNDS                 0030799160
2E000023503880                                                                  
6270000028025307060115956735 0000001904094329061                              10
21000023503904                                                                  
799R01071000010029159      08400399INSUFFICIENT FUNDS                 0030799160
2E000023503904                                                                  
6270000028021900900228950    0000004175430018558                              10
21000023503917                                                                  
799R01071000010030473      31497740INSUFFICIENT FUNDS                 0030809160
2E000023503917                                                                  
820000000800000011200000001191430000000000009005900018                         0
21000021457879                                                                  
5200UNITEDHEALTHONE ACH INS PREM        9005900018PPDRDP RETRY 170615170622   10
21000023503876                                                                  
6270000028027026016130       0000080064058505787      SHERYL MARTIN           10
21000023503876                                                                  
799R01071000010004852      26307927INSUFFICIENT FUNDS                 0030819160
2E000023503876                                                                  
63700000280211421            0000007360094314318                              10
21000023503902                                                                  
799R01071000010028823      27397562INSUFFICIENT FUNDS                 0030819160
2E000023503902                                                                  
6270000028029922545          0000001140094314422                              10
21000023503903                                                                  
799R01071000010028830      28108147INSUFFICIENT FUNDS                 0030819160
2E000023503903                                                                  
6270000028020044309078       0000001969430350611                              10
21000023503918                                                                  
799R01071000010033698      31497722INSUFFICIENT FUNDS                 0030819160
2E000023503918                                                                  
820000000800000011200000000905330000000000009005900018                         0
21000023503876                                                                  
5200UNITEDHEALTHONE ACH INS PREM        9005900018PPDRDP RETRY 170615170622   10
21000023503885                                                                  
627000002802111537920714     0000001570094083582                              10
21000023503885                                                                  
799R01071000010024694      12430312INSUFFICIENT FUNDS                 0031519170
2E000023503885                                                                  
627000002802556227023143207950000002360094336699                              10
21000023503908                                                                  
799R01071000010029423      12430312INSUFFICIENT FUNDS                 0031519170
2E000023503908                                                                  
6270000028027874400468438072 0000001140094338335                              10
21000023503909                                                                  
799R01071000010029517      07397218INSUFFICIENT FUNDS                 0031519170
2E000023503909                                                                  
6270000028027874400468438072 0000000870094338336                              10
21000023503910                                                                  
799R01071000010029518      07397218INSUFFICIENT FUNDS                 0031519170
2E000023503910                                                                  
6270000028027874400468438072 0000000967094338337                              10
21000023503911                                                                  
799R01071000010029519      07397218INSUFFICIENT FUNDS                 0031519170
2E000023503911                                                                  
6270000028027874400468438072 0000001600094338338                              10
21000023503912                                                                  
799R01071000010029520      07397218INSUFFICIENT FUNDS                 0031519170
2E000023503912                                                                  
62700000280270007655012783   0000006274094344081                              10
21000023503914                                                                  
799R01071000010029719      07397218INSUFFICIENT FUNDS                 0031519170
2E000023503914                                                                  
627000002802256227019474207080000026232094366495                              10
21000023503916                                                                  
799R01071000010030103      12430312INSUFFICIENT FUNDS                 0031519170
2E000023503916                                                                  
820000001600000022400000000410130000000000009005900018                         0
21000023503885                                                                  
5200UNITEDHEALTHONE ACH INS PREM        9005900018PPDRDP RETRY 170615170622   10
21000023503913                                                                  
62700000280220121039221185   0000006083094339222                              10
21000023503913                                                                  
799R01071000010029555      12430312INSUFFICIENT FUNDS                 0031559180
2E000023503913                                                                  
820000000200000002800000000060830000000000009005900018                         0
21000023503913                                                                  
5200UNITEDHEALTHONE ACH INS PREM        9005900018PPDRDP RETRY 170619170621   10
21000022521949                                                                  
6270000028021340001534008    0000000000094059256                              10
21000022521949                                                                  
799N01071000010001538      05310112FIRST TIME REDEPOSIT $ 0000001167  0030759160
2E000022521949                                                                  
6270000028020005109729797    0000000000094319394                              10
21000022522097                                                                  
799N01071000010002014      05310112FIRST TIME REDEPOSIT $ 0000001099  0030759160
2E000022522097                                                                  
6270000028020005109729797    0000000000094319395                              10
21000022522098                                                                  
799N01071000010002015      05310112FIRST TIME REDEPOSIT $ 0000002706  0030759160
2E000022522098                                                                  
6270000028020005109729797    0000000000094319396                              10
21000022522099                                                                  
799N01071000010002016      05310112FIRST TIME REDEPOSIT $ 0000001167  0030759160
2E000022522099                                                                  
6270000028021364339810       0000000000094369696                              10
21000023645877                                                                  
799N01071000010002324      07192680FIRST TIME REDEPOSIT $ 0000018330  0030759160
2E000023645877                                                                  
820000001000000014000000000000000000000000009005900018                         0
21000022521949                                                                  
5200UNITEDHEALTHONE ACH INS PREM        9005900018PPDRDP RETRY 170619170621   10
21000022521879                                                                  
6270000028020904329331       0000000000093361416                              10
21000022521879                                                                  
799N01071000010001336      11190065FIRST TIME REDEPOSIT $ 0000011947  0030769160
2E000022521879                                                                  
6270000028029953900041       0000000000094250762                              10
21000022522033                                                                  
799N01071000010001820      06200008FIRST TIME REDEPOSIT $ 0000002763  0030769160
2E000022522033                                                                  
6270000028028615117853       0000000000094342717                              10
21000022522132                                                                  
799N01071000010002111      11190065FIRST TIME REDEPOSIT $ 0000004991  0030769160
2E000022522132                                                                  
6270000028023508955717       0000000000094369336                              10
21000022522196                                                                  
799N01071000010002275      06310751FIRST TIME REDEPOSIT $ 0000046740  0030769160
2E000022522196                                                                  
6270000028020051056795       0000000000093382153      JUSTIN JOHNSON          10
21000023645340                                                                  
799N01071000010001355      05320098FIRST TIME REDEPOSIT $ 0000013777  0030779160
2E000023645340                                                                  
62700000280240785033         0000000000094317017                              10
21000023645682                                                                  
799N01071000010001969      25317704FIRST TIME REDEPOSIT $ 0000004814  0030779160
2E000023645682                                                                  
62700000280240785033         0000000000094317018                              10
21000023645683                                                                  
799N01071000010001970      25317704FIRST TIME REDEPOSIT $ 0000002499  0030779160
2E000023645683                                                                  
62700000280208643107019      0000000000094342478                              10
21000023645747                                                                  
799N01071000010002098      25317704FIRST TIME REDEPOSIT $ 0000001860  0030779160
2E000023645747                                                                  
820000001600000022400000000000000000000000009005900018                         0
21000022521879                                                                  
5200UNITEDHEALTHONE ACH INS PREM        9005900018PPDRDP RETRY 170619170621   10
21000022522190                                                                  
627000002802586036005001     0000000000094369258                              10
21000022522190                                                                  
799N01071000010002267      11300002FIRST TIME REDEPOSIT $ 0000001600  0030789160
2E000022522190                                                                  
6270000028027476581072       0000000000059623113      ALI,ASHANTI*            10
21000023644928                                                                  
799N01071000010000599      11400065FIRST TIME REDEPOSIT $ 0000009732  0030789160
2E000023644928                                                                  
6270000028022832480222       0000000000093354741                              10
21000023645323                                                                  
799N09071000010001324      03130184FIRST TIME REDEPOSIT $ 0000012085  0030789160
2E000023645323                                                                  
627000002802800214387        0000000000430316264                              10
21000023646079                                                                  
799N01071000010002713      11190197FIRST TIME REDEPOSIT $ 0000002560  0030789160
2E000023646079                                                                  
820000000800000011200000000000000000000000009005900018                         0
21000022522190                                                                  
5200UNITEDHEALTHONE ACH INS PREM        9005900018PPDRDP RETRY 170619170621   10
21000023644835                                                                  
6270000028024300049551       0000000000059019878      CARL & SYBIL MCWILLIAM  10
21000023644835                                                                  
799N01071000010000413      06530027FIRST TIME REDEPOSIT $ 0000004623  0030799160
2E000023644835                                                                  
6270000028024328503233       0000000000094364766                              10
21000023645797                                                                  
799N01071000010002197      03120136FIRST TIME REDEPOSIT $ 0000015018  0030799160
2E000023645797                                                                  
6270000028025628447065       0000000000430119490                              10
21000023645984                                                                  
799N01071000010002537      06500009FIRST TIME REDEPOSIT $ 0000004508  0030799160
2E000023645984                                                                  
820000000600000008400000000000000000000000009005900018                         0
21000023644835                                                                  
5200UNITEDHEALTHONE ACH INS PREM        9005900018PPDRDP RETRY 170619170621   10
21000023645735                                                                  
6270000028027902866628       0000000000094342313                              10
21000023645735                                                                  
799N01071000010002081      07192390FIRST TIME REDEPOSIT $ 0000002853  0030809160
2E000023645735                                                                  
820000000200000002800000000000000000000000009005900018                         0
21000023645735                                                                  
5200UNITEDHEALTHONE ACH INS PREM        9005900018PPDRDP RETRY 170619170621   10
21000022521519                                                                  
627000002802008983187482     0000000000058766050      BASTOS,MILTON B*        10
21000022521519                                                                  
799N01071000010000346      06300004FIRST TIME REDEPOSIT $ 0000108794  0030819160
2E000022521519                                                                  
627000002802237033555078     0000000000094323233      CHARLENE HARRIS         10
21000022522107                                                                  
799N01071000010002031      05300019FIRST TIME REDEPOSIT $ 0000004668  0030819160
2E000022522107                                                                  
820000000400000005600000000000000000000000009005900018                         0
21000022521519                                                                  
5200UNITEDHEALTHONE ACH INS PREM        9005900018PPDRDP RETRY 170619170621   10
21000022522042                                                                  
627000002802776982000668     0000000000094279375                              10
21000022522042                                                                  
799N01071000010001859      02130007FIRST TIME REDEPOSIT $ 0000005340  0031449170
2E000022522042                                                                  
627000002802776982000668     0000000000094279375                              10
21000022522043                                                                  
799N01071000010001860      02130007FIRST TIME REDEPOSIT $ 0000005340  0031449170
2E000022522043                                                                  
627000002802776982000668     0000000000094279375                              10
21000022522044                                                                  
799N01071000010001861      02130007FIRST TIME REDEPOSIT $ 0000005340  0031449170
2E000022522044                                                                  
820000000600000008400000000000000000000000009005900018                         0
21000022522042                                                                  
5200UNITEDHEALTHONE ACH INS PREM        9005900018PPDRDP RETRY 170619170621   10
21000022521482                                                                  
627000002802576072193        0000000000058198966      DANIEL SHOCK            10
21000022521482                                                                  
799N01071000010000252      04120258FIRST TIME REDEPOSIT $ 0000023178  0031459170
2E000022521482                                                                  
6270000028021000057701       0000000000058625220      WRIGHT,RUSSELL          10
21000023644782                                                                  
799N01071000010000312      06112047FIRST TIME REDEPOSIT $ 0000048916  0031459170
2E000023644782                                                                  
6270000028022521177392       0000000000059055804                              10
21000023644867                                                                  
799N01071000010000478      11190744FIRST TIME REDEPOSIT $ 0000013111  0031459170
2E000023644867                                                                  
627000002802458053097        0000000000094254421                              10
21000023645598                                                                  
799N01071000010001824      11190627FIRST TIME REDEPOSIT $ 0000002758  0031469170
2E000023645598                                                                  
627000002802458053097        0000000000094254421                              10
21000023645599                                                                  
799N01071000010001825      11190627FIRST TIME REDEPOSIT $ 0000002758  0031469170
2E000023645599                                                                  
820000001000000014000000000000000000000000009005900018                         0
21000022521482                                                                  
5200UNITEDHEALTHONE ACH INS PREM        9005900018PPDRDP RETRY 170619170621   10
21000022521440                                                                  
6270000028024228387334       0000000000057651140                              10
21000022521440                                                                  
799N01071000010000092      04100012FIRST TIME REDEPOSIT $ 0000056505  0031519170
2E000022521440                                                                  
6270000028024226352023       0000000000430016793      FLOWERS, CURTIS R       10
21000022522257                                                                  
799N01071000010002445      04100012FIRST TIME REDEPOSIT $ 0000002183  0031519170
2E000022522257                                                                  
