101 071000013 0710000131706060858A094011FNB CHICAGO            UNITEDHEALTHONE        07100001
5200UNITEDHEALTHONE ACH INS PREM        9005900018PPDINS. PREM.1706061706061571071000010000001
627123456789123456789        0000000195440000070      Claire C Backhaus       0071000010000001
627123456789123456789        0000001707440000093      Idaho Backhaus          0071000010000002
627111111111123456789        0000003446440000094      Amber R Wright-Fuzesi   0071000010000003
637044115443388338           0000013170440000181      GEORGE ORG              0071000010000004
637074908594899890           0000004319440000221      HLLF RAO                0071000010000005
637074908594478939           0000004319440000223      MOHAN PARIKAR           0071000010000006
637074908594849374           0000004319440000224      JON JIMMY               0071000010000007
637074000010839932           0000002301440000225      AC K DC                 0071000010000008
627         987654321        0000015585440000230      Geoff Wright-Fuzesi     0071000010000009
637281271438839292           0000004319440000234      JIO KIO                 0071000010000010
820000001000982137320000000536800000000000009005900018                         071000010000001
5200UNITEDHEALTHONE ACH INS PREM        9005900018PPDINS. PREM.1706061706061571071000010000002
637123456789838323           0000004319440000235      LOPY JOPY               0071000010000501
637044115443378388           0000004319440000236      KERRY ERYY              0071000010000502
637044115443388383           0000002195440000237      DUPU LPOU               0071000010000503
637044115443838383           0000002195440000238      DEY NEY                 0071000010000504
637044115443388399           0000002195440000239      DOLU KOLU               0071000010000505
627111111111123456789        0000003638440000240      Wendy Wright-Fuzesi     0071000010000506
637044115443748498           0000004107440000251      WIL SMITH               0071000010000507
637044115443839378           0000004107440000252      KKILLY FILLY            0071000010000508
637044115443389389           0000004107440000253      NO JOHNNY               0071000010000509
637044115443974979           0000004107440000254      DULLO HLLU              0071000010000510
820000001000587491410000000352890000000000009005900018                         071000010000002
5200UNITEDHEALTHONE ACH INS PREM        9005900018PPDINS. PREM.1706061706061571071000010000003
637044115443839389           0000004107440000255      NELLY JLLEY             0071000010001001
637044115443928303           0000004107440000257      KKK KION                0071000010001002
637044115443838288           0000004107440000258      OPPO IOPU               0071000010001003
637044115443899992           0000004107440000259      JUNE HUNE               0071000010001004
627123456789123456789        0000008780440000262      John Backhaus           0071000010001005
637044115443839299           0000003682440000324      BARDEN REMMY            0071000010001006
637044115443938999           0000003682440000325      JIM PONUTE              0071000010001007
637044115443389988           0000003682440000326      MAOO JEERYY             0071000010001008
637044115443393939           0000003682440000327      HIIM WEERRE             0071000010001009
627123456789789456           0000003682440000334      Billing Backhaus        0071000010001010
820000001000599837080000000436180000000000009005900018                         071000010000003
5200UNITEDHEALTHONE ACH INS PREM        9005900018PPDINS. PREM.1706061706061571071000010000004
627123456789123456789        0000002195440000340      Delinquency Backhaus    0071000010001501
637044115443389393           0000003257440000361      DENYY PENY              0071000010001502
637044115443373738           0000002195440000620      KIRAN POLLARD           0071000010001503
637044115443299281           0000002195440000621      JIKMM TIMM              0071000010001504
637044115443282828           0000002195440000623      odoo poinu              0071000010001505
637044115443193893           0000002195440000624      KKII TIMIK              0071000010001506
637044115443484827           0000002195440000626      UEINNWW JIOEOOQN        0071000010001507
637044115443388381           0000002195440000627      JOP TOP                 0071000010001508
637044115443992929           0000002195440000628      HUII TIMII              0071000010001509
637044115443939339           0000002195440000629      UEUU TRYYYR             0071000010001510
820000001000520495740000000230120000000000009005900018                         071000010000004
5200UNITEDHEALTHONE ACH INS PREM        9005900018PPDINS. PREM.1706061706061571071000010000005
637044115443923883           0000002195440000637      IIEIII ETRUU            0071000010002001
637044115443393839           0000002195440000638      FUUU QWEE               0071000010002002
637044115443383893           0000002195440000639      HHIII YUUIII            0071000010002003
637044115443393931           0000004390440000707      RIRIRI EIRIRII          0071000010002004
627044115443388381           0000004390440000743      YEUEUU WERYYY           0071000010002005
627044115443288219           0000004390440000744      TYUU RYYII              0071000010002006
637044115443181878           0000004390440000745      URNYY TYUII             0071000010002007
637044115443399311           0000004390440000746      NUUTU WTYYUU            0071000010002008
637044115443389292           0000004390440000767      JJDIII TUII             0071000010002009
627044115443839311           0000004390440000771      JJJKK TUII              0071000010002010
820000001000441154400000000373150000000000009005900018                         071000010000005
5200UNITEDHEALTHONE ACH INS PREM        9005900018PPDINS. PREM.1706061706061571071000010000006
637044115443193781           0000004390440000778      UEII WEEQ               0071000010002501
637044115443399292           0000004390440000781      DJDUDU EIIEOEO          0071000010002502
820000000200088230880000000087800000000000009005900018                         071000010000006
9000006000006000000520321934683000000201694000000000000                                       
