101 071000013 0710000131705012155A094011FNB CHICAGO            UNITEDHEALTHONE        07100001
5200UNITEDHEALTHONE ACH INS PREM        9005900018PPDINS. PREM.1705011705011211071000010000001
637123456789Q0019            0000004390440000228      Alina Konkode           0071000010000001
632123456789Q0020            0000002257440000230      Hellen Grips            0071000010000002
637123456789Q0021            0000006443440000231      Shane Wane              0071000010000003
627123456789Q0007            0000000711440000233      RootDisco Joe           0071000010000004
627123456789Q0009            0000004390440000235      StuartDisco Broad       0071000010000005
627123456789Q0011            0000006443440000237      KeatonDisco Jennings    0071000010000006
627123456789Q0012            0000006443440000238      EoinDisco Morgan        0071000010000007
627123456789Q0013            0000006443440000240      JosDisco Buttler        0071000010000008
627123456789Q0014            0000006443440000242      JonnyDisco Bairstow     0071000010000009
627123456789Q0015            0000006443440000243      AdilDisco Rashid        0071000010000010
820000001001234567800000000481490000000022579005900018                         071000010000001
5200UNITEDHEALTHONE ACH INS PREM        9005900018PPDINS. PREM.1705011705011211071000010000002
627123456789Q0016            0000006443440000245      ChrisDisco Woakes       0071000010000501
637123456789Q0017            0000006443440000247      LenDisco Bell           0071000010000502
637123456789Q0018            0000006443440000248      AlexDisco Hales         0071000010000503
637123456789Q0022            0000006443440000249      JasonDisco Roy          0071000010000504
627123456789Q0002            0000005237440000257      ZafarDisco K Ansari     0071000010000505
627123456789Q0003            0000002195440000258      LiamDisco Dawson        0071000010000506
622123456789Q0004            0000017805440000259      JakeDisco Ball          0071000010000507
627123456789Q0005            0000006443440000260      SamDisco Billings       0071000010000508
622123456789Q0001            0000059677440000261      JamesDisco Taylor       0071000010000509
627123456789345672           0000004602440000353      MATHUR I REDDY          0071000010000510
820000001001234567800000000442490000000774829005900018                         071000010000002
5200UNITEDHEALTHONE ACH INS PREM        9005900018PPDINS. PREM.1705011705011211071000010000003
637123456789383838           0000004390440000354      AWARDS EMMY             0071000010001001
63712345678920099            0000003851440000399      SKY BLUE                0071000010001002
63712345678920400            0000003937440000400      JOHN ORANGE             0071000010001003
63712345678920402            0000008361440000402      BALL TURNER             0071000010001004
62712345678920468            0000004390440000468      LAND A ROWING           0071000010001005
820000000500617283900000000249290000000000009005900018                         071000010000003
9000003000003000000250308641950000000117327000000079739                                       
