1019000002802 0210000211705100352K094101GOLDEN RULE INSURANCE -JPMORGAN CHASE

5200UNITEDHEALTHONE ACH INS PREM        9005900018CORINS. PREM.170504170508   10
21000024109425
62700000280220000058917      0000000000094329192                              10
21000024109425
798C01071000010003981      063114792000058917                         CHANGE7850
2E000024109425
820000000200000002800000000000000000000000009005900018                         0
21000024109425
5200UNITEDHEALTHONE ACH INS PREM        9005900018CORINS. PREM.170507170508   10
21000024963806
62700000280218706296         0000000000094331129                              10
21000024963806
798C05071000010022615      0842046237                                 CHANGE7850
2E000024963806
820000000200000002800000000000000000000000009005900018                         0
21000024963806
5200UNITEDHEALTHONE ACH INS PREM        9005900018CORINS. PREM.170507170508   10
21000024954757
627000002802100001094382     0000000000059075831                              10
21000024954757
798C01071000010005918      044072321001094382                         CHANGE7860
2E000024954757
627000002802100000971488     0000000000094048203                              10
21000024960749
798C01071000010017084      044072321000971488                         CHANGE7860
2E000024960749
62700000280297100064215      0000000000094307037                              10
21000024963530
798C02071000010022064      02601322321081669                          CHANGE7860
2E000024963530
820000000600000008400000000000000000000000009005900018                         0
21000024954757
5200UNITEDHEALTHONE ACH INS PREM        9005900018CORINS. PREM.170508170509   10
21000029072815
62700000280247126790         0000000000094322714                              10
21000029072815
798C03071000010003206      04120055041215032   02508390689            CHANGE7850
2E000029072815
820000000200000002800000000000000000000000009005900018                         0
21000029072815
5200UNITEDHEALTHONE ACH INS PREM        9005900018PPDINS. PREM.170403170404   10
21000021147494
6270000028020720606912       0000023003059307990      NEIGHBORS,TIGHE*        10
21000021147494
799R10071000010021600      07240545CUST ADVISES NOT AUTH.             0081007850
2E000021147494
62700000280220958936         0000003493430323750      DONNA MACH              10
21000021191898
799R07071000010106210      10491079AUTHORIZATION REVOKED              0081007850
2E000021191898
820000000400000005600000000264960000000000009005900018                         0
21000021147494
5200UNITEDHEALTHONE ACH INS PREM        9005900018PPDINS. PREM.170420170421   10
21000028058325
6270000028020173775045       0000010195093314605      FERNANDO CHAVES         10
21000028058325
799R10071000010006158      06310466CUST ADVISES NOT AUTH.             0081917860
2E000028058325
6270000028020173775045       0000010195093314605      FERNANDO CHAVES         10
21000028058326
799R10071000010006159      06310466CUST ADVISES NOT AUTH.             0081917860
2E000028058326
820000000400000005600000000203900000000000009005900018                         0
21000028058325
5200UNITEDHEALTHONE ACH INS PREM        9005900018PPDINS. PREM.170423170424   10
21000021633329
6270000028028642486644       0000017710094250743                              10
21000021633329
799R07071000010007279      10200007AUTHORIZATION REVOKED              0081867860
2E000021633329
820000000200000002800000000177100000000000009005900018                         0
21000021633329
5200UNITEDHEALTHONE ACH INS PREM        9005900018PPDINS. PREM.170501170502   10
21000025814921
627000002802272218           0000002647094150891                              10
21000025814921
799R04071000010067179      24107508INVALID ACCOUNT NUMBER             0081027850
2E000025814921
820000000200000002800000000026470000000000009005900018                         0
21000025814921
5200UNITEDHEALTHONE ACH INS PREM        9005900018PPDINS. PREM.170503170504   10
21000022753846
62700000280220958936         0000003634430323750      DONNA MACH              10
21000022753846
799R07071000010007349      10491079AUTHORIZATION REVOKED              0081007850
2E000022753846
820000000200000002800000000036340000000000009005900018                         0
21000022753846
5200UNITEDHEALTHONE ACH INS PREM        9005900018PPDINS. PREM.170504170508   10
21000021362969
627000002802361033345        0000013947094317675                              10
21000021362969
799R03071000010003903      12210170NO A/C UNABLE TO LOCATE            0080377840
2E000021362969
6270000028028552843          0000011550094325977                              10
21000021362989
799R03071000010003954      08190480NO A/C UNABLE TO LOCATE            0080377840
2E000021362989
820000000400000005600000000254970000000000009005900018                         0
21000021362969
5200UNITEDHEALTHONE ACH INS PREM        9005900018PPDINS. PREM.170504170508   10
21000021362887
6270000028022006359018       0000011599094265240                              10
21000021362887
799R08071000010003630      11190065PAYMENT STOPPED                    0080997850
2E000021362887
6270000028022006359018       0000030490094265241                              10
21000021362888
799R08071000010003631      11190065PAYMENT STOPPED                    0080997850
2E000021362888
627000002802898085330787     0000002426094330294                              10
21000021363049
799R03071000010004163      06310751NO A/C UNABLE TO LOCATE            0080997850
2E000021363049
6270000028023320613205       0000016410094330302                              10
21000021363050
799R02071000010004165      11190065ACCOUNT CLOSED                     0080997850
2E000021363050
6270000028021446959          0000036040093976608                              10
21000024108646
799R02071000010002618      11130284ACCOUNT CLOSED                     0081007850
2E000024108646
62700000280210374590         0000002000094305208                              10
21000024109336
799R02071000010003827      10310488ACCOUNT CLOSED                     0081007850
2E000024109336
62700000280210374590         0000011440094305208                              10
21000024109337
799R02071000010003828      10310488ACCOUNT CLOSED                     0081007850
2E000024109337
62700000280210374590         0000011440094305208                              10
21000024109338
799R02071000010003829      10310488ACCOUNT CLOSED                     0081007850
2E000024109338
6270000028020012203921       0000003625094323358                              10
21000024109405
799R03071000010003943      08290087NO A/C UNABLE TO LOCATE            0081017850
2E000024109405
820000001800000025200000001254700000000000009005900018                         0
21000021362887
5200UNITEDHEALTHONE ACH INS PREM        9005900018PPDINS. PREM.170504170508   10
21000021362424
627000002802004430755154     0000017209093363275                              10
21000021362424
799R02071000010002315      06310027ACCOUNT CLOSED                     0081037850
2E000021362424
627000002802444001213342     0000002706094044337                              10
21000021362592
799R02071000010002727      06400002ACCOUNT CLOSED                     0081037850
2E000021362592
627000002802334048943930     0000003492094247610                              10
21000021362842
799R08071000010003498      06100005PAYMENT STOPPED                    0081037850
2E000021362842
627000002802334048943930     0000031170094247611                              10
21000021362843
799R08071000010003499      06100005PAYMENT STOPPED                    0081037850
2E000021362843
627000002802334048943930     0000001860094247612                              10
21000021362844
799R08071000010003500      06100005PAYMENT STOPPED                    0081037850
2E000021362844
627000002802898071540662     0000002000094284686                              10
21000021362904
799R08071000010003679      06310027PAYMENT STOPPED                    0081037850
2E000021362904
627000002802898071540662     0000035770094284686                              10
21000021362905
799R08071000010003680      06310027PAYMENT STOPPED                    0081037850
2E000021362905
627000002802898071540662     0000035770094284686                              10
21000021362906
799R08071000010003681      06310027PAYMENT STOPPED                    0081037850
2E000021362906
627000002802898068860180     0000004853094313703                              10
21000021362957
799R02071000010003870      06310027ACCOUNT CLOSED                     0081037850
2E000021362957
820000001800000025200000001348300000000000009005900018                         0
21000021362424
5200UNITEDHEALTHONE ACH INS PREM        9005900018PPDINS. PREM.170504170508   10
21000021362440
6270000028024618034198       0000007898093380001                              10
21000021362440
799R02071000010002364      07192189ACCOUNT CLOSED                     0081847860
2E000021362440
62700000280231554603         0000001040430301189                              10
21000024109844
799R08071000010004751      07121212PAYMENT STOPPED                    0081857860
2E000024109844
820000000400000005600000000089380000000000009005900018                         0
21000021362440
5200UNITEDHEALTHONE ACH INS PREM        9005900018PPDINS. PREM.170504170508   10
21000021363013
62700000280292339694         0000002195094329928                              10
21000021363013
799R03071000010004040      12200024NO A/C UNABLE TO LOCATE            0081867860
2E000021363013
62700000280239007014322      0000012752094330254                              10
21000021363041
799R03071000010004144      12210527NO A/C UNABLE TO LOCATE            0081867860
2E000021363041
627000002802317818006        0000000783094321113                              10
21000024109403
799R03071000010003939      07590057NO A/C UNABLE TO LOCATE            0081917860
2E000024109403
820000000600000008400000000157300000000000009005900018                         0
21000021363013
5200UNITEDHEALTHONE ACH INS PREM        9005900018PPDINS. PREM.170507170508   10
21000024963232
6270000028020229677696       0000001843094280595                              10
21000024963232
799R16071000010021497      06400001ACCOUNT FROZEN                     0080357840
2E000024963232
820000000200000002800000000018430000000000009005900018                         0
21000024963232
5200UNITEDHEALTHONE ACH INS PREM        9005900018PPDINS. PREM.170507170508   10
21000024959221
6270000028027903698043       0000003634093302678      MUELLER,CORNELIA        10
21000024959221
799R03071000010014152      07240005NO A/C UNABLE TO LOCATE            0080367840
2E000024959221
62700000280210240572         0000002103430089471                              10
21000024964423
799R08071000010023776      08120522PAYMENT STOPPED                    0080367840
2E000024964423
6270000028027655210396       0000007493430134503                              10
21000024964686
799R02071000010024298      07490859ACCOUNT CLOSED                     0080367840
2E000024964686
820000000600000008400000000132300000000000009005900018                         0
21000024959221
5200UNITEDHEALTHONE ACH INS PREM        9005900018PPDINS. PREM.170507170508   10
21000022219692
627000002802009014783        0000001140094318466                              10
21000022219692
799R03071000010022372      08100003NO A/C UNABLE TO LOCATE            0080377840
2E000022219692
627000002802009014783        0000007650094318468                              10
21000022219693
799R03071000010022373      08100003NO A/C UNABLE TO LOCATE            0080377840
2E000022219693
627000002802009014783        0000001600094318469                              10
21000022219694
799R03071000010022374      08100003NO A/C UNABLE TO LOCATE            0080377840
2E000022219694
627000002802009014783        0000002053094318470                              10
21000022219695
799R03071000010022375      08100003NO A/C UNABLE TO LOCATE            0080377840
2E000022219695
62700000280283001276         0000020810094332077                              10
21000022219873
799R03071000010022869      06100005NO A/C UNABLE TO LOCATE            0080377840
2E000022219873
62700000280283001276         0000001570094332078                              10
21000022219874
799R03071000010022870      06100005NO A/C UNABLE TO LOCATE            0080377840
2E000022219874
62700000280283001276         0000001746094332079                              10
21000022219875
799R03071000010022871      06100005NO A/C UNABLE TO LOCATE            0080377840
2E000022219875
820000001400000019600000000365690000000000009005900018                         0
21000022219692
5200UNITEDHEALTHONE ACH INS PREM        9005900018PPDINS. PREM.170507170508   10
21000022216582
6270000028021100003958203    0000074266093270317                              10
21000022216582
799R02071000010013831      26319138ACCOUNT CLOSED                     0080987850
2E000022216582
6270000028021390008847858    0000005023094040593      MIR,IRSHAD              10
21000022217820
799R02071000010016953      03130912ACCOUNT CLOSED                     0080987850
2E000022217820
6270000028020005186891645    0000004990430168869      MARSHA CAIN             10
21000022220572
799R02071000010024811      08390068ACCOUNT CLOSED                     0080987850
2E000022220572
6270000028021390003397781    0000001140430303098                              10
21000022220798
799R02071000010025431      03130912ACCOUNT CLOSED                     0080987850
2E000022220798
62700000280235022268         0000076435054665647      MICHAEL A POTTS         10
21000024951890
799R07071000010000555      08120632AUTHORIZATION REVOKED              0080987850
2E000024951890
6270000028020150044555       0000085298059993425      BRAD JEFFERSON          10
21000024956148
799R08071000010008364      06701471PAYMENT STOPPED                    0080987850
2E000024956148
820000001200000016800000002471520000000000009005900018                         0
21000022216582
5200UNITEDHEALTHONE ACH INS PREM        9005900018PPDINS. PREM.170507170508   10
21000022213433
6270000028021010295432731    0000005755059015723      RAJAH,JOAN C            10
21000022213433
799R02071000010005049      05140054ACCOUNT CLOSED                     0080997850
2E000022213433
6270000028022051376107       0000004444093770154                              10
21000022217642
799R16071000010016483      05300021ACCOUNT FROZEN                     0080997850
2E000022217642
627000002802121000248        0000001570094332339                              10
21000022219900
799R03071000010022932      11190065NO A/C UNABLE TO LOCATE            0080997850
2E000022219900
6270000028020924096209       0000001969430031775                              10
21000022220065
799R02071000010023405      11190065ACCOUNT CLOSED                     0080997850
2E000022220065
820000000800000011200000000137380000000000009005900018                         0
21000022213433
5200UNITEDHEALTHONE ACH INS PREM        9005900018PPDINS. PREM.170507170508   10
21000022219315
627000002802457032179688     0000013060094269207                              10
21000022219315
799R02071000010021349      12210170ACCOUNT CLOSED                     0081007850
2E000022219315
627000002802325063850736     0000005444094301001                              10
21000022219472
799R02071000010021783      12100035ACCOUNT CLOSED                     0081007850
2E000022219472
6270000028026303662378       0000022900094255271                              10
21000024962908
799R02071000010020902      03607615ACCOUNT CLOSED                     0081007850
2E000024962908
6270000028026303662378       0000022900094255271                              10
21000024962909
799R02071000010020903      03607615ACCOUNT CLOSED                     0081007850
2E000024962909
6270000028022001040274       0000005769430146747                              10
21000024964770
799R02071000010024467      08290727ACCOUNT CLOSED                     0081007850
2E000024964770
6270000028022974970          0000002783430266196                              10
21000024965076
799R02071000010025079      08191842ACCOUNT CLOSED                     0081007850
2E000024965076
6270000028022000534791       0000002736430299497                              10
21000024965200
799R02071000010025351      10300269ACCOUNT CLOSED                     0081007850
2E000024965200
820000001400000019600000000755920000000000009005900018                         0
21000022219315
5200UNITEDHEALTHONE ACH INS PREM        9005900018PPDINS. PREM.170507170508   10
21000022219691
6270000028024974917122       0000002565094318428                              10
21000022219691
799R16071000010022367      02100008ACCOUNT FROZEN                     0081017850
2E000022219691
6270000028029846107911       0000003300430333184                              10
21000022220955
799R08071000010025917      05200011PAYMENT STOPPED                    0081017850
2E000022220955
6270000028020305740061       0000065373090451658                              10
21000024957742
799R08071000010011333      30307279PAYMENT STOPPED                    0081017850
2E000024957742
6270000028022311331630       0000007723430261669                              10
21000024965061
799R02071000010025055      10491391ACCOUNT CLOSED                     0081017850
2E000024965061
820000000800000011200000000789610000000000009005900018                         0
21000022219691
5200UNITEDHEALTHONE ACH INS PREM        9005900018PPDINS. PREM.170507170508   10
21000024956139
627000002802299735           0000102884059992185                              10
21000024956139
799R08071000010008347      10490161PAYMENT STOPPED                    0081027850
2E000024956139
627000002802600463423        0000008170094227060                              10
21000024962605
799R02071000010020359      11312265ACCOUNT CLOSED                     0081027850
2E000024962605
627000002802600463423        0000008170094227060                              10
21000024962606
799R02071000010020360      11312265ACCOUNT CLOSED                     0081027850
2E000024962606
6270000028021173693          0000104320094266753                              10
21000024963080
799R08071000010021235      11131289PAYMENT STOPPED                    0081027850
2E000024963080
62700000280283476093         0000001570094317957                              10
21000024963672
799R03071000010022344      05311000NO A/C UNABLE TO LOCATE            0081027850
2E000024963672
62700000280283476093         0000007583094317960                              10
21000024963673
799R03071000010022345      05311000NO A/C UNABLE TO LOCATE            0081027850
2E000024963673
6270000028020265427695       0000043770094331953                              10
21000024963932
799R03071000010022852      04201542NO A/C UNABLE TO LOCATE            0081027850
2E000024963932
627000002802640843           0000002330094332482                              10
21000024963981
799R03071000010022966      08390219NO A/C UNABLE TO LOCATE            0081027850
2E000024963981
62700000280248818983         0000004023430049044                              10
21000024964329
799R02071000010023609      10311267ACCOUNT CLOSED                     0081027850
2E000024964329
820000001800000025200000002828200000000000009005900018                         0
21000024956139
5200UNITEDHEALTHONE ACH INS PREM        9005900018PPDINS. PREM.170507170508   10
21000022214281
627000002802005500297376     0000066074059761559      MILDRED SILVA           10
21000022214281
799R16071000010007384      06300004ACCOUNT FROZEN                     0081037850
2E000022214281
627000002802898063549891     0000044290094001452                              10
21000022217745
799R02071000010016733      06300004ACCOUNT CLOSED                     0081037850
2E000022217745
627000002802898063549891     0000044290094001452                              10
21000022217746
799R02071000010016734      06300004ACCOUNT CLOSED                     0081037850
2E000022217746
627000002802488039149596     0000015924094298241                              10
21000022219454
799R08071000010021740      11100002PAYMENT STOPPED                    0081037850
2E000022219454
627000002802488039149596     0000051730094298241                              10
21000022219455
799R08071000010021741      11100002PAYMENT STOPPED                    0081037850
2E000022219455
627000002802237032780307     0000003180430333836                              10
21000022220968
799R08071000010025964      05300019PAYMENT STOPPED                    0081037850
2E000022220968
6270000028021060197702       0000025953093276072                              10
21000024959079
799R08071000010013869      25607497PAYMENT STOPPED                    0081037850
2E000024959079
627000002802215711955        0000003180094232274                              10
21000024962683
799R08071000010020497      31407426PAYMENT STOPPED                    0081037850
2E000024962683
627000002802215711955        0000001570094232275                              10
21000024962684
799R08071000010020498      31407426PAYMENT STOPPED                    0081037850
2E000024962684
6270000028029811876406       0000016100094315215                              10
21000024963662
799R04071000010022322      10111469INVALID ACCOUNT NUMBER             0081037850
2E000024963662
6270000028022718499          0000008660094326059                              10
21000024963720
799R03071000010022443      25317704NO A/C UNABLE TO LOCATE            0081037850
2E000024963720
820000002200000030800000002809510000000000009005900018                         0
21000022214281
5200UNITEDHEALTHONE ACH INS PREM        9005900018PPDINS. PREM.170507170508   10
21000022219839
62700000280210001892311623   0000021470094331564                              10
21000022219839
799R04071000010022756      06100010INVALID ACCOUNT NUMBER             0081847860
2E000022219839
62700000280210001892311623   0000002195094331565                              10
21000022219840
799R04071000010022757      06100010INVALID ACCOUNT NUMBER             0081847860
2E000022219840
820000000400000005600000000236650000000000009005900018                         0
21000022219839
5200UNITEDHEALTHONE ACH INS PREM        9005900018PPDINS. PREM.170507170508   10
21000022215391
6270000028028316492266       0000020352090330021                              10
21000022215391
799R08071000010010493      32127074PAYMENT STOPPED                    0081867860
2E000022215391
6270000028021000223010892    0000013418093152623                              10
21000022216196
799R16071000010012747      02120002ACCOUNT FROZEN                     0081867860
2E000022216196
6270000028025539650143675123 0000001933094331041                              10
21000022219770
799R03071000010022575      12100024NO A/C UNABLE TO LOCATE            0081867860
2E000022219770
6270000028025539650143675123 0000001600094331042                              10
21000022219771
799R03071000010022576      12100024NO A/C UNABLE TO LOCATE            0081867860
2E000022219771
6270000028025539650143675123 0000002053094331043                              10
21000022219772
799R03071000010022577      12100024NO A/C UNABLE TO LOCATE            0081867860
2E000022219772
6270000028025539650143675123 0000001140094331044                              10
21000022219773
799R03071000010022578      12100024NO A/C UNABLE TO LOCATE            0081867860
2E000022219773
6270000028025539650143675123 0000006470094331045                              10
21000022219774
799R03071000010022579      12100024NO A/C UNABLE TO LOCATE            0081867860
2E000022219774
627000002802028436           0000017979058514715      BARTEL,KARLA            10
21000024953543
799R02071000010003490      10111476ACCOUNT CLOSED                     0081867860
2E000024953543
6270000028021342487          0000053650094079404                              10
21000024960881
799R02071000010017314      11130095ACCOUNT CLOSED                     0081867860
2E000024960881
6270000028020086033524       0000001140094332299                              10
21000024963963
799R16071000010022923      31408828ACCOUNT FROZEN                     0081867860
2E000024963963
6270000028024626005          0000001860430332566                              10
21000024965496
799R02071000010025901      31318704ACCOUNT CLOSED                     0081867860
2E000024965496
820000002200000030800000001215950000000000009005900018                         0
21000022215391
5200UNITEDHEALTHONE ACH INS PREM        9005900018PPDINS. PREM.170507170508   10
21000022219861
627000002802153795865701     0000023180094331758                              10
21000022219861
799R03071000010022809      12120169NO A/C UNABLE TO LOCATE            0081917860
2E000022219861
6270000028024250290346       0000003059093375753                              10
21000024959721
799R14071000010015096      06700515ACCOUNT HOLDER DECEASED            0081917860
2E000024959721
62700000280202721899158      0000001054094078534                              10
21000024960859
799R08071000010017284      04210019PAYMENT STOPPED                    0081917860
2E000024960859
62700000280202721899158      0000001403094078537                              10
21000024960861
799R08071000010017286      04210019PAYMENT STOPPED                    0081917860
2E000024960861
62700000280202721899158      0000001878094078538                              10
21000024960862
799R08071000010017287      04210019PAYMENT STOPPED                    0081917860
2E000024960862
6270000028028001054322       0000012310094243704                              10
21000024962815
799R02071000010020735      08420129ACCOUNT CLOSED                     0081917860
2E000024962815
6270000028028001054322       0000012310094243704                              10
21000024962816
799R02071000010020736      08420129ACCOUNT CLOSED                     0081917860
2E000024962816
820000001400000019600000000551940000000000009005900018                         0
21000022219861
5200UNITEDHEALTHONE ACH INS PREM        9005900018PPDINS. PREM.170507170508   10
21000020526229
627000002802718663           0000009570094331040                              10
21000020526229
799R03071000010022574      04400003NO A/C UNABLE TO LOCATE            9990017840
2E000020526229
6270000028029164272222       0000001700094331054                              10
21000020526230
799R03071000010022580      04400003NO A/C UNABLE TO LOCATE            9990017840
2E000020526230
627000002802136213660        0000019979093122218                              10
21000021612238
799R03071000010012481      07400001NO A/C UNABLE TO LOCATE            9990537840
2E000021612238
627000002802689981207        0000021840094332281                              10
21000021612318
799R03071000010022914      07400001NO A/C UNABLE TO LOCATE            9990537840
2E000021612318
62700000280223659874         0000001140094331308                              10
21000021934632
799R03071000010022685      07100001NO A/C UNABLE TO LOCATE            9991117840
2E000021934632
62700000280223659874         0000002012094331309                              10
21000021934633
799R03071000010022686      07100001NO A/C UNABLE TO LOCATE            9991117840
2E000021934633
6270000028022522615983       0000009620094331866                              10
21000022392640
799R03071000010022826      07500001NO A/C UNABLE TO LOCATE            9991217840
2E000022392640
627000002802695229252        0000255112090122145      KATHLEEN FLEMING        10
21000028971841
799R08071000010009368      11100061PAYMENT STOPPED                    9992017840
2E000028971841
820000001600000022400000003209730000000000009005900018                         0
21000020526229
5200UNITEDHEALTHONE ACH INS PREM        9005900018PPDINS. PREM.170507170508   10
21000023573920
627000002802657631347        0000023611093320813                              10
21000023573920
799R03071000010014309      12210002NO A/C UNABLE TO LOCATE            9996017840
2E000023573920
627000002802325799000        0000019770094331776                              10
21000025141299
799R03071000010022810      32507076NO A/C UNABLE TO LOCATE            9997027840
2E000025141299
820000000400000005600000000433810000000000009005900018                         0
21000023573920
5200UNITEDHEALTHONE ACH INS PREM        9005900018PPDINS. PREM.170508170509   10
21000029072896
6270000028024424243050       0000002426094332702                              10
21000029072896
799R03071000010003362      26318281NO A/C UNABLE TO LOCATE            0081007850
2E000029072896
820000000200000002800000000024260000000000009005900018                         0
21000029072896
5200UNITEDHEALTHONE ACH INS PREM        9005900018PPDINS. PREM.170508170509   10
21000029072791
627000002802545448075562066260000006830094317442                              10
21000029072791
799R03071000010003165      25148136NO A/C UNABLE TO LOCATE            0081027850
2E000029072791
6270000028026220037863766    0000018930094332265                              10
21000029072866
799R20071000010003297      12407188NON-TRANSACTION ACCOUNT            0081027850
2E000029072866
820000000400000005600000000257600000000000009005900018                         0
21000029072791
5200UNITEDHEALTHONE ACH INS PREM        9005900018PPDINS. PREM.170508170509   10
21000029072474
6270000028021116455724       0000002560094216621                              10
21000029072474
799R07071000010002626      11300846AUTHORIZATION REVOKED              0081037850
2E000029072474
627000002802253456077        0000002000094294660                              10
21000029072709
799R03071000010003029      11301054NO A/C UNABLE TO LOCATE            0081917860
2E000029072709
627000002802253456077        0000067330094294660                              10
21000029072710
799R03071000010003030      11301054NO A/C UNABLE TO LOCATE            0081917860
2E000029072710
820000000600000008400000000718900000000000009005900018                         0
21000029072474
5200UNITEDHEALTHONE ACH INS PREM        9005900018PPDRDP RETRY 170501170508   10
21000029853151
627000002802756426423932     0000001040094314484                              10
21000029853151
799R01071000010083385      22137338INSUFFICIENT FUNDS                 0080357840
2E000029853151
820000000200000002800000000010400000000000009005900018                         0
21000029853151
5200UNITEDHEALTHONE ACH INS PREM        9005900018PPDRDP RETRY 170501170508   10
21000021948690
62700000280202789135139      0000100844058433729      DEBORAH J RICHARDSON    10
21000021948690
799R01071000010009060      04121503INSUFFICIENT FUNDS                 0080977850
2E000021948690
6270000028029006296812       0000003746059089696                              10
21000021948704
799R09071000010017830      06500009UNCOLLECTED FUNDS                  0080977850
2E000021948704
6270000028025733085500       0000001140094007942                              10
21000021948770
799R01071000010054557      11110487INSUFFICIENT FUNDS                 0080977850
2E000021948770
62700000280202185569095      0000006250094198951                              10
21000021948831
799R01071000010072208      07240347INSUFFICIENT FUNDS                 0080977850
2E000021948831
6270000028023315802023       0000002586094217324                              10
21000021948842
799R01071000010073980      11190101INSUFFICIENT FUNDS                 0080977850
2E000021948842
6270000028028286325883       0000004279094248122                              10
21000021948858
799R01071000010076580      11190101INSUFFICIENT FUNDS                 0080977850
2E000021948858
6270000028028286325883       0000001860094248123                              10
21000021948859
799R01071000010076581      11190101INSUFFICIENT FUNDS                 0080977850
2E000021948859
6270000028028232904268       0000002028094297712                              10
21000021948905
799R01071000010081457      11302491INSUFFICIENT FUNDS                 0080977850
2E000021948905
6270000028028232904268       0000001570094297713                              10
21000021948906
799R01071000010081458      11302491INSUFFICIENT FUNDS                 0080977850
2E000021948906
62700000280201661816865      0000001897430094969                              10
21000021948942
799R01071000010087445      04100015INSUFFICIENT FUNDS                 0080977850
2E000021948942
6270000028022273076          0000005928430305055                              10
21000021948964
799R01071000010095410      28657332INSUFFICIENT FUNDS                 0080977850
2E000021948964
6270000028025630227005       0000002560430320499                              10
21000021948969
799R01071000010096540      06500009INSUFFICIENT FUNDS                 0080977850
2E000021948969
6270000028024086678          0000001140430341282                              10
21000021948980
799R02071000010097921      06520099ACCOUNT CLOSED                     0080977850
2E000021948980
820000002600000036400000001358280000000000009005900018                         0
21000021948690
5200UNITEDHEALTHONE ACH INS PREM        9005900018PPDRDP RETRY 170501170508   10
21000021948738
6270000028020120285053       0000081078093195129                              10
21000021948738
799R01071000010040536      10300363INSUFFICIENT FUNDS                 0080987850
2E000021948738
6270000028021149324004       0000003916094083313                              10
21000021948785
799R01071000010057528      07192680INSUFFICIENT FUNDS                 0080987850
2E000021948785
6270000028020193381706       0000003687094264910                              10
21000021948874
799R01071000010078282      06120202INSUFFICIENT FUNDS                 0080987850
2E000021948874
62700000280200106690         0000025230094297196                              10
21000021948903
799R01071000010081349      08100702INSUFFICIENT FUNDS                 0080987850
2E000021948903
6270000028029710705          0000015440094326935                              10
21000021948932
799R01071000010084612      10310073INSUFFICIENT FUNDS                 0080987850
2E000021948932
627000002802114562574        0000003026430158292                              10
21000021948951
799R01071000010090973      27247185INSUFFICIENT FUNDS                 0080987850
2E000021948951
6270000028025104306863       0000005906093815346                              10
21000029853033
799R01071000010053045      05310112INSUFFICIENT FUNDS                 0080987850
2E000029853033
6270000028020005208671784    0000001140094053085                              10
21000029853043
799R01071000010055759      05310112INSUFFICIENT FUNDS                 0080987850
2E000029853043
6270000028020005208671784    0000003333094053087                              10
21000029853044
799R01071000010055760      05310112INSUFFICIENT FUNDS                 0080987850
2E000029853044
6270000028020005208671784    0000001940094053088                              10
21000029853045
799R01071000010055761      05310112INSUFFICIENT FUNDS                 0080987850
2E000029853045
6270000028020005225642909    0000118800094127097                              10
21000029853056
799R01071000010063857      05320160INSUFFICIENT FUNDS                 0080987850
2E000029853056
6270000028020005209192545    0000001140094195597                              10
21000029853078
799R01071000010071929      05310112INSUFFICIENT FUNDS                 0080987850
2E000029853078
6270000028020000240602148    0000003215094253174                              10
21000029853114
799R01071000010077121      26319138INSUFFICIENT FUNDS                 0080987850
2E000029853114
6270000028020000240602148    0000001430094260087                              10
21000029853118
799R01071000010077933      26319138INSUFFICIENT FUNDS                 0080987850
2E000029853118
6270000028020005102872462    0000016600094262027                              10
21000029853122
799R01071000010078091      05310112INSUFFICIENT FUNDS                 0080987850
2E000029853122
6270000028025187583383       0000002426094296958                              10
21000029853138
799R01071000010081300      08390068INSUFFICIENT FUNDS                 0080987850
2E000029853138
6270000028021010000722307    0000005266430301541                              10
21000029853175
799R01071000010095198      06220398INSUFFICIENT FUNDS                 0080987850
2E000029853175
6270000028020000241985679    0000013103430321422                              10
21000029853182
799R01071000010096608      26319138INSUFFICIENT FUNDS                 0080987850
2E000029853182
820000003600000050400000003066760000000000009005900018                         0
21000021948738
5200UNITEDHEALTHONE ACH INS PREM        9005900018PPDRDP RETRY 170501170508   10
21000029852982
6270000028021007238502       0000003746059085750                              10
21000029852982
799R01071000010017705      11190065INSUFFICIENT FUNDS                 0080997850
2E000029852982
6270000028023471442545       0000011071090099632      ROSALES,JESSIE          10
21000029852995
799R01071000010027896      12210527INSUFFICIENT FUNDS                 0080997850
2E000029852995
6270000028021010096150089    0000021619093078195                              10
21000029853009
799R01071000010036629      05300021INSUFFICIENT FUNDS                 0080997850
2E000029853009
6270000028021010239580131    0000020795093118121      GOFORTH,MEGHAN          10
21000029853010
799R01071000010037951      06310751INSUFFICIENT FUNDS                 0080997850
2E000029853010
6270000028027937546088       0000003746093207330                              10
21000029853014
799R01071000010041012      11190065INSUFFICIENT FUNDS                 0080997850
2E000029853014
6270000028028117627474       0000104343093324042                              10
21000029853017
799R01071000010045060      06310751INSUFFICIENT FUNDS                 0080997850
2E000029853017
6270000028026526230237       0000001140094018916                              10
21000029853041
799R01071000010054792      06100022INSUFFICIENT FUNDS                 0080997850
2E000029853041
6270000028021010090367616    0000001600094085721                              10
21000029853046
799R01071000010057748      05300021INSUFFICIENT FUNDS                 0080997850
2E000029853046
6270000028021010090367616    0000000870094085722                              10
21000029853047
799R01071000010057749      05300021INSUFFICIENT FUNDS                 0080997850
2E000029853047
6270000028021010090857090    0000005089094132176                              10
21000029853057
799R01071000010064551      05320776INSUFFICIENT FUNDS                 0080997850
2E000029853057
6270000028028084768400       0000033160094139394                              10
21000029853059
799R01071000010065608      11190065INSUFFICIENT FUNDS                 0080997850
2E000029853059
6270000028023219707985       0000001430094140063                              10
21000029853060
799R01071000010065688      06310751INSUFFICIENT FUNDS                 0080997850
2E000029853060
6270000028021910426376       0000002918094154454      LEWIS,MICHAEL E         10
21000029853066
799R01071000010067651      12400297INSUFFICIENT FUNDS                 0080997850
2E000029853066
6270000028027309934359       0000005133094156996                              10
21000029853068
799R02071000010068011      05320776ACCOUNT CLOSED                     0080997850
2E000029853068
6270000028021075307890       0000004377094162547                              10
21000029853069
799R01071000010068773      12210527INSUFFICIENT FUNDS                 0080997850
2E000029853069
6270000028023492487073       0000004416094163619      ANDERSON, ROYAL         10
21000029853071
799R01071000010068885      02120002INSUFFICIENT FUNDS                 0080997850
2E000029853071
6270000028023492487073       0000006875094163620      ANDERSON, ROYAL         10
21000029853072
799R01071000010068886      02120002INSUFFICIENT FUNDS                 0080997850
2E000029853072
6270000028023564090383       0000002426094189071                              10
21000029853075
799R01071000010071427      06310751INSUFFICIENT FUNDS                 0080997850
2E000029853075
6370000028029375925212       0000001430094194718                              10
21000029853077
799R01071000010071853      06310751INSUFFICIENT FUNDS                 0080997850
2E000029853077
6270000028021000210446194    0000003300094195695                              10
21000029853079
799R01071000010071935      03100050INSUFFICIENT FUNDS                 0080997850
2E000029853079
6270000028027108221453       0000004737094199486                              10
21000029853080
799R01071000010072247      11190065INSUFFICIENT FUNDS                 0080997850
2E000029853080
6270000028028757292241       0000001619094199656                              10
21000029853081
799R01071000010072261      06310751INSUFFICIENT FUNDS                 0080997850
2E000029853081
6270000028022000058763300    0000019600094217396                              10
21000029853087
799R01071000010073986      02120002INSUFFICIENT FUNDS                 0080997850
2E000029853087
6270000028026412565100       0000036880094222007                              10
21000029853096
799R01071000010074507      06100022INSUFFICIENT FUNDS                 0080997850
2E000029853096
6270000028028084768400       0000007782094222212                              10
21000029853097
799R01071000010074532      11190065INSUFFICIENT FUNDS                 0080997850
2E000029853097
6270000028028149808183       0000002758094222221                              10
21000029853098
799R01071000010074537      11190065INSUFFICIENT FUNDS                 0080997850
2E000029853098
6270000028021010241906813    0000017590094223249                              10
21000029853099
799R01071000010074681      06310751INSUFFICIENT FUNDS                 0080997850
2E000029853099
6270000028029396541410       0000006850094224311      SANDERS,ASHLEY          10
21000029853100
799R01071000010074815      05300021INSUFFICIENT FUNDS                 0080997850
2E000029853100
6270000028027484618041       0000005266094246205                              10
21000029853106
799R01071000010076436      06200008INSUFFICIENT FUNDS                 0080997850
2E000029853106
6370000028023858546272       0000002330094246970                              10
21000029853107
799R08071000010076500      05320776PAYMENT STOPPED                    0080997850
2E000029853107
6270000028025465176971       0000002426094252466                              10
21000029853113
799R01071000010077042      06310751INSUFFICIENT FUNDS                 0080997850
2E000029853113
6270000028021882098500       0000003982094261512                              10
21000029853121
799R01071000010078053      03100050INSUFFICIENT FUNDS                 0080997850
2E000029853121
6270000028021779888328       0000010597094269870                              10
21000029853124
799R01071000010078588      05300021INSUFFICIENT FUNDS                 0080997850
2E000029853124
6270000028025658928972       0000002426094283343                              10
21000029853128
799R01071000010079604      06310751INSUFFICIENT FUNDS                 0080997850
2E000029853128
6270000028027828431861       0000002426094286591                              10
21000029853130
799R01071000010079889      32127074INSUFFICIENT FUNDS                 0080997850
2E000029853130
6370000028023691536639       0000032050094294616                              10
21000029853133
799R01071000010080903      11190065INSUFFICIENT FUNDS                 0080997850
2E000029853133
6370000028021709594772       0000036670094295894                              10
21000029853136
799R01071000010081100      03100050INSUFFICIENT FUNDS                 0080997850
2E000029853136
6270000028026862733448       0000020010094299212                              10
21000029853140
799R01071000010081746      05320776INSUFFICIENT FUNDS                 0080997850
2E000029853140
6270000028025458673927       0000011121430040155      DELIA R MANGULINS       10
21000029853154
799R01071000010086314      12210527INSUFFICIENT FUNDS                 0080997850
2E000029853154
6270000028026147948159       0000003215430046311                              10
21000029853155
799R01071000010086532      06310751INSUFFICIENT FUNDS                 0080997850
2E000029853155
637000002802003100111716261  0000006652430112289                              10
21000029853159
799R01071000010087938      06100022INSUFFICIENT FUNDS                 0080997850
2E000029853159
6270000028027966186533       0000006007430153362                              10
21000029853160
799R01071000010090645      11190065INSUFFICIENT FUNDS                 0080997850
2E000029853160
6270000028025194068473       0000004842430172973                              10
21000029853164
799R01071000010091997      06100022INSUFFICIENT FUNDS                 0080997850
2E000029853164
6270000028025194068473       0000003200430172980                              10
21000029853165
799R01071000010091998      06100022INSUFFICIENT FUNDS                 0080997850
2E000029853165
627000002802041154920624     0000010854430176659                              10
21000029853167
799R01071000010092155      08430176INSUFFICIENT FUNDS                 0080997850
2E000029853167
6270000028021370866574       0000001730430293640                              10
21000029853172
799R01071000010094651      06100022INSUFFICIENT FUNDS                 0080997850
2E000029853172
6270000028025114892184       0000001140430334166                              10
21000029853185
799R01071000010097460      05300021INSUFFICIENT FUNDS                 0080997850
2E000029853185
6270000028021010138701053    0000003180430339872                              10
21000029853186
799R01071000010097821      05300021INSUFFICIENT FUNDS                 0080997850
2E000029853186
820000009600000134400000005074240000000000009005900018                         0
21000029852982
5200UNITEDHEALTHONE ACH INS PREM        9005900018PPDRDP RETRY 170501170508   10
21000021948702
6270000028021509843          0000003059059075172      RAYAVARAPU,GITA         10
21000021948702
799R01071000010017313      06320613INSUFFICIENT FUNDS                 0081007850
2E000021948702
6270000028020051863162       0000008718093777240                              10
21000021948760
799R01071000010052878      05310987INSUFFICIENT FUNDS                 0081007850
2E000021948760
6270000028026303662378       0000008447093842498                              10
21000021948762
799R02071000010053139      03607615ACCOUNT CLOSED                     0081007850
2E000021948762
627000002802732744065        0000015790093997299                              10
21000021948768
799R01071000010054156      04331809INSUFFICIENT FUNDS                 0081007850
2E000021948768
6270000028029348917          0000003947094043352                              10
21000021948779
799R01071000010055533      31408968INSUFFICIENT FUNDS                 0081007850
2E000021948779
6270000028027539066          0000001866094057932                              10
21000021948783
799R01071000010055900      07490330INSUFFICIENT FUNDS                 0081007850
2E000021948783
6270000028020051863162       0000003120094111020      JOYNER,CRYSTAL MICHELL  10
21000021948797
799R01071000010061700      05310987INSUFFICIENT FUNDS                 0081007850
2E000021948797
6270000028020051863162       0000003850094111021      JOYNER,CRYSTAL MICHELL  10
21000021948798
799R01071000010061701      05310987INSUFFICIENT FUNDS                 0081007850
2E000021948798
6270000028023343138          0000002008094141072                              10
21000021948806
799R01071000010065829      06520343INSUFFICIENT FUNDS                 0081007850
2E000021948806
6270000028024369777          0000066820094155187                              10
21000021948812
799R01071000010067763      11190714INSUFFICIENT FUNDS                 0081007850
2E000021948812
62700000280210000430910091   0000001897094166581                              10
21000021948821
799R01071000010069253      03138923INSUFFICIENT FUNDS                 0081007850
2E000021948821
6270000028024529564737       0000003591094227478                              10
21000021948847
799R01071000010075165      24107041INSUFFICIENT FUNDS                 0081007850
2E000021948847
62700000280210905871         0000007661094251943                              10
21000021948867
799R01071000010076989      07192330INSUFFICIENT FUNDS                 0081007850
2E000021948867
6270000028022846861          0000003918094263678                              10
21000021948873
799R01071000010078202      11190494INSUFFICIENT FUNDS                 0081007850
2E000021948873
6270000028022846861          0000004441094273421                              10
21000021948875
799R01071000010078851      11190494INSUFFICIENT FUNDS                 0081007850
2E000021948875
6270000028026700139931       0000017841094302043                              10
21000021948913
799R01071000010082194      10310061INSUFFICIENT FUNDS                 0081007850
2E000021948913
62700000280205005202         0000002330094326886                              10
21000021948930
799R01071000010084597      05500125INSUFFICIENT FUNDS                 0081007850
2E000021948930
62700000280205005202         0000007737094326887                              10
21000021948931
799R01071000010084598      05500125INSUFFICIENT FUNDS                 0081007850
2E000021948931
62700000280291897017         0000002008430294362      JOHN EUDY               10
21000021948960
799R02071000010094722      11131087ACCOUNT CLOSED                     0081007850
2E000021948960
6270000028021720600          0000001600430307807                              10
21000021948965
799R01071000010095570      11192360INSUFFICIENT FUNDS                 0081007850
2E000021948965
6270000028020586764490       0000003634090336770                              10
21000029852999
799R01071000010031380      12100035INSUFFICIENT FUNDS                 0081007850
2E000029852999
6270000028020681800463       0000007213090338984                              10
21000029853000
799R01071000010031505      12100035INSUFFICIENT FUNDS                 0081007850
2E000029853000
627000002802501011132343     0000013140094225437                              10
21000029853101
799R01071000010074978      12240072INSUFFICIENT FUNDS                 0081007850
2E000029853101
627000002802457021865709     0000001860094230334                              10
21000029853102
799R01071000010075314      12210170INSUFFICIENT FUNDS                 0081007850
2E000029853102
627000002802004677685333     0000003799430308350                              10
21000029853178
799R01071000010095613      12210170INSUFFICIENT FUNDS                 0081007850
2E000029853178
820000005000000070000000002002950000000000009005900018                         0
21000021948702
5200UNITEDHEALTHONE ACH INS PREM        9005900018PPDRDP RETRY 170501170508   10
21000021948699
62700000280208639079211      0000004054059025550      ALFORD,CHRISTOPHER S*   10
21000021948699
799R01071000010015629      25317704INSUFFICIENT FUNDS                 0081017850
2E000021948699
62700000280208618386095      0000004444093614195                              10
21000021948755
799R01071000010052234      25317704INSUFFICIENT FUNDS                 0081017850
2E000021948755
62700000280208640190590      0000004444093775403                              10
21000021948759
799R01071000010052869      25317704INSUFFICIENT FUNDS                 0081017850
2E000021948759
62700000280201102234652      0000010450094018964                              10
21000021948773
799R01071000010054793      25318453INSUFFICIENT FUNDS                 0081017850
2E000021948773
62700000280234643864         0000002350094083807      EPPS,ASHLEIGH           10
21000021948786
799R01071000010057588      25317704INSUFFICIENT FUNDS                 0081017850
2E000021948786
62700000280208637063400      0000003100094127070                              10
21000021948804
799R01071000010063853      25317704INSUFFICIENT FUNDS                 0081017850
2E000021948804
62700000280220035055         0000004697094149894                              10
21000021948811
799R01071000010067028      11311299INSUFFICIENT FUNDS                 0081017850
2E000021948811
62700000280208641837157      0000003550094169458                              10
21000021948823
799R01071000010069694      25317704INSUFFICIENT FUNDS                 0081017850
2E000021948823
6270000028020483024627       0000021670094173927                              10
21000021948825
799R02071000010070267      26709059ACCOUNT CLOSED                     0081017850
2E000021948825
62700000280208640088297      0000002350094212084                              10
21000021948839
799R01071000010073384      25317704INSUFFICIENT FUNDS                 0081017850
2E000021948839
62700000280208637101227      0000021400094234552                              10
21000021948851
799R01071000010075572      25317704INSUFFICIENT FUNDS                 0081017850
2E000021948851
6270000028022100649794       0000071590094259396                              10
21000021948870
799R01071000010077844      10491391INSUFFICIENT FUNDS                 0081017850
2E000021948870
6270000028022100649794       0000007196094259397                              10
21000021948871
799R01071000010077845      10491391INSUFFICIENT FUNDS                 0081017850
2E000021948871
62700000280201102683896      0000010270094259698                              10
21000021948872
799R01071000010077889      25318453INSUFFICIENT FUNDS                 0081017850
2E000021948872
62700000280208641124288      0000020530094275134                              10
21000021948876
799R01071000010078955      25317704INSUFFICIENT FUNDS                 0081017850
2E000021948876
627000002802210919941        0000012120094275525                              10
21000021948877
799R01071000010078980      11302458INSUFFICIENT FUNDS                 0081017850
2E000021948877
62700000280208640293987      0000001140094293791                              10
21000021948896
799R01071000010080757      25317704INSUFFICIENT FUNDS                 0081017850
2E000021948896
62700000280208640293987      0000002350094293792                              10
21000021948897
799R01071000010080758      25317704INSUFFICIENT FUNDS                 0081017850
2E000021948897
6270000028021100134963       0000058060094297590                              10
21000021948904
799R01071000010081428      07100153INSUFFICIENT FUNDS                 0081017850
2E000021948904
62700000280208643620402      0000005418094300903                              10
21000021948912
799R01071000010082032      25317704INSUFFICIENT FUNDS                 0081017850
2E000021948912
6270000028027865568435       0000004492430027985                              10
21000021948937
799R01071000010085567      03120136INSUFFICIENT FUNDS                 0081017850
2E000021948937
6270000028024304760758       0000002944430161848                              10
21000021948952
799R01071000010091298      06701482INSUFFICIENT FUNDS                 0081017850
2E000021948952
6270000028021604800984       0000001928430331522                              10
21000021948973
799R01071000010097291      30307279INSUFFICIENT FUNDS                 0081017850
2E000021948973
62700000280208637853904      0000002395430334705                              10
21000021948974
799R01071000010097494      25317704INSUFFICIENT FUNDS                 0081017850
2E000021948974
6270000028024320198058       0000002824430346828                              10
21000021948982
799R01071000010098338      06701482INSUFFICIENT FUNDS                 0081017850
2E000021948982
6270000028024326924241       0000056212690004104                              10
21000021948986
799R01071000010099590      03120136INSUFFICIENT FUNDS                 0081017850
2E000021948986
6270000028029138663918       0000063220094313435                              10
21000029853150
799R09071000010083267      26608655UNCOLLECTED FUNDS                  0081017850
2E000029853150
820000005400000075600000004051980000000000009005900018                         0
21000021948699
5200UNITEDHEALTHONE ACH INS PREM        9005900018PPDRDP RETRY 170501170508   10
21000021948681
6270000028020120005608       0000251372054849498      SIX PALMS COSTRUCTION   10
21000021948681
799R01071000010001974      06111284INSUFFICIENT FUNDS                 0081027850
2E000021948681
627000002802440024700906     0000061487058765992      SUSAN SCOTT             10
21000021948694
799R01071000010011487      12120221INSUFFICIENT FUNDS                 0081027850
2E000021948694
627000002802140110114866     0000028714059643060      CARR,JOHN C*            10
21000021948709
799R01071000010020653      10100101INSUFFICIENT FUNDS                 0081027850
2E000021948709
6270000028025638721071       0000032913090431053                              10
21000021948727
799R01071000010033281      31408863INSUFFICIENT FUNDS                 0081027850
2E000021948727
6270000028021442003174       0000003458093724985                              10
21000021948757
799R01071000010052654      04340003INSUFFICIENT FUNDS                 0081027850
2E000021948757
6270000028028005083822       0000002330094003224                              10
21000021948769
799R01071000010054355      31497285INSUFFICIENT FUNDS                 0081027850
2E000021948769
6270000028021209043          0000002195094021532                              10
21000021948774
799R01071000010054844      08390358INSUFFICIENT FUNDS                 0081027850
2E000021948774
627000002802245992           0000001140094086097                              10
21000021948787
799R01071000010057783      08151813INSUFFICIENT FUNDS                 0081027850
2E000021948787
627000002802016015246403     0000020170094120926                              10
21000021948801
799R01071000010062966      24417016INSUFFICIENT FUNDS                 0081027850
2E000021948801
6270000028029200808327       0000003042094143536                              10
21000021948807
799R01071000010066203      10700148INSUFFICIENT FUNDS                 0081027850
2E000021948807
62700000280219110000932      0000024962094163525                              10
21000021948820
799R01071000010068879      11130112INSUFFICIENT FUNDS                 0081027850
2E000021948820
6270000028029827433954752    0000003868094210284                              10
21000021948837
799R01071000010073213      11492474INSUFFICIENT FUNDS                 0081027850
2E000021948837
6270000028027974752342       0000006187094288199                              10
21000021948883
799R01071000010080061      04200031INSUFFICIENT FUNDS                 0081027850
2E000021948883
6270000028027974752342       0000012880094288200                              10
21000021948884
799R01071000010080062      04200031INSUFFICIENT FUNDS                 0081027850
2E000021948884
6270000028027974752342       0000002360094288201                              10
21000021948885
799R01071000010080063      04200031INSUFFICIENT FUNDS                 0081027850
2E000021948885
6270000028029972638721       0000025780094289585                              10
21000021948889
799R01071000010080244      07240545INSUFFICIENT FUNDS                 0081027850
2E000021948889
6270000028027341975345       0000020710094290968                              10
21000021948891
799R01071000010080399      04120005INSUFFICIENT FUNDS                 0081027850
2E000021948891
6270000028027903107238       0000009700094294463                              10
21000021948900
799R01071000010080880      07192390INSUFFICIENT FUNDS                 0081027850
2E000021948900
6270000028021555044          0000023560094295423                              10
21000021948902
799R01071000010081035      06420112INSUFFICIENT FUNDS                 0081027850
2E000021948902
6270000028027978833551       0000007600094299567                              10
21000021948907
799R01071000010081794      06310993INSUFFICIENT FUNDS                 0081027850
2E000021948907
6270000028029821510489987    0000007240094312509                              10
21000021948918
799R01071000010083181      11492474INSUFFICIENT FUNDS                 0081027850
2E000021948918
6370000028026100372000       0000014130094322067                              10
21000021948923
799R01071000010083830      31408863INSUFFICIENT FUNDS                 0081027850
2E000021948923
6270000028027360636760       0000001430094326720                              10
21000021948929
799R01071000010084563      06410383INSUFFICIENT FUNDS                 0081027850
2E000021948929
62700000280220200416921      0000002758430098338                              10
21000021948943
799R01071000010087597      11190058INSUFFICIENT FUNDS                 0081027850
2E000021948943
62700000280220396095         0000006109430177521                              10
21000021948955
799R01071000010092190      11130173INSUFFICIENT FUNDS                 0081027850
2E000021948955
6270000028026825456269       0000003200094218568                              10
21000029853089
799R01071000010074101      07200009INSUFFICIENT FUNDS                 0081027850
2E000029853089
820000005200000072800000005792950000000000009005900018                         0
21000021948681
5200UNITEDHEALTHONE ACH INS PREM        9005900018PPDRDP RETRY 170501170508   10
21000021948708
62700000280204983904         0000028891059634518                              10
21000021948708
799R01071000010020443      31407426INSUFFICIENT FUNDS                 0081037850
2E000021948708
6270000028025024448502       0000019417090424069                              10
21000021948726
799R01071000010033099      05140894INSUFFICIENT FUNDS                 0081037850
2E000021948726
6270000028020221091696       0000022252093214472                              10
21000021948741
799R01071000010041261      05140894INSUFFICIENT FUNDS                 0081037850
2E000021948741
6270000028027026989405       0000005906093620427      JESSICA M LANHAM        10
21000021948756
799R01071000010052280      25607497INSUFFICIENT FUNDS                 0081037850
2E000021948756
62700000280267043307         0000003458093861488                              10
21000021948764
799R01071000010053197      03130106INSUFFICIENT FUNDS                 0081037850
2E000021948764
627000002802181803755        0000001860094012291                              10
21000021948771
799R01071000010054651      31407426INSUFFICIENT FUNDS                 0081037850
2E000021948771
63700000280240205543         0000001860094186376      CARNES,CARESSA          10
21000021948827
799R01071000010071287      06220395INSUFFICIENT FUNDS                 0081037850
2E000021948827
6270000028027018920343       0000007760094211801                              10
21000021948838
799R01071000010073343      25607497INSUFFICIENT FUNDS                 0081037850
2E000021948838
6270000028027057279510       0000001430094245482                              10
21000021948857
799R01071000010076357      25607497INSUFFICIENT FUNDS                 0081037850
2E000021948857
6270000028020217161065       0000004325094288238                              10
21000021948886
799R01071000010080065      31407426INSUFFICIENT FUNDS                 0081037850
2E000021948886
6270000028027710773511749    0000006256094294426                              10
21000021948899
799R01071000010080873      10120568INSUFFICIENT FUNDS                 0081037850
2E000021948899
6270000028027033153482       0000005440094295332                              10
21000021948901
799R01071000010081019      25607497INSUFFICIENT FUNDS                 0081037850
2E000021948901
62700000280224656917         0000043320094320681                              10
21000021948921
799R01071000010083727      31407426INSUFFICIENT FUNDS                 0081037850
2E000021948921
6270000028027061407248       0000003215094327117                              10
21000021948933
799R01071000010084656      25607497INSUFFICIENT FUNDS                 0081037850
2E000021948933
6270000028027061407248       0000018455094327141                              10
21000021948934
799R01071000010084668      25607497INSUFFICIENT FUNDS                 0081037850
2E000021948934
627000002802933034150        0000002177430158243                              10
21000021948950
799R02071000010090971      25507259ACCOUNT CLOSED                     0081037850
2E000021948950
627000002802174555105        0000001570430302015                              10
21000021948963
799R01071000010095226      31407426INSUFFICIENT FUNDS                 0081037850
2E000021948963
6270000028027031073757       0000007821430329788                              10
21000021948971
799R01071000010097119      25607497INSUFFICIENT FUNDS                 0081037850
2E000021948971
627000002802003933141172     0000033883058870893      HAYES,JESSICA L*        10
21000029852976
799R01071000010013070      05200163INSUFFICIENT FUNDS                 0081037850
2E000029852976
627000002802005560124858     0000003994059013048      VARGAS,ANNETTE*         10
21000029852979
799R01071000010015093      06300004INSUFFICIENT FUNDS                 0081037850
2E000029852979
627000002802586026683569     0000027077090111960      BRAD SKOTAK             10
21000029852996
799R01071000010028094      11300002INSUFFICIENT FUNDS                 0081037850
2E000029852996
627000002802003737689238     0000030474093352814                              10
21000029853018
799R01071000010046555      06310027INSUFFICIENT FUNDS                 0081037850
2E000029853018
627000002802375002752719     0000015829093373266                              10
21000029853019
799R01071000010047704      07200080INSUFFICIENT FUNDS                 0081037850
2E000029853019
627000002802375002752719     0000003634093373268                              10
21000029853020
799R01071000010047705      07200080INSUFFICIENT FUNDS                 0081037850
2E000029853020
627000002802291003104369     0000003717093441742                              10
21000029853027
799R01071000010051146      08190480INSUFFICIENT FUNDS                 0081037850
2E000029853027
627000002802898065317238     0000004552093818494                              10
21000029853034
799R01071000010053061      06310027INSUFFICIENT FUNDS                 0081037850
2E000029853034
627000002802898072067584     0000003555093985690                              10
21000029853037
799R01071000010053854      06310027INSUFFICIENT FUNDS                 0081037850
2E000029853037
627000002802354008011718     0000001600094002098                              10
21000029853040
799R01071000010054303      08100003INSUFFICIENT FUNDS                 0081037850
2E000029853040
627000002802483041595735     0000002195094141570                              10
21000029853061
799R01071000010065916      02100032INSUFFICIENT FUNDS                 0081037850
2E000029853061
627000002802444015156314     0000004325094156624                              10
21000029853067
799R02071000010067961      06400002ACCOUNT CLOSED                     0081037850
2E000029853067
627000002802898078481232     0000003363094162964                              10
21000029853070
799R01071000010068814      06310027INSUFFICIENT FUNDS                 0081037850
2E000029853070
627000002802291019824963     0000035800094185181                              10
21000029853074
799R01071000010071205      07100050INSUFFICIENT FUNDS                 0081037850
2E000029853074
627000002802005774242377     0000020410094211931                              10
21000029853084
799R02071000010073364      11300002ACCOUNT CLOSED                     0081037850
2E000029853084
627000002802355006955095     0000003435094216486                              10
21000029853085
799R01071000010073897      08100003INSUFFICIENT FUNDS                 0081037850
2E000029853085
627000002802355006955095     0000005790094216487                              10
21000029853086
799R01071000010073898      08100003INSUFFICIENT FUNDS                 0081037850
2E000029853086
627000002802444016270286     0000011276094220803                              10
21000029853093
799R01071000010074372      06400002INSUFFICIENT FUNDS                 0081037850
2E000029853093
627000002802488044653200     0000015225094221339                              10
21000029853094
799R01071000010074424      11100002INSUFFICIENT FUNDS                 0081037850
2E000029853094
627000002802334046230157     0000005693094221389                              10
21000029853095
799R01071000010074430      06100005INSUFFICIENT FUNDS                 0081037850
2E000029853095
627000002802354006535173     0000014400094245021                              10
21000029853105
799R01071000010076328      08100003INSUFFICIENT FUNDS                 0081037850
2E000029853105
627000002802305005685604     0000012280094253214                              10
21000029853115
799R01071000010077127      10300001INSUFFICIENT FUNDS                 0081037850
2E000029853115
627000002802898075780952     0000002426094253513                              10
21000029853116
799R01071000010077164      06310027INSUFFICIENT FUNDS                 0081037850
2E000029853116
627000002802229047436162     0000002426094260652                              10
21000029853119
799R01071000010077991      06310027INSUFFICIENT FUNDS                 0081037850
2E000029853119
627000002802898086807798     0000001831094260661                              10
21000029853120
799R01071000010077992      06310027INSUFFICIENT FUNDS                 0081037850
2E000029853120
627000002802229028854284     0000002565094264043                              10
21000029853123
799R01071000010078226      06310027INSUFFICIENT FUNDS                 0081037850
2E000029853123
627000002802898069599861     0000043510094272898                              10
21000029853126
799R01071000010078808      06300004INSUFFICIENT FUNDS                 0081037850
2E000029853126
627000002802898071540662     0000009711094284687                              10
21000029853129
799R08071000010079709      06310027PAYMENT STOPPED                    0081037850
2E000029853129
627000002802898077664885     0000002426094292456                              10
21000029853132
799R01071000010080581      06310027INSUFFICIENT FUNDS                 0081037850
2E000029853132
627000002802898082626533     0000021670094299597                              10
21000029853141
799R01071000010081800      06310027INSUFFICIENT FUNDS                 0081037850
2E000029853141
627000002802898085591416     0000001040094304659                              10
21000029853146
799R01071000010082492      06310027INSUFFICIENT FUNDS                 0081037850
2E000029853146
627000002802898085591416     0000002426094304660                              10
21000029853147
799R01071000010082493      06310027INSUFFICIENT FUNDS                 0081037850
2E000029853147
627000002802291016402977     0000002762094312221                              10
21000029853149
799R01071000010083154      08190480INSUFFICIENT FUNDS                 0081037850
2E000029853149
627000002802488068916800     0000002560094326475                              10
21000029853153
799R01071000010084517      11100002INSUFFICIENT FUNDS                 0081037850
2E000029853153
627000002802229042738603     0000002054430064274                              10
21000029853156
799R01071000010086798      06310027INSUFFICIENT FUNDS                 0081037850
2E000029853156
627000002802898045359711     0000003000430088793                              10
21000029853157
799R01071000010087298      06300004INSUFFICIENT FUNDS                 0081037850
2E000029853157
627000002802005566319874     0000002565430275535                              10
21000029853169
799R01071000010093749      06300004INSUFFICIENT FUNDS                 0081037850
2E000029853169
627000002802003540023285     0000002033430300365                              10
21000029853174
799R01071000010095108      08100003INSUFFICIENT FUNDS                 0081037850
2E000029853174
627000002802005741407394     0000006422430302205                              10
21000029853176
799R01071000010095242      11300002INSUFFICIENT FUNDS                 0081037850
2E000029853176
627000002802005741407394     0000002560430302206                              10
21000029853177
799R01071000010095243      11300002INSUFFICIENT FUNDS                 0081037850
2E000029853177
627000002802488059506216     0000001140430353014                              10
21000029853188
799R01071000010098743      11100002INSUFFICIENT FUNDS                 0081037850
2E000029853188
627000002802375016748379     0000005580430355465                              10
21000029853189
799R01071000010098959      07200080INSUFFICIENT FUNDS                 0081037850
2E000029853189
820000012000000168000000005686270000000000009005900018                         0
21000021948708
5200UNITEDHEALTHONE ACH INS PREM        9005900018PPDRDP RETRY 170501170508   10
21000029852973
627000002802130114909877     0000039744058734787      DIXON,STEPHANIE E*      10
21000029852973
799R01071000010011087      04200001INSUFFICIENT FUNDS                 0081837860
2E000029852973
627000002802183493759        0000031800058968286      WILLIAMS,DOUGLAS*       10
21000029852977
799R01071000010014425      07500002INSUFFICIENT FUNDS                 0081837860
2E000029852977
627000002802153754474531     0000044136094106786                              10
21000029853050
799R01071000010060533      12120169INSUFFICIENT FUNDS                 0081837860
2E000029853050
6270000028020000151157       0000003200094201686                              10
21000029853082
799R01071000010072429      07100015INSUFFICIENT FUNDS                 0081837860
2E000029853082
627000002802820047488        0000008686094219638      BURRIS,TINA             10
21000029853090
799R01071000010074236      04200001INSUFFICIENT FUNDS                 0081837860
2E000029853090
627000002802199376085528     0000004705430280574                              10
21000029853170
799R01071000010094092      07190477INSUFFICIENT FUNDS                 0081837860
2E000029853170
820000001200000016800000001322710000000000009005900018                         0
21000029852973
5200UNITEDHEALTHONE ACH INS PREM        9005900018PPDRDP RETRY 170501170508   10
21000029852961
6270000028020012105838       0000098968054315637      LAUREL BURKONS          10
21000029852961
799R01071000010000667      04100103INSUFFICIENT FUNDS                 0081847860
2E000029852961
6270000028021000073927708    0000006057059023663      OAKES,KIM L*            10
21000029852980
799R02071000010015565      06310215ACCOUNT CLOSED                     0081847860
2E000029852980
6270000028024210090823       0000209988059606116      OTIS L STEVENS          10
21000029852985
799R01071000010019952      04100012INSUFFICIENT FUNDS                 0081847860
2E000029852985
6270000028021000083878123    0000019345059740875                              10
21000029852987
799R01071000010022601      06310215INSUFFICIENT FUNDS                 0081847860
2E000029852987
6270000028021214976345       0000043794093022726                              10
21000029853007
799R01071000010034896      26708419INSUFFICIENT FUNDS                 0081847860
2E000029853007
6270000028024646929298       0000026763093291402      WILLIAMS,JODI           10
21000029853016
799R01071000010043906      07192189INSUFFICIENT FUNDS                 0081847860
2E000029853016
6270000028024260547115       0000046471093385746                              10
21000029853022
799R01071000010048314      04100012INSUFFICIENT FUNDS                 0081847860
2E000029853022
6270000028021000158098979    0000004444093427713                              10
21000029853025
799R01071000010050553      05310046INSUFFICIENT FUNDS                 0081847860
2E000029853025
6270000028020371005108280    0000005156094038512                              10
21000029853042
799R01071000010055333      06100010INSUFFICIENT FUNDS                 0081847860
2E000029853042
6270000028021000198293325    0000004853094248603                              10
21000029853108
799R01071000010076620      06310215INSUFFICIENT FUNDS                 0081847860
2E000029853108
627000002802352837001507     0000042610094258581                              10
21000029853117
799R01071000010077720      04120008INSUFFICIENT FUNDS                 0081847860
2E000029853117
63700000280290004451250      0000026100094295440                              10
21000029853135
799R01071000010081038      22237044INSUFFICIENT FUNDS                 0081847860
2E000029853135
6270000028021000166197144    0000003849094317333                              10
21000029853152
799R01071000010083522      06100010INSUFFICIENT FUNDS                 0081847860
2E000029853152
6270000028021000180434564    0000004437430319366                              10
21000029853180
799R01071000010096429      06100010INSUFFICIENT FUNDS                 0081847860
2E000029853180
6270000028021000152915400    0000003333430329944                              10
21000029853184
799R01071000010097131      06100010INSUFFICIENT FUNDS                 0081847860
2E000029853184
820000003000000042000000005461680000000000009005900018                         0
21000029852961
5200UNITEDHEALTHONE ACH INS PREM        9005900018PPDRDP RETRY 170501170508   10
21000021948693
6270000028020320978          0000101749058698163      RONALD MUIRHEAD         10
21000021948693
799R01071000010010619      26527030INSUFFICIENT FUNDS                 0081857860
2E000021948693
6270000028021033050          0000058785059955055                              10
21000021948712
799R01071000010025500      08650063INSUFFICIENT FUNDS                 0081857860
2E000021948712
6270000028022910740485       0000019879090414092                              10
21000021948724
799R01071000010032848      07102566INSUFFICIENT FUNDS                 0081857860
2E000021948724
627000002802315583           0000006872094096620                              10
21000021948790
799R01071000010058898      10490067INSUFFICIENT FUNDS                 0081857860
2E000021948790
6270000028026743610510       0000009323094180711                              10
21000021948826
799R01071000010070900      11301054INSUFFICIENT FUNDS                 0081857860
2E000021948826
627000002802131041208        0000001570094201563                              10
21000021948832
799R01071000010072417      11301054INSUFFICIENT FUNDS                 0081857860
2E000021948832
627000002802501182084        0000003686094238657                              10
21000021948853
799R01071000010075847      07390335INSUFFICIENT FUNDS                 0081857860
2E000021948853
627000002802412901449        0000013360094248211                              10
21000021948860
799R01071000010076584      11190627INSUFFICIENT FUNDS                 0081857860
2E000021948860
6270000028024821651432       0000004705094276737                              10
21000021948878
799R01071000010079071      07102566INSUFFICIENT FUNDS                 0081857860
2E000021948878
627000002802602356271        0000006606094312012                              10
21000021948917
799R01071000010083118      12210645INSUFFICIENT FUNDS                 0081857860
2E000021948917
6270000028029833683494       0000011440094137471                              10
21000029853058
799R16071000010065321      02200004ACCOUNT FROZEN                     0081857860
2E000029853058
820000002200000030800000002379750000000000009005900018                         0
21000021948693
5200UNITEDHEALTHONE ACH INS PREM        9005900018PPDRDP RETRY 170501170508   10
21000021948718
62700000280232013308         0000059768090057274                              10
21000021948718
799R01071000010027193      06311272INSUFFICIENT FUNDS                 0081867860
2E000021948718
6270000028029846986598       0000036285093143435      JOE ABRAMO              10
21000021948734
799R01071000010038776      10100069INSUFFICIENT FUNDS                 0081867860
2E000021948734
627000002802469226           0000005418094159995                              10
21000021948817
799R01071000010068429      25317588INSUFFICIENT FUNDS                 0081867860
2E000021948817
6270000028027804958606       0000001040094171536                              10
21000021948824
799R01071000010069942      23117655INSUFFICIENT FUNDS                 0081867860
2E000021948824
627000002802003807418928     0000004668094207870                              10
21000021948834
799R01071000010072937      05310030INSUFFICIENT FUNDS                 0081867860
2E000021948834
627000002802406510008        0000005330094324804                              10
21000021948926
799R01071000010084149      28108101INSUFFICIENT FUNDS                 0081867860
2E000021948926
627000002802406510008        0000003330094324804                              10
21000021948927
799R01071000010084150      28108101INSUFFICIENT FUNDS                 0081867860
2E000021948927
62700000280209127408         0000005556430355420                              10
21000021948983
799R01071000010098957      27407432INSUFFICIENT FUNDS                 0081867860
2E000021948983
820000001600000022400000001213950000000000009005900018                         0
21000021948718
5200UNITEDHEALTHONE ACH INS PREM        9005900018PPDRDP RETRY 170501170508   10
21000021948680
6270000028025993076762       0000068607054469410      BRYAN VANN              10
21000021948680
799R01071000010001025      06320666INSUFFICIENT FUNDS                 0081917860
2E000021948680
627000002802048400246        0000024640057830669       MINEHAN,JODIE          10
21000021948683
799R01071000010004589      30117108INSUFFICIENT FUNDS                 0081917860
2E000021948683
627000002802170654           0000013794058828707      STETHEM,ROTH D*         10
21000021948697
799R01071000010012302      06319210INSUFFICIENT FUNDS                 0081917860
2E000021948697
6270000028026883361405       0000040495090042657                              10
21000021948715
799R01071000010026948      27247154INSUFFICIENT FUNDS                 0081917860
2E000021948715
6270000028027201219973       0000005954093058006      AARON NEILSON           10
21000021948732
799R01071000010036015      10700504INSUFFICIENT FUNDS                 0081917860
2E000021948732
6270000028022877094796       0000032014093197490                              10
21000021948739
799R01071000010040623      27197257INSUFFICIENT FUNDS                 0081917860
2E000021948739
6270000028022877094796       0000003717093197492                              10
21000021948740
799R01071000010040624      27197257INSUFFICIENT FUNDS                 0081917860
2E000021948740
6270000028021500430904       0000017815093372870                              10
21000021948749
799R01071000010047688      07100173INSUFFICIENT FUNDS                 0081917860
2E000021948749
6270000028028443075118       0000001140094014839                              10
21000021948772
799R01071000010054704      27197257INSUFFICIENT FUNDS                 0081917860
2E000021948772
6270000028027501295956       0000071878094107092                              10
21000021948793
799R01071000010060657      12240177INSUFFICIENT FUNDS                 0081917860
2E000021948793
6270000028020850118867       0000032298094107187                              10
21000021948794
799R01071000010060713      06309211INSUFFICIENT FUNDS                 0081917860
2E000021948794
6270000028021306421          0000040119094108063                              10
21000021948796
799R01071000010061134      01110433INSUFFICIENT FUNDS                 0081917860
2E000021948796
6270000028024127426100       0000014110094122545                              10
21000021948802
799R01071000010063199      27507128INSUFFICIENT FUNDS                 0081917860
2E000021948802
6270000028020241667271       0000012377094219073                              10
21000021948844
799R01071000010074164      06400001INSUFFICIENT FUNDS                 0081917860
2E000021948844
63700000280231013082         0000011920094231433                              10
21000021948848
799R01071000010075384      08190601INSUFFICIENT FUNDS                 0081917860
2E000021948848
6270000028028001054322       0000001600094243703                              10
21000021948855
799R02071000010076225      08420129ACCOUNT CLOSED                     0081917860
2E000021948855
6270000028021000027562       0000015880094281139                              10
21000021948879
799R01071000010079382      06301449INSUFFICIENT FUNDS                 0081917860
2E000021948879
6270000028020250007894       0000002380094300515                              10
21000021948908
799R01071000010081969      11492141INSUFFICIENT FUNDS                 0081917860
2E000021948908
6270000028020250007894       0000041320094300515                              10
21000021948909
799R01071000010081970      11492141INSUFFICIENT FUNDS                 0081917860
2E000021948909
63700000280299632            0000013676094321517                              10
21000021948922
799R01071000010083789      07590749INSUFFICIENT FUNDS                 0081917860
2E000021948922
6270000028020282517183       0000004603430024612                              10
21000021948936
799R01071000010085367      08420129INSUFFICIENT FUNDS                 0081917860
2E000021948936
6270000028020904290623       0000002195430128264                              10
21000021948945
799R02071000010088911      08420129ACCOUNT CLOSED                     0081917860
2E000021948945
6270000028020148354171       0000003337430150084                              10
21000021948948
799R01071000010090378      06530543INSUFFICIENT FUNDS                 0081917860
2E000021948948
6270000028026883216108       0000004618430285001                              10
21000021948957
799R01071000010094262      27247154INSUFFICIENT FUNDS                 0081917860
2E000021948957
627000002802806760899        0000004695430293866                              10
21000021948958
799R01071000010094680      10390003INSUFFICIENT FUNDS                 0081917860
2E000021948958
6270000028026503762389       0000002966430293888                              10
21000021948959
799R01071000010094682      06120175INSUFFICIENT FUNDS                 0081917860
2E000021948959
6270000028027440033320       0000019888094202939                              10
21000029853083
799R01071000010072521      12200049INSUFFICIENT FUNDS                 0081917860
2E000029853083
820000005400000075600000005080360000000000009005900018                         0
21000021948680
5200UNITEDHEALTHONE ACH INS PREM        9005900018PPDRDP RETRY 170501170508   10
21000021948862
627000002802785063           0000011672094249718                              10
21000021948862
799R01071000010076741      11492397INSUFFICIENT FUNDS                 0081947870
2E000021948862
627000002802785063           0000004540094249719                              10
21000021948863
799R01071000010076742      11492397INSUFFICIENT FUNDS                 0081947870
2E000021948863
627000002802785063           0000027220094249720                              10
21000021948864
799R01071000010076743      11492397INSUFFICIENT FUNDS                 0081947870
2E000021948864
627000002802533028937        0000032182093220850      BRANDAN WOLF            10
21000027223227
799R01071000010041446      04400003INSUFFICIENT FUNDS                 9990017850
2E000027223227
627000002802755129736        0000004002430178343                              10
21000027223228
799R01071000010092218      04400003INSUFFICIENT FUNDS                 9990017850
2E000027223228
627000002802979062395        0000025191090024189      STADLER,BARRY L         10
21000027290122
799R01071000010026660      07200032INSUFFICIENT FUNDS                 9990217850
2E000027290122
627000002802422091061        0000005809094238318                              10
21000027290126
799R01071000010075820      26708413INSUFFICIENT FUNDS                 9990217850
2E000027290126
627000002802422091061        0000005380094238319                              10
21000027290127
799R01071000010075821      26708413INSUFFICIENT FUNDS                 9990217850
2E000027290127
627000002802422091061        0000001011094238321                              10
21000027290128
799R01071000010075822      26708413INSUFFICIENT FUNDS                 9990217850
2E000027290128
6370000028023612058006       0000018610094285864                              10
21000027290129
799R01071000010079821      26708413INSUFFICIENT FUNDS                 9990217850
2E000027290129
627000002802769881173        0000011620094299876                              10
21000027290130
799R01071000010081856      26708413INSUFFICIENT FUNDS                 9990217850
2E000027290130
627000002802769881173        0000003215094299877                              10
21000027290131
799R01071000010081857      26708413INSUFFICIENT FUNDS                 9990217850
2E000027290131
627000002802889721218        0000054220094300120                              10
21000027290132
799R01071000010081896      26708413INSUFFICIENT FUNDS                 9990217850
2E000027290132
627000002802781587105        0000001430430300562                              10
21000027290133
799R01071000010095123      26708413INSUFFICIENT FUNDS                 9990217850
2E000027290133
627000002802000000783792927  0000003331094232642                              10
21000027435308
799R01071000010075443      08300013INSUFFICIENT FUNDS                 9990347850
2E000027435308
627000002802136213660        0000016527093122218                              10
21000027456296
799R03071000010038073      07400001NO A/C UNABLE TO LOCATE            9990537840
2E000027456296
627000002802828969852        0000037270094237010                              10
21000027507992
799R01071000010075723      07100001INSUFFICIENT FUNDS                 9991117850
2E000027507992
627000002802229051950        0000012040094281926                              10
21000027507994
799R01071000010079451      07100001INSUFFICIENT FUNDS                 9991117850
2E000027507994
627000002802999252943        0000004116430275883                              10
21000027507995
799R09071000010093800      07100001UNCOLLECTED FUNDS                  9991117850
2E000027507995
627000002802657752267        0000001992430277624                              10
21000027507996
799R01071000010093938      07100001INSUFFICIENT FUNDS                 9991117850
2E000027507996
627000002802829660919        0000099092058600160      JACKSON,SARA E*         10
21000027654859
799R01071000010009943      11100061INSUFFICIENT FUNDS                 9992017850
2E000027654859
62700000280246108039794      0000010347059025290      FARRELL,PORTER*         10
21000027654860
799R01071000010015613      11100061INSUFFICIENT FUNDS                 9992017850
2E000027654860
627000002802696783781        0000000813094046067                              10
21000027654864
799R01071000010055590      11100061INSUFFICIENT FUNDS                 9992017850
2E000027654864
6270000028029402722775       0000004942094206047                              10
21000027654867
799R01071000010072789      11100061INSUFFICIENT FUNDS                 9992017850
2E000027654867
627000002802914261326        0000010090094224364                              10
21000027654868
799R01071000010074823      11100061INSUFFICIENT FUNDS                 9992017850
2E000027654868
627000002802538836920        0000003987094226296                              10
21000027654869
799R01071000010075081      11100061INSUFFICIENT FUNDS                 9992017850
2E000027654869
627000002802856671115        0000002495094246603                              10
21000027654870
799R01071000010076471      11100061INSUFFICIENT FUNDS                 9992017850
2E000027654870
627000002802856671115        0000004737094246605                              10
21000027654871
799R01071000010076472      11100061INSUFFICIENT FUNDS                 9992017850
2E000027654871
627000002802876113622        0000014740094280766                              10
21000027654872
799R01071000010079349      11100061INSUFFICIENT FUNDS                 9992017850
2E000027654872
627000002802110971880        0000004777430126095                              10
21000027654873
799R01071000010088722      11100061INSUFFICIENT FUNDS                 9992017850
2E000027654873
62700000280201500297465      0000005203430342324                              10
21000027654877
799R01071000010098042      11100061INSUFFICIENT FUNDS                 9992017850
2E000027654877
62700000280201500297465      0000001570430342325                              10
21000027654878
799R01071000010098043      11100061INSUFFICIENT FUNDS                 9992017850
2E000027654878
627000002802894121508        0000074859058767133      ROD WHITE               10
21000027791098
799R01071000010011509      10200101INSUFFICIENT FUNDS                 9995017850
2E000027791098
820000006600000092400000005190300000000000009005900018                         0
21000021948862
5200UNITEDHEALTHONE ACH INS PREM        9005900018PPDRDP RETRY 170501170508   10
21000024784857
627000002802827017039        0000015760094158489                              10
21000024784857
799R01071000010068223      12210002INSUFFICIENT FUNDS                 9996017850
2E000024784857
627000002802753501196        0000070057059213020      BRANDON RIDDICK         10
21000027862243
799R01071000010018604      12210002INSUFFICIENT FUNDS                 9996017850
2E000027862243
627000002802671673361        0000005054090310247      GUILLEN,LEANDRO         10
21000027862244
799R01071000010030345      12210002INSUFFICIENT FUNDS                 9996017850
2E000027862244
627000002802653699053        0000007213093215550      INGERSOLL,KIRI          10
21000028274424
799R01071000010041290      32227162INSUFFICIENT FUNDS                 9997037850
2E000028274424
627000002802801135778        0000017535094113182      KRISTEN HENRY           10
21000028274425
799R01071000010062012      32227162INSUFFICIENT FUNDS                 9997037850
2E000028274425
627000002802801135778        0000017535094113183      KRISTEN HENRY           10
21000028274426
799R01071000010062013      32227162INSUFFICIENT FUNDS                 9997037850
2E000028274426
627000002802930892930        0000002184430026648                              10
21000028274427
799R01071000010085472      32227162INSUFFICIENT FUNDS                 9997037850
2E000028274427
820000001400000019600000001353380000000000009005900018                         0
21000024784857
5200UNITEDHEALTHONE ACH INS PREM        9005900018PPDRDP RETRY 170501170508   10
21000027986266
627000002802748333358        0000061679094107503                              10
21000027986266
799R09071000010060871      02110036UNCOLLECTED FUNDS                  9998027850
2E000027986266
820000000200000002800000000616790000000000009005900018                         0
21000027986266
5200UNITEDHEALTHONE ACH INS PREM        9005900018PPDRDP RETRY 170502170509   10
21000028639379
637000002802173495           0000006550094319831      PAIGE PECH              10
21000028639379
799R01071000010004879      27598137INSUFFICIENT FUNDS                 0081007850
2E000028639379
820000000200000002800000000065500000000000009005900018                         0
21000028639379
5200UNITEDHEALTHONE ACH INS PREM        9005900018PPDRDP RETRY 170502170509   10
21000026906695
6270000028024002180489       0000030270094327214                              10
21000026906695
799R01071000010005032      25108261INSUFFICIENT FUNDS                 0081037850
2E000026906695
6270000028025571203          0000084100094076891                              10
21000028639372
799R01071000010003473      31308728INSUFFICIENT FUNDS                 0081037850
2E000028639372
6270000028025571203          0000084100094076891                              10
21000028639373
799R01071000010003474      31308728INSUFFICIENT FUNDS                 0081037850
2E000028639373
62700000280284498            0000010028094116880                              10
21000028639374
799R01071000010003666      25397861INSUFFICIENT FUNDS                 0081037850
2E000028639374
62700000280270005411673041   0000010250094320742                              10
21000028639380
799R01071000010004880      07397218INSUFFICIENT FUNDS                 0081917860
2E000028639380
62700000280270007420086401   0000004540094326153                              10
21000028639382
799R01071000010004957      07397218INSUFFICIENT FUNDS                 0081917860
2E000028639382
627000002802756227025687237160000010320094327714                              10
21000028639383
799R01071000010005178      12430312INSUFFICIENT FUNDS                 0081917860
2E000028639383
820000001400000019600000002336080000000000009005900018                         0
21000026906695
5200UNITEDHEALTHONE ACH INS PREM        9005900018PPDRDP RETRY 170502170509   10
21000028639375
