00010001757910411 032917SIMIC, MARKO                       3940 N INDIANHEAD RD                                                  HERNANDO            FL34442FSV     002@336
00010002658659922 032917MUIZNIEKS, MARITA V                251 STARBOARD AVE                                                     ROCKPORT            TX78382FSV     0145293
00010003859082766 032917FRANK F GORSKI                     21844 TARTAN ST                                                       LEESBURG            FL34748FSV     0018297
00010004430029958 032917MICHELE MCFEDERS                   11614 E 72ND ST                                                       RAYTOWN             MO64133FSV     001!104
00010005054047603 032917ROBERT J WILSON                    1575 E BUTLER PIKE                                                    AMBLER              PA19002FSV     0052000
999999999999     0000000005001334144600000000000001334144600000262030
