00010001993658960 032917KENNETH   BICKNELL                 5524 GROOMTOWN RD                                                     GREENSBORO          NC27407METV    0032766
00010002757957115 032917GWEN      CHRISTIANSON             1615 PRAIRIE DR                                                       WEST BEND           WI53095METV    00*4187
00010003690000372 032917LAURIE    BLOCH                    65 HIGHWOOD RD                                                        DENVILLE            NJ07834METV    0117896
00010004054170757 032917KENNETH   STANTON                  1717 INDIAN SCHOOL RD                                                 GARLAND             TX75044METV    005(438
00010005093406496 032917ELITE INSPHOME SERVICES            PO BOX 1246                                                           FAIRBORN            OH45324METV    0055743
999999999999     0000000005000000000000000000000000000000000000320030
