LOGDX0010005000TB1OHIO463*CHD1000000000HJMK1234C0000000000000000
101 072000326900000280217051733B094011BANK ONE                 GOLDEN RULE           107500001
5200UNITEDHEALTHONE ACH INS PREM        9005900018PPDINS. PREM.1705161705161361071000010000001
62706550368107 0040957         00025738053114329      RALPH L DUDLEY          0071000010000001
6270631075131010028442723      00034452053164727      GARY,ESTHER M           0071000010000002
6270311001577019302843         00016534053546058      IRWIN/SARAH BROWN       0071000010000003
6270710005050437032535         00018090053574773      HELENE C KELLY          0071000010000004
6272750713307244026706         00040005053585958      LES/FELISA GRANT        0071000010000005
6270653019488020258656         00018709053765438      MARVIN ESTELL CRASS     0071000010000006
62731107885710492207           00018709053791238      EUGENE/MARY SWICK       0071000010000007
62731107885710492207           00018709053885198      MARY LOU SWICK          0071000010000008
6270654007555414193            00018709053968107      RITA OR BRENT TEMPLET   0071000010000009
6270631002770000941344         00127722054093919      VORBECK EQUITES         0071000010000010
62704121503202594117902        00042120054117076      ALFRED/GLADYS VANCURA   0071000010000011
6272422728740160056159         00063577054265513      NANCY J EPPLESTON       0071000010000012
62704220219655323798           00022860054377495      MAXINE LAIL             0071000010000013
62711400009300000000385023676  00145995054388576      JONATHAN CICHOCKI MD    0071000010000014
637125200044361320             00028980054450169      BRUCE CHRISTENSEN       0071000010000015
62706701430120418337           00063425054479438      MARK R TWOMBLY          0071000010000016
6270631147971100001258         00189970054491848      MID-STATE DEWATERING E  0071000010000017
6270412015120117603885         00025221054503898      JOSEPH GRANT/DANNA REA  0071000010000018
6272670841991211885659         00204754054503980      JC PARKS AND SEASIDE G  0071000010000019
62727207902157991203           00051900054535424      BETTY/ROBERT STRATFORD  0071000010000020
6270631075132000059093752      00076649054536971      MARTIN CASTENEDA LLC    0071000010000021
6271113085523550290            00066561054541335      TYLER G THOMPSON        0071000010000022
627064208042001084895          00031508054543811      THERMAL SAFE DISTRIBUT  0071000010000023
6271030036320462074014         00025560054553104      JOHN FARRAR             0071000010000024
6270842015243621968            00064549054572429      JAMES/JENNIFER KEY      0071000010000025
62708290087220537647           00060268054584345      CHRISTOPHER SEAY        0071000010000026
627051403711400055238          00031140054584414      GERALD/RUBY WHITE       0071000010000027
6270842057084700029884         00026941054592473      THOMAS GIBSON           0071000010000028
6270820012470139580            00045265054602722      BROWN LAW FIRM          0071000010000029
627061112843013430742          00171973054619436      LAURA/MARK ROCKEFELLER  0071000010000030
6271021025761062441            00067166054625916      MARK T BAIN             0071000010000031
62727248100410040629680808     00097920054629866      MARY FERRIS             0071000010000032
627082900911242462             00018270054631405      EUGENE SCHERM           0071000010000033
62704120595802005042           00021510054672410      REDITH S GOEBEL         0071000010000034
6270841007930286397            00027100054711242      HOKES AUTO ELECTRIC IN  0071000010000035
62708290785955184003           00237840054728122      WESTVILLE PRESCIPTION   0071000010000036
6270812027598000161920         00173992054730391      DALE G ALLEN            0071000010000037
6270532016075125396080         00020400054730416      DAVID C DANTZLER        0071000010000038
627071107987832308             00090453054733390      CATHLEEN CLUCAS         0071000010000039
627121202211440020953533       00108798054743732      JOHN E CARPENTER        0071000010000040
6270430000961130691748         00029600054765626      DOLORES P BIER          0071000010000041
6270521030651602772            00136630054768220      GRANGER AND COMPANY     0071000010000042
627104902062202205912          00015782054778151      CLAY A FOWLER JENNIFER  0071000010000043
6270640037686862799225         00075962054785304      SUSAN BASFORD           0071000010000044
62708290087224827007           00015660054791978      BETTY HUFFMAN           0071000010000045
627073910114070020264          00140904054793706      FUNDING SOLUTIONS INC   0071000010000046
627071000013121619880          00107976054811078      HOBBS,JENNIFER          0071000010000047
6272750713270968873000         00175892054848375      RALPH & MARY LLANAS     0071000010000048
6271019042250143516701         00174822054864506      DAVID HENDERSON         0071000010000049
6270532077661010178742386      00068714054867061      BLESSING PLANTATION     0071000010000050
627122101706000250221676       00021982054869186      DIANE HOUGH             0071000010000051
627114000093666033172          00026160054873202      BOBBY GILLESPIE         0071000010000052
627114000093590430638          00156777054873291      JENNIFER W CLARK        0071000010000053
6271030026912000111335         00219116054879163      JS FULKERSON ASSOC INC  0071000010000054
627275979076155361401          00096632054887039      DAVID J DRAAYERS        0071000010000055
6273070745519993344128         00070904054894259      MICHAEL OR JENNIFER BA  0071000010000056
63726317980448179802           00078316054894539      HAZEL LYNN ROBINSON     0071000010000057
62707110256816201604           00015074054900188      KATHLEEN E CURNUTTE     0071000010000058
6270631075131010188641817      00110448054901551                              0071000010000059
62710491079520359568           00111052054909706      LESLIE J ROBBINS JR     0071000010000060
6270759007660000637482         00052944054912464      MICHAEL W ROHLFS        0071000010000061
6271020010170635423179         00114091054915256      ANN E MC KISSICK        0071000010000062
6270210013187409486            00245395054950224      BARBARA S FEDERICO      0071000010000063
627071000013725007132          00143190054952893      THAKKAR,MINAL/PARAG     0071000010000064
627041001039354312033377       00017040054956844      ED BROWN/DAVID NOTTING  0071000010000065
6273012714600122013096         00019462054957722      LARRY D/CAROL J COOK    0071000010000066
62706200001901654659           00094577054964949      JAMES A ABELE JR        0071000010000067
627082901538005876941          00028914054999192      JANET L NUTT            0071000010000068
627122100024869226519          00057776057600368      GERLAD & DANA SALKO     0071000010000069
6270540000305316830812         00048661057601176      FRINET KASPER           0071000010000070
6273222716273093289178         00049735057602554                              0071000010000071
627122101706000085028829       00055002057602649      EMILY STRONG            0071000010000072
6370515033944490000072674      00039330057602848                              0071000010000073
6271221052788684090908         00050040057602928                              0071000010000074
6270532077661004210331014      00075583057602985      JODY W LIPFORD          0071000010000075
6270514042605230972909         00044562057603687                              0071000010000076
6270532077661010270857027      00086669057604382                              0071000010000077
6272532796593100000035359      00059761057604608                              0071000010000078
62727597888610004438500250     00062165057606512      NANCY A PAGENKOPF       0071000010000079
6270610001041019224805         00048975057606688                              0071000010000080
627122101706457000116686       00030602057612404                              0071000010000081
6270310000538626804488         00040623057613424      R MENDOZA GREEN/S GREE  0071000010000082
6271221000243113399542         00044267057613964                              0071000010000083
6271221057442511845702         00063734057615265      STEPHEN GRIM            0071000010000084
627122100024830778502          00131693057615273      B2B CFO PARTNERS LLC    0071000010000085
627055002707702276928          00027163057615286                              0071000010000086
627075000022182370923761       00038236057617668                              0071000010000087
6272750797141344850025         00053440057617977                              0071000010000088
6270410001244209729458         00048620057619248      ROBERT V & DINA A WALL  0071000010000089
627314074269147890012          00017009057620262      BARTON,ABRAHAM          0071000010000090
6270759128771020303800         00042145057621120      TONI SCOTT              0071000010000091
6272313801040244635082         00030847057621131                              0071000010000092
6270313029559854088052         00045701057621343      TIMOTHY P HINSCHE       0071000010000093
6270310005031000025126890      00105425057621544      THOMAS/KIM BEGGS        0071000010000094
6271240031161027649274         00059790057622588      SCOTT MILA              0071000010000095
627051000017004122210059       00081567057623360                              0071000010000096
6272532719451905014590         00030680057624024                              0071000010000097
6270539021977100946435         00049056057624207                              0071000010000098
6271010006959836912286         00053044057624559                              0071000010000099
627053201487480031673101       00099130057625002                              0071000010000100
627122100024876677410          00022894057625246      JIN MEI                 0071000010000101
6271221052783513743322         00013060057625934      GALLAGHER,BRENDAN       0071000010000102
6271221052783513743322         00013060057625934      GALLAGHER,BRENDAN       0071000010000103
6270620000801010133921977      00008239057626723                              0071000010000104
627053906041009160976169       00020643057627380      SHANNON D ROBINSON      0071000010000105
6270622039841010000287422      00010861057627383                              0071000010000106
627122101706457012491467       00039219057627496      DENISE/BRETT TOMPKINS   0071000010000107
627122100024743445397          00111012057628011      FAT CHANCE DBA BLUE WI  0071000010000108
6270532009832257608            00038375057628381                              0071000010000109
6270532077661005932708539      00054240057629440                              0071000010000110
627122101706000110878499       00024262057630491                              0071000010000111
6270532077661005426168915      00021090057631072      CHRIS/MELISSA STROM     0071000010000112
627122100024874981467          00084485057635133                              0071000010000113
6270539021971010036245         00070131057636862                              0071000010000114
6270510000201000109860659      00024782057637380      AMY LILLARD             0071000010000115
6273221728075350011100         00097700057637750                              0071000010000116
6273221724964500864428         00061492057639611                              0071000010000117
627263178070000188483          00020168057642852      RACHEL L NEULAND        0071000010000118
627053906041620114079201       00101464057643419      WILLIAM & THOMASA RAUT  0071000010000119
627051403164247052706          00022117057645671                              0071000010000120
6270759119884970267194         00062853057646837                              0071000010000121
6270420003140030850532         00055273057648005                              0071000010000122
62726117133811000002882717     00032251057648085                              0071000010000123
6271119006590662382936         00025077057649826      HILLARY AND EFSTRATIOS  0071000010000124
6270739025465070961            00020240057649969      HEATHER J. DAVIS        0071000010000125
62708290147360611145           00070655057650027                              0071000010000126
6270514005491010309580210      00030671057650058                              0071000010000127
6272641712700044521952         00072662057650381                              0071000010000128
6270540000305320140603         00061137057650458      D WARD INS SERVICES IN  0071000010000129
627064000059151206616345       00028402057650546      HAROLD GREER            0071000010000130
6270640000461000017948448      00036044057650615                              0071000010000131
62711311198313106542           00014883057650655                              0071000010000132
627044000804470114541713       00028649057650737      REBECCA ROCHAT          0071000010000133
6270815090702349923            00050778057650805      DE ANDREA,GINA M        0071000010000134
627063212631212183             00045273057650827      RICHARD BOYKIN          0071000010000135
6272631913871100001948995      00067669057650904                              0071000010000136
6270313095890714057707         00033489057651082                              0071000010000137
6270412087191158038            00045480057651779                              0071000010000138
62730117108114231290           00074555057652878                              0071000010000139
6270410027117522030654         00035951057660340                              0071000010000140
6270653021542229246            00013306057660470                              0071000010000141
6270631002773773663438         00036940057660526      DEIDRE M DITARANTO      0071000010000142
62707490464010174531           00087505057661764                              0071000010000143
627063100277003679763306       00046640057662325                              0071000010000144
6272111701018068687263         00056324057664638                              0071000010000145
62728108242300000021213293     00016086057665911      MORGAN ANDREA           0071000010000146
6270653037847770087114         00032720057666733                              0071000010000147
6270532009832193258            00025629057667385      BETH PALMER & BRUCE     0071000010000148
6270842012940609066136         00042750057667595                              0071000010000149
6270640000170002721538         00027775057668181                              0071000010000150
6270631075136198708569         00095728057670963      R BRENT PROCTOR         0071000010000151
6271119006592001483825         00086468057671027                              0071000010000152
627103000017002865813003       00020565057671762      DEREK D COFFMAN         0071000010000153
6272650754010000013670         00049196057673359      PASCAL,JOSEPH&POLLYANN  0071000010000154
627122101706457005280009       00013006057673903      RAYMOND CRESPO          0071000010000155
6270829077361151797            00033776057674388                              0071000010000156
627084201621181084577          00016525057674482      MELTON,EMILY            0071000010000157
627322174944248198             00048546057674484                              0071000010000158
627064000020004440247830       00052107057674725      DEANA JANCO             0071000010000159
627103112659563071             00063142057674867                              0071000010000160
6370759023371269570            00031011057674925                              0071000010000161
627072413845222003720          00036620057675666                              0071000010000162
627075000019687540104          00037933057676273                              0071000010000163
627122100024159860300          00023685057677993      GULLICK,NICOLE M        0071000010000164
6271221052781815141096         00025150057678702                              0071000010000165
62726317847830320568           00055806057680925      DOTSON,CAROLE           0071000010000166
6270670047643196235489         00097029057685037      INAKI NEGRETE GONZALEZ  0071000010000167
6271040000581158509426         00082823057686512                              0071000010000168
627063000047898069732819       00075225057686613      ADG AUTOMOTIVE EVENTS   0071000010000169
6270670917197432403272         00020534057686923                              0071000010000170
627071000013804026425          00025550057687950                              0071000010000171
6270631021521000057971847      00017849057689881                              0071000010000172
62731407426943135382           00086197057690899                              0071000010000173
627071000013165861770          00053888057690948      GABRIELLA POPE/ROBERT   0071000010000174
627063000047005493763577       00042611057691004                              0071000010000175
627071000013796859395          00012883057691005                              0071000010000176
627221375378130859300          00057684057691041                              0071000010000177
627104910135254499             00074280057691070                              0071000010000178
627063100277229019613874       00048970057691629                              0071000010000179
6271049139120000007200089491   00025012057693606      SCOTT IOSSI             0071000010000180
627021200339003814501679       00024369057695501                              0071000010000181
627063100277003503200738       00053080057695779      MC CLURE,CANDI J        0071000010000182
627053904483223005731795       00014833057695802      FESTA,DANIELLE          0071000010000183
627081906275224901             00048305057695840      PATTY BOESTER           0071000010000184
627063000047001465037375       00014056057696272                              0071000010000185
6270711013076350890163         00029658057698032      NANCY ROBBINS           0071000010000186
62706200118676258104           00055227057699558      CHRIS RICHARDSON        0071000010000187
6271131027144616018113         00041288057801052      TERRI RALPH             0071000010000188
627101000019450418544          00021303057801225                              0071000010000189
6270740066741416106            00079001057801365      MARTIN,GARY             0071000010000190
6270842012941602596801         00064864057801641                              0071000010000191
6270410001244239225242         00063841057802566                              0071000010000192
62708400002632-9060243         00061993057802609                              0071000010000193
6271110006141850239550         00077552057803122                              0071000010000194
6270641026015014725            00033064057803939                              0071000010000195
627064108249181606867          00026227057803986      DEBORAH R JOHNSON       0071000010000196
6270610002271100110403522      00047235057804086                              0071000010000197
6270843010422231948            00034931057804088                              0071000010000198
62706410352911068335           00031067057804120      AJ CLARK JR             0071000010000199
627064000020003782723987       00088628057804417                              0071000010000200
627061304363113028206          00143510057804570                              0071000010000201
627113000023005783107050       00053179057804572      HEINRICH CHRISTIAN PLL  0071000010000202
6270914000468914931368         00018610057804980      REICHERT,MELISSA K & T  0071000010000203
6272410704170450639018         00085770057805087                              0071000010000204
627084202219350030247          00061517057805355      WILLIAM WALL            0071000010000205
627053101121005202346989       00078757057805360      CALVIN & CHERYL MCGOWA  0071000010000206
627074000010646703017          00084340057806399      DANT,THOMAS J           0071000010000207
62707240347302383178440        00083365057808593                              0071000010000208
6271130105472512683676         00083538057811265                              0071000010000209
627044000037751320490          00098434057811328                              0071000010000210
6271110006149310485598         00036102057811457      KATRINA MIESCH          0071000010000211
627113000023586011806241       00082907057812735      KHAN,AZMAT              0071000010000212
6270440008048110966393         00090501057813167      STEVE & BONNIE STRANGH  0071000010000213
627111000025004781493149       00086469057814456                              0071000010000214
627113000023586014913018       00041398057814870                              0071000010000215
627067011760260076737806       00037751057814914      JAMES & REBA LAWRENCE   0071000010000216
6270719218914617736008         00066421057814920                              0071000010000217
637111000025001609491705       00049091057814973                              0071000010000218
6270653019484320026752         00063532057815279                              0071000010000219
6271030034672582694            00084289057817277                              0071000010000220
627101201863372276             00007386057817892                              0071000010000221
627044000037629137266          00029435057821931                              0071000010000222
627086507187150843             00065226057822026      NATALIE & DAVID FRANCK  0071000010000223
627081000032003476564779       00082173057822065                              0071000010000224
627044000037985644137          00020997057822186      KRISTEN DUER            0071000010000225
627272480678101013489950       00048366057822653      APRIL OSTERHAVEN        0071000010000226
62730308563850427013           00038992057822717                              0071000010000227
627111000614820707888          00011174057823359      JAMES KAMAU             0071000010000228
6272810814794050182            00058253057823891      EYMAN,DEBORAH K & CURT  0071000010000229
627044000037476149195          00063399057823915      HUNG PHAM               0071000010000230
62730398625838946015           00061546057825802                              0071000010000231
627072410903159417             00042719057825995      ERICH M YANOSKY         0071000010000232
6271012018923232433            00017698057826209      JENNIFER L DAVIS        0071000010000233
627072000326270000420923       00044512057826681                              0071000010000234
6270610002271010278152847      00036917057828094                              0071000010000235
627114916019530646             00031070057829513                              0071000010000236
627111000614901167924          00026894057829789      DAVID RODRIGUEZ         0071000010000237
6270640000173500486353         00014919057831794                              0071000010000238
627081000210152317931136       00012712057831940      WILLIAMS,JOSHUA         0071000010000239
6270653002791007449929         00102294057832837                              0071000010000240
6271221052781737331148         00020972057837264                              0071000010000241
6271031116181555514            00080115057838152      W AND W TIRE COMPANY    0071000010000242
6270631021521000144083358      00031303057838540                              0071000010000243
6270532079990017442            00048078057841633      END UP FURNITURE        0071000010000244
627261171671759205             00034616057842156      JULIE L KENNEDY         0071000010000245
627081904808291000303613       00030711057842636                              0071000010000246
6271221017064659161011         00101296057844029                              0071000010000247
6272631823121615016            00010018057845015      RANDALL L SAUTTER       0071000010000248
627081513969211990             00023486057847698                              0071000010000249
6271221872381052653480         00102575057847837                              0071000010000250
627044000037952034304          00029450057848199                              0071000010000251
6271130105470012495609         00114667057848640                              0071000010000252
6270410001244242583454         00013754057848788                              0071000010000253
627103900036810116724          00072202057849178                              0071000010000254
6272642713900159848201         00043286057850583                              0071000010000255
627082900872536373211          00021952057852061                              0071000010000256
627072000326215001726441       00061626057853678      JUDITH VANHORN          0071000010000257
6270310000538610850412         00015554057853742      ALEXIS LIEBERMAN        0071000010000258
62728637777701171214           00043358057853813                              0071000010000259
6272631913871100001888062      00053941057853837      THIEN BUI               0071000010000260
627061300367184157884          00020098057853931      BLAKEMORE,CLIFFORD A    0071000010000261
6270514005491010081324998      00024210057853951      VI DO & TAM MA          0071000010000262
6271119006596681652944         00057359057854109      PECK TRAINING GROUP LL  0071000010000263
62721139182510810471           00032756057854133      MARY ELLEN FORTIER      0071000010000264
6272712742412045870            00037208057854179                              0071000010000265
6270640000170231334059         00034151057854201      MONTY CAGLE/LORINA CAG  0071000010000266
6270641093295003546            00050594057854232                              0071000010000267
627064000020444006423878       00022893057854355                              0071000010000268
6271119007858511004166         00014000057854625                              0071000010000269
6270730002280670738541         00010355057854709                              0071000010000270
6270531011210005107041291      00099811057854808                              0071000010000271
627113124446317842             00113114057854877                              0071000010000272
6270650000902044479578         00088281057855338      ANTHONY MELANCON        0071000010000273
62707241384533008557           00018355057856249      KRAGT,BRIAN             0071000010000274
627071000013906456199          00086447057858672      BILLS,MARK              0071000010000275
627101000035010261220836       00159627057865285      MARK BUNNELL/BECKY COT  0071000010000276
6270815074254405283            00046059057865566                              0071000010000277
6270653002791004265807         00047268057868926                              0071000010000278
6270610002271000117803115      00081669057869131                              0071000010000279
62707240347301153079592        00112526057869171                              0071000010000280
627074000010916590201          00068264057869261      SCOTT W ALTMAN          0071000010000281
627111000025488016689422       00014695057869724      ANNA FAENZA             0071000010000282
6270829008720029711338         00011437057870049                              0071000010000283
627111000025488029708992       00094859057870056                              0071000010000284
6272630792767503047087         00017369057871642                              0071000010000285
6270815187731032011            00019096057873888                              0071000010000286
627101001018140110101152       00023589057874471      TINA VERHULST           0071000010000287
627071025661206124705          00012055057874655                              0071000010000288
627101015101314838             00018895057874837      KATE E FISHER           0071000010000289
6270410001244209273665         00019783057874976                              0071000010000290
62727507128838206048           00023097057878425                              0071000010000291
6272740704390053674775         00031865057878490                              0071000010000292
6271221052786237946667         00087448057878844      FAYE MAY                0071000010000293
6270610001041000123063132      00085687057880661      KENNETH J ARDREY        0071000010000294
627051000017004125033369       00022407057883111      MCFARLAND,JAMIE         0071000010000295
6270710256613620057919         00070678057883189      TAG TECHNOLOGIES        0071000010000296
6270670132470500069133         00036681057883299      VALERIE WAGNER          0071000010000297
6271149260121005339            00098659057883372      JEFF CLAWSON            0071000010000298
627111000614654221969          00068039057883499                              0071000010000299
627063000047003444354254       00023238057883528                              0071000010000300
6270212000251010017417497      00017287057883589                              0071000010000301
6272670841311880280440         00016572057883598                              0071000010000302
6271049003491377918            00020805057883621                              0071000010000303
6271221052788990630538         00006250057883628      ANDREW WASHUT           0071000010000304
6270610001041000079193800      00026836057883641                              0071000010000305
627072413829200119907          00066212057883758      CASARES,JOE & JONAY     0071000010000306
6272631827940000470913982      00029634057884209                              0071000010000307
6270410001244209410359         00037013057884999                              0071000010000308
627072000326840124317          00053915057885002                              0071000010000309
627104112409135177509          00047819057885856                              0071000010000310
627063100277003512063977       00065303057885909                              0071000010000311
6272313726910921801408         00009768057887312                              0071000010000312
6270631075131010191786594      00040451057894959                              0071000010000313
6270631075131010199135370      00020420057897707      OBREGON,HILARIO         0071000010000314
62710310126240070856           00062398057898657      YOUNG,ROBERT            0071000010000315
627122100024799049416          00033676057898819      ALLISON L DUFFIELD      0071000010000316
6270720008055402402910         00022702057899670                              0071000010000317
627071103619002873575401       00036241057900186                              0071000010000318
6270631075132787092416         00008352057900295      MARK BARNWELL           0071000010000319
627063100277229005131522       00027177057902186                              0071000010000320
627022300173763671336          00033605057905477                              0071000010000321
627071000013001115000570406    00044893057906372      BROOKE KELLY DESIGN ST  0071000010000322
6270631111691014779901         00027539057906781      VALERIE PIERCE          0071000010000323
627263178070000188483          00025957057907750      YVONNE NEULAND          0071000010000324
6270670148224284270108         00038172057907992                              0071000010000325
627064000020003782269807       00065511057908766                              0071000010000326
6270670148224253874288         00040429057908922                              0071000010000327
627063100277003766579393       00090913057910452      THOMAS M MOZLOOM        0071000010000328
6271031896820001010990         00040583057910466      KAUL,SALLY              0071000010000329
6272631813842370009666105      00032198057910529                              0071000010000330
6270640000173502146576         00016274057911069                              0071000010000331
6270310005036354403831         00061021057911255      ROBIN M DAHL            0071000010000332
627074000010832272355          00080328057912583                              0071000010000333
627082000073004164801756       00048311057913336                              0071000010000334
6272724818396922927000         00032057057915455                              0071000010000335
6272724818399200030089         00007656057916114                              0071000010000336
627063000047003445575210       00089490057916791      EDWINA A WUEST          0071000010000337
627065005435300318110          00043911057916845      VICKI BOBO OR JACOB     0071000010000338
627274970584550091760          00050847057916895                              0071000010000339
62726228551109017101899        00025733057917344                              0071000010000340
6270610002271000388676689      00028072057917584                              0071000010000341
62730117128525870740           00033907057917977                              0071000010000342
6270820001090106106021         00039648057918004      CARRIE WARE             0071000010000343
6270749085941310148176         00026725057918476                              0071000010000344
6270631021521000070353890      00054595057919361                              0071000010000345
627104913912800539163          00030812057922001                              0071000010000346
6270829008720010723843         00021502057922724                              0071000010000347
6270810114610131281106         00058997057923791      ENERGY SOLUTIONS OF MO  0071000010000348
62707240347302385388872        00040870057924564                              0071000010000349
627113000023586010576174       00054746057926508      JAYNA F BARTELS         0071000010000350
6271221052781440770111         00020170057927773      KEVIN MONTGOMERY        0071000010000351
627122101706000054838685       00061245057928410                              0071000010000352
627122101706000275054552       00093216057928803                              0071000010000353
627044000037922196522          00015850057930281                              0071000010000354
62705320712266073475           00035742057930608                              0071000010000355
6270720008055404905498         00063791057930741                              0071000010000356
6271221052101411020713         00073754057931090                              0071000010000357
6270719218914600036558         00046737057931402                              0071000010000358
627063000047005483331346       00032464057932646                              0071000010000359
6270815037043194427601         00053889057936186                              0071000010000360
627051000017435015142395       00067841057938918                              0071000010000361
627272480678101011373589       00051967057938949                              0071000010000362
62707192277717500091403        00014375057940165                              0071000010000363
6270640000171000142365         00035842057940334                              0071000010000364
6270640000177100150096         00035036057940458                              0071000010000365
6270720000966818759323         00057491057940504      KIM CHERNAY             0071000010000366
6271119089658044877            00059323057940521                              0071000010000367
6270759005752223340825         00021845057940794      HARTMAN,KRISTA          0071000010000368
6271130105472521256039         00123763057940856                              0071000010000369
627122100024737536755          00034152057940926      FULLER,MICHAEL/CASSAND  0071000010000370
6271119066110134619            00083264057941066                              0071000010000371
6270653054360100356999         00020694057941184      BOLTON FLAUTT           0071000010000372
6271221052780822879672         00042442057941188                              0071000010000373
627072000326651568412          00014006057941506      HALPIN,MELINA           0071000010000374
6270719016040000217208         00043394057941704                              0071000010000375
62707240347301153084053        00039385057947085                              0071000010000376
6271030128432007441            00040509057947228      CARLA R COOPER          0071000010000377
627075000019829253988          00027780057947784                              0071000010000378
6271220002477691018266         00078637057948776      UBALDO R CHAVEZ         0071000010000379
62708290087211842985           00033197057949158      SHELLY/COLLIN QUIRING   0071000010000380
6272631829142029853            00017219057949578      HARING,CHRIS            0071000010000381
62730408314785485990           00036621057949641      SHERRI HINKEL           0071000010000382
6271119006593895772345         00119631057949929      INDECA CRUDE XPRESS LL  0071000010000383
6270842012948001604381         00032268057950897      ROGER A WRIGHT DMD      0071000010000384
627122101706457015774961       00023820057951124                              0071000010000385
6270749085947973392066         00033583057953331      HALLES HIGHTOPS         0071000010000386
627122100024660947805          00021938057953773                              0071000010000387
6270410027117522024533         00041594057955742                              0071000010000388
6270441158091460305012         00043011057955852                              0071000010000389
6270815046519916695            00048349057955905                              0071000010000390
6270410001244207176327         00011642057956018                              0071000010000391
627063100277002290896802       00039436057956228      SHERYL ALLEN            0071000010000392
6270829008720390051291         00021201057956311      MOORE,JACQUELINE K      0071000010000393
6272630792767504416968         00015999057956456      BLACK,STEVEN/ALISHA WI  0071000010000394
627072000326757276639          00026822057958167                              0071000010000395
6271221052783629203888         00012948057959144                              0071000010000396
6271040000589635227169         00020924057959203                              0071000010000397
627053000196237027185221       00121878057959932      SILBERMANN-PASKOW,ANDR  0071000010000398
62711190744526237513           00072360057962399      GERARD LISEE & MONA GE  0071000010000399
6270759024213890581            00101462057962530      SUSAN/DANIEL BRUK       0071000010000400
627071904779154537659836       00064120057963639                              0071000010000401
627044000037118509980          00038861057963776      FAIRCHILD,SARAH         0071000010000402
62727248011512155803           00084419057963927                              0071000010000403
627071103619002911273762       00055877057964091                              0071000010000404
627064208165115987224          00052826057964231      RODION MOLINA           0071000010000405
6270640000177132224869         00028516057964294                              0071000010000406
6270654036260148228192         00015809057964382                              0071000010000407
6271119937769310668433         00050838057964399      YVETTE ZAVALA           0071000010000408
6271110006142992504320         00034775057964562                              0071000010000409
6270719242121064534000         00016751057964718                              0071000010000410
6270719242121064534000         00030971057964740                              0071000010000411
627072000805000265048829       00022172057964741                              0071000010000412
6271030036320460180327         00047754057964768                              0071000010000413
6273040834482304001553517      00015073057964777                              0071000010000414
6270815183758206162            00071323057965562                              0071000010000415
62707240347302386200577        00017906057965769                              0071000010000416
627272471852106762968          00027828057967219      HUSSEIN SABER           0071000010000417
62707240347302154844916        00053368057967271                              0071000010000418
62706220412901012137           00109070058004406      ATTALLA FLORIST LANDSC  0071000010000419
627102000021194313505910       00032445058012505      RYAN S HOFFMAN          0071000010000420
62708290700803356803           00038910058013441      TIM NOBLETT             0071000010000421
6270810002101980822454         00019462058025600      JAMES/DARLENE B SORENS  0071000010000422
6270810002101980822454         00019462058025601      DARLENE/JAMES SORENSON  0071000010000423
62704100015302667069699        00021060058025860      SALLY A HUGE            0071000010000424
6270620000806965472787         00036561058028164      JAMES JACKSON           0071000010000425
6270610001041000025155358      00111361058047429      VENTURE CONTROLS INC    0071000010000426
627072000805001590016581       00165820058055182      DANIEL SCHULTZ          0071000010000427
627072000326215000305494       00150592058082480      CALVIN/ENID MILLER      0071000010000428
6272313726912141016096         00071908058083554      FELICIANO,BENJAMIN      0071000010000429
6270514005495090050112         00075658058090581      HENRY/GENEVA BRIGGS     0071000010000430
6270829008720077841467         00067860058091933      JOHN HAGGARD            0071000010000431
62721117031812020008442        00009708058106671      DONALD LANGO            0071000010000432
6270631075132000028281605      00115743058107462      MARK E ROGERS           0071000010000433
6271020010170634737850         00061986058118393      JULIE K PREGER          0071000010000434
627061000052000140126096       00061533058125800      WHITE,KENNETH V*        0071000010000435
627221172270521001973          00237334058135917      YOUR GARDENING ANGEL L  0071000010000436
62710400084110016988           00067390058140850      STUDIO 40               0071000010000437
627063000047003443356059       00028851058141490      JENNIFER M TROXELL      0071000010000438
6270631021521000027577351      00100210058144683      LORNA M WILLIAMSON      0071000010000439
627073903419376731             00030722058164120      HOUSE,DANIEL J*         0071000010000440
6271031010261262331            00178078058173589      SHERRY L HILL           0071000010000441
6270610002271080003401971      00268422058175765      PATI HENSLEY            0071000010000442
6270631046680048064610         00059534058194770      JOHN DYER               0071000010000443
627263179804122538748          00077604058215512      HEATH/REBECCA PERRY     0071000010000444
6271221052781761805033         00017481058216914      NATHAN & JO PETERSON    0071000010000445
6271030036320462074014         00019350058224794      FARRAR, JOHN            0071000010000446
627261071315000003477239       00055022058226982      BRENDA FREMPONG         0071000010000447
6270719218914607082792         00082575058229875      LUCK,DENNIS P*          0071000010000448
6270719218914607082792         00082575058229875      LUCK,DENNIS P*          0071000010000449
627113100091990005704          00132062058234409      HUTCHENS,JEFFERY M*     0071000010000450
6270653019484460895            00027882058234918      HODGES,WILLIAM R*       0071000010000451
6270653019484460895            00027882058234918      HODGES,WILLIAM R*       0071000010000452
627065005435300318110          00044819058235793      VICKI BOBO OR JACOB     0071000010000453
627267084131692850857          00075540058240601      PALMERO,YAKIMA*         0071000010000454
62712210404618215376           00024967058243863      WILLIAM LEGOULLON       0071000010000455
6270422021967702750907         00037356058253114                              0071000010000456
6272423707760870031193         00036941058253144      VICKI SPITLER           0071000010000457
6271110007531882103649         00207900058276283      HEATHER/THOMAS BOURDEA  0071000010000458
6271020000766706147615         00023140058281928      HOLLIDAY,WILLIAM D*     0071000010000459
627074001048149372005210       00047054058285108      HILL,BRIAN S*           0071000010000460
6272642712800560052602         00024773058285748      SUSAN WARNER            0071000010000461
627044000037801132384          00032790058287003      DALY,KELLY R*           0071000010000462
627263179804100003398017       00051984058288180      CAITLYN N HERNANDEZ     0071000010000463
627102000021103678361462       00052724058298655      WAYMENT,KAREN E         0071000010000464
627044072243103012365          00070264058305225      KAREN CAMERON           0071000010000465
627041203374360501638          00024000058305779      PAT BAKER               0071000010000466
6270211011081020001855602      00143498058306105      DONALD F LOGAN*         0071000010000467
62722607548211641300041089     00122950058315960      ALEXANDRA GOVIER        0071000010000468
6270670917197978077654         00048738058318454      ELSIE FEHR              0071000010000469
62704400002402890471656        00098446058326795      POLANCO,JORGE A*        0071000010000470
6270670917197433887846         00123181058333013      ROBERT STONE FERRIS     0071000010000471
6270631075131010214302143      00117509058338858      STACY/TRAVIS MECK       0071000010000472
6272631913871100000266769      00021809058340825      GREEN,ZACKARY C*        0071000010000473
627061000052334044602746       00033740058341964      LOCKHART,ISAIAH         0071000010000474
6272631913871100000725348      00188041058344232      BENKEL,KEITH A*         0071000010000475
6270410001244205385942         00032163058346810      BECKER,KATHLEEN*        0071000010000476
6270810013870150023034         00038996058350807      GILROY,JANET A*         0071000010000477
6270610001041000140385088      00079421058351538      MICHAEL/NADIA GARNER    0071000010000478
6270610002272000035609597      00207973058359780      MAHONEY,ANDREW*         0071000010000479
627075000019225882750          00077921058363034      ANNE FRENCH             0071000010000480
6273119807250000462486         00052581058377708      BEAUFORT LANCASTER      0071000010000481
627063100277229004366178       00022034058380545      JODY SANTELLAN          0071000010000482
627051000017004127143202       00031125058381633      NEGAR ZAHIRI            0071000010000483
6270810009800028855233         00083196058390531      SPATOLA,CECILIA N*      0071000010000484
62724227215917131397918        00067868058399906      CHRISTINA ROGER         0071000010000485
6272749706810426018494         00188116058409614      KENNETH WATKINS         0071000010000486
6270719218914640357292         00030612058409699      ANGELA D LANNING        0071000010000487
627122100024820719904          00034302058412539      IKOVA CASTELLANOS       0071000010000488
6272111741819860003851946      00135044058412596      MUNDO,MICHAEL T         0071000010000489
6270810013878220547338         00054629058414828      KELLY M WITT            0071000010000490
6273140742690124790682         00071259058418373      GREG FLAGG              0071000010000491
62710490067922411763           00025200058418467      MATTHEW FISHER          0071000010000492
6270631075131010073541187      00054684058418544      WACHTER III,PAUL C*     0071000010000493
6271020000768964772639         00027319058419665      ANGELA LEWELLEN         0071000010000494
6271070054904192969041         00018087058420225      LEE,JEREMY P*           0071000010000495
6270759119887361639953         00083260058423076      SHARON J PECHACEK       0071000010000496
6272560749740095384731         00094839058427190      CAVANEY,KRISTIN*        0071000010000497
627114000093372022729          00029820058433264      NO MATHC                0071000010000498
6270620000801010152353393      00026330058441782      MCDANIEL,BRIAN S*       0071000010000499
627053200983880018866          00035790058444023      DAVIDS INSURED BENEFIT  0071000010000500
820000050054713147430000275007890000000000009005900018                         071000010000001
5200UNITEDHEALTHONE ACH INS PREM        9005900018PPDINS. PREM.1705161705161361071000010000002
6270550032011030004564838      00026289058447018      CLEAVON S AKIBOBETTS    0071000010000501
627052001633446011216706       00022537058451616      BETH & MICHAEL SINGER   0071000010000502
6271010006959834241325         00079978058452872      DAVID POSTLE            0071000010000503
6270719218914635859845         00019725058453282      MICHELLE STRENG         0071000010000504
627122101706004654491430       00097696058460324      TIM LEIDIGH             0071000010000505
6270532077661010029576481      00021184058460689      JACKIE LUTZ             0071000010000506
627122100024817503287          00119394058465457      JAMIE VEPREK            0071000010000507
6270514005491053080544707      00134126058469823      IVES,SCOTT*             0071000010000508
627053200666310765900001       00052625058470415      MURRAY III,DAVID M*     0071000010000509
6270311001574172070437         00169802058477182      SANTANA,WILLIE*         0071000010000510
6270630000472836263888         00075372058482472      WOZNIAK,LAURA*          0071000010000511
627063100277003433598636       00017734058483855      GERST,SHELBY C*         0071000010000512
6270631075131654200364661      00046565058486159      BLACK,KEVIN J*          0071000010000513
6270759005755400173705         00027297058499913      JONES,MICHAEL A*        0071000010000514
6270829008720061078482         00051485058502009      REGINA SHADOWENS        0071000010000515
6270631075132000016604553      00062145058502579      FRANKFORTER,LOUIZA*     0071000010000516
6271240031161050480274         00055547058505592      KATHLEEN/WILLIAM HARDI  0071000010000517
627261071315000002805216       00123998058519240      SWEITZER,SAMUEL J*      0071000010000518
62707240347302185558598        00012325058524987      DAWN MOLINARI           0071000010000519
62711301054741022440           00066723058526965      CANCHE,CHRISTINA*       0071000010000520
627113109131195313             00021037058527473      PHYLLIS ROLAND          0071000010000521
627114000093392076152          00029493058529766      DANIELLE/LUCAS HOUSOS   0071000010000522
6270842012940902515199         00039892058536941      BRENDA DILLARD*         0071000010000523
62703120208427716898           00041319058542606      TUCKER,JAMIE B*         0071000010000524
627122100024644207946          00045909058545632      CORTEZ,TANIA L*         0071000010000525
6270532077661010105999597      00141426058549112      RALPH/LAURA WILLIAMS    0071000010000526
627301171285000025181908       00030088058552458      MAKENNA A GERFEN        0071000010000527
6270532077661010088807515      00018318058552893      WALL,MATTHEW S          0071000010000528
6270540000305565128987         00060046058553748      DALE A KORANGY          0071000010000529
627053206961411307226          00062891058554459      CHARLES/KIMBERLY HAINE  0071000010000530
62721138416226000010857601     00070993058554731      LINDAUER,RICHARD A*     0071000010000531
6271221872381106660180         00035628058556488      JACKSON,NICHELE M*      0071000010000532
627053904483000778001441       00041196058557233      BRUNSON,ELIZABETH C*    0071000010000533
6271221052782653927471         00025002058558838      MATTHEW S TAILLON       0071000010000534
627053204280930002316          00027827058563307      NICK PINCKNEY JR        0071000010000535
6271221052787274256176         00031350058566373      HARRIS,PHILLIP          0071000010000536
6273020753191000003090209      00068569058567877      CLAPP,STEVE T*          0071000010000537
627063100277004434341690       00050427058573797      AMY BELLHORN            0071000010000538
6270829008720530471326         00012254058574551      JERRY & CLARA WEST      0071000010000539
6270631161221004407            00061722058574779      WILLIAM LAWRENCE        0071000010000540
6270610001041411197070         00036879058577532      DRENNAN,PATRICIA B*     0071000010000541
6270719268540250003720         00132500058578898      LAW OFFICES OF ROBERT   0071000010000542
62710400001678157749           00069745058581499      BOARDMAN,ROXANE*        0071000010000543
6270670039272209853            00016854058585779      THONON,CAROLINE*        0071000010000544
6271020000766604467958         00051120058586347      TOOLE,JOSEPH W*         0071000010000545
6272560749747006843119         00022798058587634      KATHLEEN SAFT           0071000010000546
627067014301448826             00017477058590308      LINDA KNOWLTON          0071000010000547
6271070050473401290457         00173224058594459      MATARAZZO,JOSEPH/VICTO  0071000010000548
6271070018057182748770         00074711058594582      GWEN EBBERS             0071000010000549
6270631075132144182793         00030212058595109      JULIANNE GREENBERG      0071000010000550
627281573259098000308617       00014772058613558      LEMARR,TRESA            0071000010000551
627101211031013331             00018450058616681      HEUSER,CHADWICK H*      0071000010000552
6270432111602007973            00095362058633127      EDGELL,JENNIFER*        0071000010000553
6270819038673939741            00056532058633677      JOSH MORTON             0071000010000554
62708420127852803301           00027446058638140      RICHARD K BALL JR       0071000010000555
6270410001244251817187         00014900058638262      FOX,JASON R*            0071000010000556
627044000037698105533          00235710058641943      DANULOFF,ROBERT W       0071000010000557
6271119006597935239306         00128960058643701      ZARA,GINGER A*          0071000010000558
627104102192577448             00089046058646092      LONNIE ROBINSON         0071000010000559
627122100024652120569          00021897058648228      WALLACE,STEVEN P*       0071000010000560
6270611013756521097161         00108724058656895      KEMP,MELINDA A*         0071000010000561
627044000037632626677          00050226058662222      TOMES,JENNIFER C*       0071000010000562
627044000037703366450          00011516058662420      HUILI STOUT             0071000010000563
6272412708190166205141         00036723058662855      SETH HATFIELD           0071000010000564
6270611013756920334211         00059215058663475      MR OR MRS LANE RICH     0071000010000565
6271119006593999970274         00019406058663489      PATEL,VIKASH*           0071000010000566
627103900036858044582          00081187058665717      HOLLIFIELD SERVICE CO   0071000010000567
6273030879950808111340         00015608058668371      WILLIS,BRANDON A*       0071000010000568
627053100300003532101404       00173656058669597      STEVE LEGER             0071000010000569
62711312265514010076           00017922058672077      ALLISON GEISINGER       0071000010000570
6273222757464176600            00026532058675637      HEFLIN,AMANDA*          0071000010000571
627111000614971192539          00016019058677371      CRYSTAL MAIEARS-SPARKS  0071000010000572
62708151819700260541           00058918058679221      JEFFREY STONE           0071000010000573
6271110155442000305            00022563058679532      WILLIAM K GORDON        0071000010000574
62707240347301153078894        00023628058680288      TYRELL,CHAD*            0071000010000575
6272611715871000298316714      00045579058690797      SHERITA STRANGE PEELER  0071000010000576
627101000019130618296          00035656058696012      MARK ZIMMERMAN          0071000010000577
627064000059151206388119       00082423058698461      WENDY & BRIAN DORFMAN   0071000010000578
6271130105476707037405         00051886058701994      DJB SYSTEMS INC         0071000010000579
6271119006590662828003         00009069058709355      MARSZAL,PAYTON A*       0071000010000580
627065503681013637492          00073402058709364      ALLEN,KANDY*            0071000010000581
6270422021967701207560         00092411058709380      GARBER,BRIAN*           0071000010000582
627043400036112574762          00021808058711283      KEVIN A MARTIN          0071000010000583
627111906006932467             00029070058713159      ROBERT FOGLE            0071000010000584
627084000026176318752          00022285058717077      TREGLIA,KARI M*         0071000010000585
62711301054728713932           00030801058717192      FRITH,ALEXIS*           0071000010000586
6270410001244234713538         00017655058717258      DEEGAN,ANTHONY R*       0071000010000587
6272410705303600502206         00032565058722796      MARK A TERLOSKY         0071000010000588
6270410027110016548548         00025918058727657      ZELEI,THOMAS S*         0071000010000589
62704100015301668434305        00082452058727847      TADDIE,MATTHEW O*       0071000010000590
6270514055158314420099         00031329058728951      AUTRY,RANDY*            0071000010000591
6270212727234904712422         00011657058732703      GRIZZEL,MELANIE B*      0071000010000592
6270640000171000262452         00073024058733333      MCBRIDE,TERRY A*        0071000010000593
627074000010643545932          00079470058739383      CORY KROGER             0071000010000594
6270440021617281910484         00043694058752493      NOWLAND,JASON C*        0071000010000595
6271119007856600176119         00051125058753188      STOLARSKI,JOEL*         0071000010000596
6270653002794900106286         00086983058755397      BIHM,PHYLLIS M*         0071000010000597
62731408968106111672           00083348058757574                              0071000010000598
6271119006590656747557         00040875058759705                              0071000010000599
62703110009223693623           00062128058759743      RICHARDSON,HOWARD C*    0071000010000600
6270719218914606672408         00019529058759925      HERTEL,CARLIE A*        0071000010000601
6270410001244241968491         00082980058764560      MICHAEL J LORRAINE MOR  0071000010000602
627263179817171033568400       00020413058765324      JENNIFER DANNISON       0071000010000603
6273212707421010192299792      00081753058766036      KIM & CARMEN BASTANTE   0071000010000604
6270631075132000036606829      00084562058768438      HOLCOMB,KRISTEN*        0071000010000605
627122400724004965518989       00051528058770424      ANETH THALHEIMER        0071000010000606
627082000073004870058738       00028431058776611      MCLAUGHLIN,TERESA D*    0071000010000607
627111000025005782691541       00051098058778298      KEVIN KELLY             0071000010000608
6271224022430110005782         00049365058778611      LEANA/LLOYD BLACK       0071000010000609
6270631075132000047595893      00040334058779268      DANIEL J WHITMORE       0071000010000610
6270670162315935766543         00149528058779830      EAGLE MGMT SVES INC     0071000010000611
6270711046472992642            00100939058781432      DODSON,KEVIN C*         0071000010000612
627122400724004969759744       00049972058781752      MASAKO AKIYOSHI         0071000010000613
627063100277003435441024       00022316058785453      LOPEZ ESTRADA,ANDRES E  0071000010000614
627063000047229009669647       00044652058786548      CONNIE MEGGS            0071000010000615
6270631021520606002506222      00013732058788072      VICTOR PENN             0071000010000616
6270631162611100049858         00129993058788702      FELIPE & MAGDALINE OLI  0071000010000617
627102000021103699325603       00110948058789110      SWANSON,AMY/SWANSON,BR  0071000010000618
627063100277003509208471       00034576058791353      WYNN,ANNIELAURIE B*     0071000010000619
6271020000766809191304         00032019058797901      BEAUPREZ,JOHN R*        0071000010000620
62706530027900000007209723406  00018558058797948      GREER,MICHELLE*         0071000010000621
627071000013899880918          00024704058798111      CHRISTINA  DIPAOLO      0071000010000622
627122400724004967573168       00013117058798137      SCHWALB,JOLEEN*         0071000010000623
6273212707425383349684         00020257058802170      KYLE O MALLEY           0071000010000624
627063100277229008234468       00074175058804768      JOHN D VANWORKUM        0071000010000625
6270670163250001033737         00018696058804791      TERRY A DRAKE           0071000010000626
6270670163250001033737         00024579058805317      TERRY A DRAKE           0071000010000627
6270829010880200002335         00019783058805849      LEXI CURTIS             0071000010000628
627066005502229022779378       00026219058817242      BRUNO,CHANTELL M*       0071000010000629
627071000013758382295          00075755058818295      BENJAMIN FEDER          0071000010000630
6273212707429839667954         00071586058819210      WILSON,BRIAN J*         0071000010000631
6270610001041000014148463      00013614058819419      AYRES,CHRISTOPHER T*    0071000010000632
6270631075132000041517437      00168289058822139      DANIEL,GEORGE K*        0071000010000633
627063000047008982108475       00022448058824235      ANDREA/SHIVRAJ PHATAK   0071000010000634
6270829013761085662            00197103058826201      MIKE/JOHNNA FULLER      0071000010000635
6270829008720019615415         00114600058826562      DEJARNATT,JAMES H*      0071000010000636
627063000047898048448043       00121442058830852      LISA/ABEL GARZA         0071000010000637
6273212707422000041616752      00020663058832924      FOSTER,RACHEL R*        0071000010000638
6273212707429931992839         00052594058833121      ADRIANA GONZALEZ        0071000010000639
627067009390362025304          00028963058839425      SEBASTIEN STUDER        0071000010000640
6270631021521000139760739      00068569058839484      NEW COVENANT EYES CHUR  0071000010000641
6270631075131010161783129      00038578058839582      CALDERON,MANUEL*        0071000010000642
6270631075136599145619         00041472058839870      JAMES MOORE             0071000010000643
6270311001571877364001         00072739058843765      EVANS,THOMAS G*         0071000010000644
627063100277001406834980       00074112058844506      RICHARDO/VIRGINIA MORA  0071000010000645
6270631075131151420311557      00040323058845394      MARTIN,JANICE M*        0071000010000646
6270610002271010003663792      00073233058845982      KATIE WALKER            0071000010000647
6270310005038121545084         00070367058846068      WILLIAM/SANDRA BETZNER  0071000010000648
6270631046680071824006         00056835058846089      DAVID/KACEY REED        0071000010000649
627065400137561150991          00049903058846200      BLACKS FURNITURE        0071000010000650
6271040028940016003816         00035378058846213      BRIGGS,PATRICIA*        0071000010000651
6270631075132803215934         00029738058849051      MARIA CAMARINOS/MARK H  0071000010000652
6270632081401238156            00035100058850155      SAWYER,KEITH A*         0071000010000653
6272631913871100000987008      00139553058850257      SEALEY,MARGER           0071000010000654
62710490895601500362           00077322058850369      SMITH,JUDY M*           0071000010000655
6272631827940000476910619      00055605058850592                              0071000010000656
627065400137787946433          00030630058851442      LOCANDER,JENNIFER A*    0071000010000657
627304083231708050922141       00012202058852209      CARRIE PRATT            0071000010000658
6272670841319282508907         00057997058854276      NIETO,PIERO G*          0071000010000659
6272670841319282508907         00057997058854276      NIETO,PIERO G*          0071000010000660
6272670841319282508907         00057997058854276      NIETO,PIERO G*          0071000010000661
6270650000902036005303         00017822058857252      DEBRA DIBLIN            0071000010000662
627107002147482052149          00026998058860933      WIKTOR,GERARD*          0071000010000663
6270654036264100948748         00015260058863069      JOHNSON,JADE A*         0071000010000664
627065400137894306372          00025380058864740      DAVIDSON,WHITNEY A*     0071000010000665
6271049139122601005834         00078009058864785      MARLOW,MICHAEL*         0071000010000666
6272631913870000148244014      00108661058867001      ROMULO COMOGLIANO MD P  0071000010000667
6273224840290073111007         00009405058868056      ROBERT/STACEY TANNEHIL  0071000010000668
627104901144131292             00075245058868070      BRHEL,DAVID L*          0071000010000669
62705390604100083189619609     00063135058871002      BIERER,JOSEPH*          0071000010000670
62706210577860870561           00080277058871231      DAVIS,DEBORA A*         0071000010000671
6270313127385113328486         00033916058875995      CURTIS,BRENDAN G*       0071000010000672
6272550778887001833647         00084930058879719      GBEKU GREGORY WRIGHT    0071000010000673
627044072324100001226090       00029576058879923      LEWYNN BOWLING          0071000010000674
627075902188314456             00095130058886881      WENDY FINNEY            0071000010000675
62727598137808002065969        00024448058887076      THOMAS QUIROZ           0071000010000676
6270531004650000392193168      00044384058887522      HUGHES,CAROLYN K*       0071000010000677
6272550778887001989465         00011234058890157      MFWAMBI,LILLIAN*        0071000010000678
6270514005497353219566         00063800058893188      AUSTIN,DAWN & AUSTIN I  0071000010000679
6270532009831391020714         00025438058894547      MARY & ANTHONY KUTSHER  0071000010000680
627052001633446009383447       00012345058894696      DAVID,SUMITHRIN E*      0071000010000681
62705190376102412142237        00069887058894722      DEHAVEN,BRIAN S*        0071000010000682
627122100024704586346          00015156058897876      BELTON,MARYANNE C*      0071000010000683
62706220456984187646           00044492058898930      TRACY/KEVIN HALL        0071000010000684
62705600738790781863           00038712058899943      HELLER,DAVID N*         0071000010000685
627231382306890006604          00034634058903595      JUSTIN/MELISSA OHM      0071000010000686
6270520001139863767126         00023100058908397      RICHARD M MCVAY         0071000010000687
627122101706457010225127       00089864058909515      MICHELLE D SULLIVAN     0071000010000688
627231373182975265870          00026432058910482      JARED HAMBURGER         0071000010000689
6271221057442501405364         00106416058913264      SEARLES,JEFFREY E*      0071000010000690
6271221053200730001769         00105101058913896      JEFFREY B COHN          0071000010000691
6271221052786553943983         00034985058915938      KEENEY JR,DAVE G*       0071000010000692
6270313091231390000296488      00013693058920259      BUTLER,TARAH C*         0071000010000693
6372550719810422014320         00009026058921265      QUAYE,JOED A*           0071000010000694
6270610001041000074192260      00011717058925060      GREEN,SCOTT A           0071000010000695
6271221052785104062798         00033691058926559      HOWARD J REUBEN MD      0071000010000696
62731407426911785527           00006012058926560      HARDY,KRISTOPHER*       0071000010000697
6270319134381711210060         00088622058926642      SCHNEER,DALE V*         0071000010000698
627053000196237010213252       00021881058926678      PARKUS,MATTHEW*         0071000010000699
6270719218914654117839         00023638058932253      JAMES MORGAN            0071000010000700
62712210002428499472           00016791058935916      DUMAS,ALLISON*          0071000010000701
627052001633446025918896       00012783058939558      BENNY,JOSEPH*           0071000010000702
627251480738111002203565       00012875058942979      MCKELVIE,HOLLY*         0071000010000703
62712210002426940957           00074932058943022      JOHN M & JILL NESS      0071000010000704
6273221724410003564079         00032716058943117      GRIMM,CORIN M*          0071000010000705
627122101706004679947503       00010895058943127                              0071000010000706
6273222716270971818897         00012808058943129                              0071000010000707
627314074269147890012          00058108058943334      BARTON,ABRAHAM          0071000010000708
627101000019590594135          00069484058948607      LANCE J COWELL          0071000010000709
6270313099452212765            00033399058948683      EISENHART,BRIAN L*      0071000010000710
627122101706000061008049       00022696058948741      CATERO,CHRIS*           0071000010000711
6270750000510018407191         00111458058948866                              0071000010000712
6273221747082762177711         00046819058949277      LEE KORRELL             0071000010000713
6270550033080005151128078      00035006058949521      CAROLINE MAYER GOELL    0071000010000714
627274074037124174362          00036343058949571      JONES,SUSAN             0071000010000715
6272550719811563333040         00023891058951484      DUNJA BARICAK           0071000010000716
627122101706457017749648       00018072058952181      SINDELAR,HALLORY A      0071000010000717
627061000104052848302          00040986058952540      DEBRA G CLAYCOMB DL     0071000010000718
627122101706000103812715       00053889058952901                              0071000010000719
6271221052787631514325         00067413058956548      THEODORE                0071000010000720
6270620000190083933107         00027720058960588      MORGENWECK,YALING C*    0071000010000721
627101011998120003543617       00025503058961185      MOLLY FUCHS             0071000010000722
627075000022182373488606       00096708058962040                              0071000010000723
627075000019747614998          00085160058963542      TRIGO,EDUARDO*          0071000010000724
6271221052780819474230         00076670058965370                              0071000010000725
6270310000538581246637         00018714058965501                              0071000010000726
6272750713301949500083         00072377058966909      PETERSON,BARBARA A*     0071000010000727
6270532016070005221768886      00021482058967183      ANDRELINA D HAYES       0071000010000728
6270319127851537919            00077895058967244      MARTINO,FRANK*          0071000010000729
6273021704630416205909         00029344058967806      KATHY & JERRY DORSAM    0071000010000730
6272532796593110000022394      00012684058968311      SKINNER,ERIN            0071000010000731
627122101706457008105767       00019605058968476      THOMPSON,MARK D*        0071000010000732
6270360761506206830822         00089113058969419      KENTZEL,PAUL S*         0071000010000733
6270620000190204621018         00008256058971292                              0071000010000734
627122100024914077003          00020600058973836      KOWAL,TED T*            0071000010000735
627053202130500218235          00076742058974053      KEITH DENNY             0071000010000736
6271221052780940720766         00074658058974077      BOGARD,BRIAN W*         0071000010000737
6271221052788634692456         00028331058974153      ALYSON TOUPALIK         0071000010000738
62712210002401781953           00059241058974190      HODEAUX,MATTHEW*        0071000010000739
6272910700019852665021         00062237058974230      COYLE,TODD W*           0071000010000740
6272550719811351136428         00017070058974344      STEVE HAIDAR            0071000010000741
6272560749747032467636         00025129058974525      DEAL,CECILIA            0071000010000742
627122100024623951576          00009620058974576      NICOLAZA BURNS          0071000010000743
6270514005491000322439361      00032148058975609      BANNER,CECILIA J*       0071000010000744
6270410001244239225242         00018459058978380                              0071000010000745
6270422021960072468673         00003522059000202      COOPER,KIMBERLY*        0071000010000746
62726117133811010004001653     00004403059002143      RITA WHITAKER           0071000010000747
62706530027900000007209723406  00004618059002649      GREER,MICHELLE*         0071000010000748
62722237044042472340           00003059059002659      RICHEY,ALISON J*        0071000010000749
6270631075131000536008384      00003059059002666      BRAKE,AMANDA L*         0071000010000750
6270620000801010187314268      00011390059002678      BELUSCAK,DAVE B*        0071000010000751
627063100277229008234468       00006057059003292      JOHN D VANWORKUM        0071000010000752
627011000138000003966747       00003059059003357      SYLVA,BARBARA*          0071000010000753
627063000047229026776296       00010708059004081      JARAMILLO,DOMINIQUE     0071000010000754
62704100015301668434305        00012327059004404      TADDIE,MATTHEW O*       0071000010000755
6272631828173089979502         00003389059004837      HOANG,LOAN*             0071000010000756
627101000019166518132          00003625059005216      ECKERT JR,RICK G*       0071000010000757
627311992904001065421          00003746059006027      SANDRA L HILL           0071000010000758
6270631075131010023157725      00003994059006028      PAULI,ERICH*            0071000010000759
6270440008048109373205         00006057059008207      WILLIAM R MATHEW        0071000010000760
6270630000475490262178         00003059059010028      BONIECANDONIU,NADINE*   0071000010000761
6270420003140066406257         00012327059010333      MORGAN,LORI D*          0071000010000762
627072000805005400266549       00012719059011192      JOHN & MARGARET BEAVER  0071000010000763
62706210229202004860           00005303059012706      FLOWERS,WHITNEY M*      0071000010000764
627063100277003432067809       00013980059012949      PAZOS,JUAN P*           0071000010000765
6270422021960038715618         00008574059013642      KELLER,SHEILA M*        0071000010000766
6270631021520557057060301      00006689059013783      MULLEN,BARBARA J*       0071000010000767
63708420127811135347           00003106059014800                              0071000010000768
627111000025586028935037       00005226059015223      SCARBOROUGH,ELIZABETH   0071000010000769
62725317704908633530761        00005516059016938      MILLER,MARILYN B*       0071000010000770
6271070053192510043564         00013960059017575      JUNGJOHANN,REBECCA L*   0071000010000771
6272740740407000166902         00005914059017616      THELMA CRETTENDEN       0071000010000772
6273070700050299196108         00007898059017626      NAN THOMAS              0071000010000773
627053000196000653221715       00004054059017667      JAMES WORTH             0071000010000774
6270810098136106068882         00003625059019103                              0071000010000775
6270532016070005221768886      00006169059019704      HAYES,ANDRELINA D*      0071000010000776
62711491715735604201           00011947059020292      CHAPA,NOELIA            0071000010000777
6271119032902127832            00003746059021580                              0071000010000778
627111000614131026090          00004646059022203                              0071000010000779
627121202211440001386375       00009017059022207                              0071000010000780
6271119006591363443282         00027051059022246      TAMMY TAYLOR            0071000010000781
6371119937763416438386         00004646059022251                              0071000010000782
627101100045005049217448       00003652059023133      JOHNSON,CHAD*           0071000010000783
6272211721860040259860         00021003059023394      LORRAINE A VOLLHARDT    0071000010000784
6272560749747008957354         00003878059024090      SUAREZ,ALMA             0071000010000785
6271130112580003949141         00011947059024436                              0071000010000786
62732118037900000603519901     00004027059024875      THERESA A SIMPSON       0071000010000787
6270622032302021145            00010319059024881                              0071000010000788
627244077323462085             00008574059024902      MESSER,DANIEL           0071000010000789
627063000047005499013713       00003994059024904                              0071000010000790
62704400064221311              00003522059024921      WILLIS III,WILLIAM K*   0071000010000791
62711301054700476021           00003746059024925      MURPHY,MARY E*          0071000010000792
6270631075131010245947933      00009734059025028      PAUL/SHIRLEY MULLEN     0071000010000793
627304082999720002005          00005814059025383                              0071000010000794
6270530002191060447835961      00008028059025561                              0071000010000795
627074000010022101160          00005914059025954      NICHOLAS TEMPLE         0071000010000796
6273110801620222179606         00003746059027425                              0071000010000797
627055002707807510610          00003878059027502                              0071000010000798
62711301054715016078           00018290059027700                              0071000010000799
6271220006610217803029         00005965059027704                              0071000010000800
6272653709158151599            00016179059027777                              0071000010000801
627113000023586021200219       00005226059027823                              0071000010000802
627063100277001405472272       00003059059027834                              0071000010000803
6270654001376900130060         00003417059027854                              0071000010000804
6270620065051110028972         00008044059029383                              0071000010000805
6271119937764414992184         00003746059029457                              0071000010000806
6270531011210005219813882      00004054059032957                              0071000010000807
6271110009604710992            00003746059033190                              0071000010000808
6271119006590771088103         00004646059033231                              0071000010000809
62711300002300312984236        00004646059033240                              0071000010000810
6270631021521000097707193      00006057059033251                              0071000010000811
62731408968101098078           00003746059033252                              0071000010000812
6271119006597859501434         00004646059033272                              0071000010000813
627111000025586029704254       00004646059033274      ROMO,RUBY               0071000010000814
62711190744539659328           00009017059033279                              0071000010000815
6272810829150020971902         00003625059033318                              0071000010000816
6272810829150020971902         00003625059033321                              0071000010000817
627063100277229035277980       00004618059033455      LUERA,LAURA             0071000010000818
627111000025004789700504       00007417059034012      LANGFORD,ALICE          0071000010000819
6271221872381061434480         00004154059034065                              0071000010000820
627053000196002372999711       00004257059034169                              0071000010000821
62707392286920014415           00005120059035654      MELU & DARWIN RAGSDALE  0071000010000822
627063100277003764747321       00011661059035707                              0071000010000823
6271221052789918895690         00005054059036224      SHELLEY PSOPYHALLA      0071000010000824
6271119006596196093170         00003746059036267                              0071000010000825
627111000025488019800745       00003746059036315                              0071000010000826
627111000614511629573          00003746059036329                              0071000010000827
627114903213341867             00003746059036351      SAM RAGSDALE            0071000010000828
6270710000136780008103043      00005669059036361      CLARK AND JEAN FETRIDG  0071000010000829
6270829003191078539            00003406059036363                              0071000010000830
6271110143258093863530         00004646059036636      CASANOVA,ROSARIO        0071000010000831
6270631021521000177734307      00006387059037617      WARREN,THOMAS A         0071000010000832
6271010149243014207            00012782059039050      BROWN TRUST             0071000010000833
6270810061625908855226         00003652059039124                              0071000010000834
6271119015194600138103         00003746059039432                              0071000010000835
62710700544535204564           00007821059039469                              0071000010000836
6271119006593181331822         00003746059039648                              0071000010000837
627052001633003930837311       00004054059039650                              0071000010000838
627071902878100149928          00005014059039661                              0071000010000839
627103000648638045930          00007338059039768                              0071000010000840
627274074037114823135          00008357059040091                              0071000010000841
627011900254009509311697       00029353059040764      LEMOS,DANIEL            0071000010000842
62707200032642397035           00005547059042706                              0071000010000843
627074000010665463188          00006757059042847                              0071000010000844
627322282001401202472708       00005065059042868                              0071000010000845
6270111030934242521022         00018540059042897                              0071000010000846
6270710000130924055834         00004617059042899      THOMAS,DOROTHY          0071000010000847
6271149176236001103739         00004646059042956      ALMA A MUNOZ            0071000010000848
627072000326722690898          00004154059042976                              0071000010000849
6272531778612013252322         00004054059043076                              0071000010000850
627063000047008980692433       00003059059043171                              0071000010000851
6270719218914612951024         00012688059043755      WOLK, GARY L            0071000010000852
6270631021521000089422488      00004980059044951                              0071000010000853
6270631075131010085877043      00003059059046507      KELLEN A. GOODELL       0071000010000854
627122100024936045053          00014540059046673      ROGER STEPPER           0071000010000855
627081904808291000223829       00003717059047723                              0071000010000856
62726318138414500005352065     00003059059047788      DIANA & MIGEL CASANOVA  0071000010000857
62711190744588538153           00005226059047885                              0071000010000858
627101000035500210505145       00007178059047979                              0071000010000859
62712430261351007300           00004257059048300      PAULINE CLAYSON         0071000010000860
627063100277229012430818       00003410059048585                              0071000010000861
6270620000190303291871         00003254059048822      HICKS,GRACE*            0071000010000862
6270631021520441001029516      00013980059048926                              0071000010000863
6270720008055401797740         00003634059050858                              0071000010000864
627086505545200242563          00005129059051368                              0071000010000865
627044000037761699081          00003522059051581                              0071000010000866
6270410001244252365143         00015119059051932                              0071000010000867
62707240335004210336           00003634059051938                              0071000010000868
6270640000170033536775         00011922059051996                              0071000010000869
627072000805005855771779       00012583059052011                              0071000010000870
6270430000961027762544         00003458059052576                              0071000010000871
6270670917197432403272         00003059059053070                              0071000010000872
62704100015302663727359        00006974059054189      PATRICIA/JOSEPH TERRAN  0071000010000873
627063000047005568490801       00006057059054190                              0071000010000874
627121201694153700557231       00003746059056498      HARRIET COOK            0071000010000875
62727198383300000000066701     00003717059057862                              0071000010000876
6270531126606062003557         00004054059057946                              0071000010000877
6271220006610879605547         00010029059058839                              0071000010000878
627072000326127262337          00003634059059289                              0071000010000879
627221172296709600011          00005511059059296      JONATHAN P BROWN        0071000010000880
6271119006591010200365770      00003746059059361                              0071000010000881
6270724026525718740            00019415059059427                              0071000010000882
627052001633446025067925       00003389059059624      CHRISTINA NAUMOWICZ     0071000010000883
627281081877920024942          00003625059060011                              0071000010000884
627101000019176342956          00015088059060029                              0071000010000885
627074000010195706742          00005014059060030                              0071000010000886
627044000037779999523          00003522059060682                              0071000010000887
6273211803799326604346         00005965059061896      ANGELA WUERZ            0071000010000888
6271070036123404500318         00009019059062327                              0071000010000889
6270640037681010149259785      00003106059062589                              0071000010000890
627052001633446003166686       00003878059062679                              0071000010000891
6273220784640400017994         00005965059063119      PATRICIA A PETERSON     0071000010000892
6270440008048110966393         00007178059063137      STEVE & BONNIE STRANGH  0071000010000893
6272739706827120637            00003381059063187                              0071000010000894
6270420003147025605671         00003522059063448      BARBARA HOFFMANN        0071000010000895
6271119006598303835352         00003746059063466                              0071000010000896
627102001017906883913          00007974059063475                              0071000010000897
6270810094282866407382         00011756059063574                              0071000010000898
627044000037922240312          00003522059063578      GOODEN,YOHANCE M        0071000010000899
627022300173763671336          00003717059063621                              0071000010000900
627063100277229005141114       00017044059063760                              0071000010000901
627072000326700640352          00003746059063801                              0071000010000902
6270622032854472122            00005303059063816                              0071000010000903
6272560784467220146026         00004646059063867      LAURA/VERNON LORE       0071000010000904
6270260128811010152273541      00004054059065229                              0071000010000905
6270670148224251031583         00004324059066777      SHARI RUBALCAVA         0071000010000906
6270313121107001480205         00003458059067072                              0071000010000907
6270640000461000053354030      00008226059068376      ROBERT/DEBRA GIARRAPUT  0071000010000908
6271040000580289456725         00016940059068524                              0071000010000909
627114916019530646             00004646059069159                              0071000010000910
627086300012113113884          00006569059069698                              0071000010000911
6271119006590367442704         00004646059070409                              0071000010000912
62726318301030100000737007     00003059059070672      JEREMY HICKS            0071000010000913
627042000013130104582155       00004422059071084                              0071000010000914
6270440008048110864036         00012688059071121      MARY HEPTING            0071000010000915
627114904953303800             00003746059071183                              0071000010000916
627263178070000188483          00003059059071354      YVONNE A NEULAND        0071000010000917
6270631075131660600377569      00006057059071402                              0071000010000918
627263179804100005358479       00003389059071485      RODRIGUEZ,SALUI         0071000010000919
6272631828174431983501         00003389059071649      JENNIFER HITE           0071000010000920
627263178070000188483          00004618059072054      RACHEL NUELAND          0071000010000921
6270640000205201614194         00008718059072854                              0071000010000922
6270420003140030850532         00012327059072967                              0071000010000923
6271119006597294871582         00013111059073377                              0071000010000924
6270840042842400596            00011922059073384                              0071000010000925
6271119006590234263117         00005226059073435                              0071000010000926
627301081508801653700          00003625059075253      WEST,JARROD & DIANA     0071000010000927
6271070025325842975947         00003950059075802                              0071000010000928
6270532016071410000232871      00006508059075821                              0071000010000929
627101000187145570901903       00004525059076781                              0071000010000930
627107002147024371799          00003950059077240                              0071000010000931
627122101706457005280009       00004154059077246      RAYMOND CRESPO          0071000010000932
6271011006343062423812         00005217059077399                              0071000010000933
627102001017515007578          00022001059077646      DANIEL/KRISTEN CRAINE   0071000010000934
627103900036801004808          00003706059077816                              0071000010000935
6270652034312594722            00005035059078048                              0071000010000936
627122100024013365383          00008226059078582      KATHLEEN/EUGENE FOSTER  0071000010000937
6270650000905629237293         00003417059078753      ROBERTS,JOSHUA A        0071000010000938
6270810009930301015856         00003625059078911                              0071000010000939
6271130249153801478688         00003746059079093                              0071000010000940
6271131226553031431            00003746059079160                              0071000010000941
6270631140010240038919         00016164059079617                              0071000010000942
6270719218914611207244         00010156059079669                              0071000010000943
627063100277001443054474       00007909059080076      VALERIE BROTHERHOOD     0071000010000944
6270653002791000151597         00010872059080643                              0071000010000945
6271130112580003948900         00003746059081359                              0071000010000946
6271119007858511004166         00004833059081467                              0071000010000947
6273149771888810002842047      00004646059082202      DEBI L WALKER           0071000010000948
6270710000131110019820266      00007360059082401                              0071000010000949
627111000025004782379194       00014499059082753      MEGEDE,BARBARA L        0071000010000950
627053100685040047628          00010922059083135                              0071000010000951
6272550719810653216751         00003878059083414                              0071000010000952
627313083992849900             00003746059083456                              0071000010000953
62704411509002038308879        00003522059083500      STACY/PATRICK HOLLENDE  0071000010000954
627107002147484072152          00008866059083522                              0071000010000955
6273221747082896576713         00004154059083523      ERIN E BERNHEIM         0071000010000956
6270410001244209273665         00004422059084726                              0071000010000957
627122101706234105931          00005054059085267                              0071000010000958
6272540755511100000163334      00009278059085357                              0071000010000959
6270631046680130327717         00006689059085719                              0071000010000960
6270311001577009004542         00005054059086146                              0071000010000961
6270610001041000079193800      00005608059086165                              0071000010000962
6270514005491000205445919      00007677059086218                              0071000010000963
6270719239097231006813         00003717059086243                              0071000010000964
6272532792061110000002768      00004054059086255                              0071000010000965
6271020000765312895872         00004148059087024      BRYAN T SHANNON         0071000010000966
6272532795104011101358815      00004075059087416      MICHAEL LEE MILLER      0071000010000967
627071000013533197716          00013009059087576                              0071000010000968
627271070801929516295          00005669059087597      CAROLINE MILSTENE       0071000010000969
6271020010171637372424         00005839059087632                              0071000010000970
627263182794470913982          00006057059087717                              0071000010000971
627113000023586024647387       00003746059087984      PEXX INC                0071000010000972
6271010148691016784            00004552059088048      JOHN WEIBEL             0071000010000973
627042000013130100286082       00003522059088590                              0071000010000974
6270631075131010297699815      00006057059088641                              0071000010000975
6273212707425863826904         00012763059089025                              0071000010000976
62725317549400700055700050     00004054059089204                              0071000010000977
6270631046680158132260         00003059059089301      SCOTT JACKSON           0071000010000978
627261071315000000556911       00005888059089376                              0071000010000979
6270719239097234759251         00007728059090628                              0071000010000980
62726228551109017101899        00003254059090637                              0071000010000981
627071000013251655161          00004194059090957      LUTFI ALKADDOUR         0071000010000982
6271140006537596237816         00014322059092370                              0071000010000983
6270319134381711648491         00010374059092399      STACEY L SMITH          0071000010000984
627122101706000275054552       00014540059092674                              0071000010000985
6270631021521000050921252      00003059059093548                              0071000010000986
627074000010645867904          00003413059093811                              0071000010000987
627081000032354009121319       00004525059094301      DAVIS,SHIRLEY           0071000010000988
6270620000193164267059         00006766059094833                              0071000010000989
62706200118628179936           00004194059095110                              0071000010000990
627065300211101951432          00005523059095283      CHRIS BISHOP/LORI RUSH  0071000010000991
627071000013811866961          00003717059095609                              0071000010000992
6271030128432007441            00003706059096031      CARLA R COOPER          0071000010000993
6271221052781609023740         00004154059096078      DANIELA LA DELFA        0071000010000994
627053100300000868064316       00004054059096205      DEBBIE CURTIS           0071000010000995
627101015101314838             00008778059096292                              0071000010000996
6270620000801010133921977      00004553059096716                              0071000010000997
627113000023002664226601       00005226059096799                              0071000010000998
6270829008720029242108         00004988059096811                              0071000010000999
627291975465745010091926       00003625059096826                              0071000010001000
820000050057900399580000142261250000000000009005900018                         071000010000002
5200UNITEDHEALTHONE ACH INS PREM        9005900018PPDINS. PREM.1705161705161361071000010000003
6270631002773765397152         00005129059096848                              0071000010001001
6271210428820511612574         00005965059097010                              0071000010001002
62710400001678063406           00006694059097518                              0071000010001003
6270739005221734007725         00004422059097682                              0071000010001004
627065503681013915670          00003106059098193                              0071000010001005
6271110006141383400344         00003746059098989                              0071000010001006
6273212707429065494222         00020352059099044                              0071000010001007
62725317704934824606           00004054059099064                              0071000010001008
6270640000177132224869         00005888059099073                              0071000010001009
6270654036260061298867         00003417059099095                              0071000010001010
6270815008592938820            00003717059099178                              0071000010001011
6272631827940001014535078      00003059059099320                              0071000010001012
627064108249181606867          00011922059099488      DEBORAH JOHNSON         0071000010001013
62727198483255138040           00003717059099570                              0071000010001014
6271119937760971441755         00013111059099612                              0071000010001015
6270310005031000730699476      00076204059202771      ROSSER,JANIS L*         0071000010001016
62705200216611542024           00031687059202986      HARRISON,BRIAN C*       0071000010001017
6270550010962045390406         00037015059203067                              0071000010001018
6270759005754318003491         00041292059203157      STRATZ,CAREN M*         0071000010001019
6270310000538610074281         00070137059203164      GIAMPA JR,JOSEPH*       0071000010001020
6271211375228001252132         00059546059205291      KLING,DARYL*            0071000010001021
627075912233294598             00033522059205667      KOENIG,MARK B*          0071000010001022
627053206819100810201          00048453059206177      GARRON,JUSTIN N*        0071000010001023
627052001633003928152273       00027982059208025      BENNETT,MARK A*         0071000010001024
6271221052782706544877         00036993059208767      JAMES TURPIN            0071000010001025
627122101706457029244526       00044697059210009      ESPERANZA RODRIGUEZ     0071000010001026
62727507135608054614           00040554059210454      ANDREW D MARTINEZ       0071000010001027
6271221057442507768175         00084026059211478                              0071000010001028
6272560749747007202034         00049807059211550      TROY/JENNIFER PAPPAS    0071000010001029
6271221040460042069896         00032425059212405                              0071000010001030
6270620036051003158928         00122255059214612      MICHAEL & PATRICIA TAT  0071000010001031
627031315036143900176          00066529059214922                              0071000010001032
627122235821153456136792       00052834059215733                              0071000010001033
627322172797474018             00015752059217913                              0071000010001034
