LOGDX0010005000TB1OHIO463*CHD1000000000HJMK1234C0000000000000000
101 072000326900000280217053133B094011BANK ONE                 GOLDEN RULE           107500001
5200UNITEDHEALTHONE ACH INS PREM        9005900018PPDINS. PREM.1703211703210801071000010000001
622123456789Q0006            0000157087440000107      DISCOUNT  CARD          0071000010000001
632123456789Q0020            0000006647440000230      Hellen  Grips           0071000010000002
637123456789Q0021            0000002053440000231      Shane  Wane             0071000010000003
622123456789Q0007            0000003679440000233      RootDisco  Joe          0071000010000004
622123456789Q0010            0000006647440000236      BenDisco  Stokes        0071000010000005
627123456789Q0011            0000002053440000237      KeatonDisco  Jennings   0071000010000006
627123456789Q0012            0000002053440000238      EoinDisco  Morgan       0071000010000007
627123456789Q0013            0000002053440000240      JosDisco  Buttler       0071000010000008
627123456789Q0014            0000002053440000242      JonnyDisco  Bairstow    0071000010000009
627123456789Q0015            0000002053440000243      AdilDisco  Rashid       0071000010000010
820000001001234567800000000123180000001740609005900018                         071000010000001
5200UNITEDHEALTHONE ACH INS PREM        9005900018PPDINS. PREM.1703211703210801071000010000002
627123456789Q0016            0000002053440000245      ChrisDisco  Woakes      0071000010000011
637123456789Q0017            0000002053440000247      LenDisco  Bell          0071000010000012
637123456789Q0018            0000002053440000248      AlexDisco  Hales        0071000010000013
637123456789Q0022            0000002053440000249      JasonDisco  Roy         0071000010000014
627123456789Q0002            0000000847440000257      ZafarDisco  Ansari      0071000010000015
627123456789Q0003            0000002053440000258      LiamDisco  Dawson       0071000010000016
627123456789Q0004            0000002053440000259      JakeDisco  Ball         0071000010000017
627123456789Q0005            0000002053440000260      SamDisco  Billings      0071000010000018
627123456789Q0001            0000002053440000261      JamesDisco  Taylor      0071000010000019
820000000901111111020000000172710000000000009005900018                         071000010000002
9000002000002000000190234567882000000029589000000174060
