101 071000013 0710000132017041204A094011FNB CHICAGO            UNITEDHEALTHONE        07100001
5200UNITEDHEALTHONE ACH INS PREM       9005900018PPDI NS. PREM.1703211703210801071000010000001
622123456789Q0006            0000157087440000107      DISCOUNT  CARD          0071000010000001
632123456789Q0020            0000006647440000230      Hellen  Grips           0071000010000002
637123456789Q0021            0000002053440000231      Shane  Wane             0071000010000003
622123456789Q0007            0000003679440000233      RootDisco  Joe          0071000010000004
622123456789Q0010            0000006647440000236      BenDisco  Stokes        0071000010000005
627123456789Q0011            0000002053440000237      KeatonDisco  Jennings   0071000010000006
627123456789Q0012            0000002053440000238      EoinDisco  Morgan       0071000010000007
627123456789Q0013            0000002053440000240      JosDisco  Buttler       0071000010000008
627123456789Q0014            0000002053440000242      JonnyDisco  Bairstow    0071000010000009
627123456789Q0015            0000002053440000243      AdilDisco  Rashid       0071000010000010
820000001001234567800000000123180000001740609005900018                         071000010000001
5200UNITEDHEALTHONE ACH INS PREM       9005900018PPDI NS. PREM.1703211703210801071000010000002
627123456789Q0016            0000002053440000245      ChrisDisco  Woakes      0071000010000501
637123456789Q0017            0000002053440000247      LenDisco  Bell          0071000010000502
637123456789Q0018            0000002053440000248      AlexDisco  Hales        0071000010000503
637123456789Q0022            0000002053440000249      JasonDisco  Roy         0071000010000504
627123456789Q0002            0000000847440000257      ZafarDisco  Ansari      0071000010000505
627123456789Q0003            0000002053440000258      LiamDisco  Dawson       0071000010000506
627123456789Q0004            0000002053440000259      JakeDisco  Ball         0071000010000507
627123456789Q0005            0000002053440000260      SamDisco  Billings      0071000010000508
627123456789Q0001            0000002053440000261      JamesDisco  Taylor      0071000010000509
820000000901111111020000000172710000000000009005900018                         071000010000002
5200UNITEDHEALTHONE ACH INS PREM       9005900018PPDI NS. PREM.1703201703200791071000010000003
622000000001Q0006            0000002195440000107      DISCOUNT  CARD          0071000010000001
622000000001Q0006            0000004390440000107      DISCOUNT  CARD          0071000010000002
622000000001Q0006            0000006585440000107      DISCOUNT  CARD          0071000010000003
622000000001Q0006            0000008780440000107      DISCOUNT  CARD          0071000010000004
622000000001Q0006            0000010975440000107      DISCOUNT  CARD          0071000010000005
622000000001Q0006            0000013170440000107      DISCOUNT  CARD          0071000010000006
622000000001Q0006            0000015365440000107      DISCOUNT  CARD          0071000010000007
622000000001Q0006            0000017560440000107      DISCOUNT  CARD          0071000010000008
622000000001Q0006            0000019755440000107      DISCOUNT  CARD          0071000010000009
622000000001Q0006            0000021950440000107      DISCOUNT  CARD          0071000010000010
820000001000000000100000000000000000001207259005900018                         071000010000001
5200UNITEDHEALTHONE ACH INS PREM       9005900018PPDI NS. PREM.1703201703200791071000010000004
622000000001Q0006            0000024145440000107      DISCOUNT  CARD          0071000010000501
622000000001Q0006            0000026340440000107      DISCOUNT  CARD          0071000010000502
622000000001Q0006            0000028535440000107      DISCOUNT  CARD          0071000010000503
820000000300000000030000000000000000000079029005900018                         071000010000002
9000004000004000000320234567882000000000000000000367158                                       
